:100000000C94DA070C9402080C9402080C94020871
:100010000C9402080C9402080C9402080C94020838
:100020000C9402080C9402080C94D21F0C944F20DC
:100030000C9402080C9402080C9402080C94020818
:100040000C9402080C9402080C9402080C94020808
:100050000C9402080C9402080C9402080C94881F5B
:100060000C9402080C9402080C9402080C940208E8
:100070000C9402080C9402080C9402080C940208D8
:100080000C9481220C9402080C9402080C9402082F
:100090000C9402080C9402080C9402080C940208B8
:1000A0000C9402080C9402080C94020820E280943C
:1000B0002000005B43414C5D204D005B4143545D9B
:1000C0002049444C45005B4143545D2043454E5418
:1000D00045524544005B4143545D204445434F4DE8
:1000E0005052455353494E47005B4143545D2043B2
:1000F0004F4D5052455353494E47004D696E206550
:100100006E6473746F7020666F756E643B20706FE1
:10011000736974696F6E2073657420746F2030008A
:100120005B43414C5D2041626F72746564005B43C8
:10013000414C5D2041626F72746564005265747554
:10014000726E696E6720746F206D61696E206D65D7
:100150006E752E004572726F723A20646574656325
:10016000744D696E2074696D656F75742E20496ECB
:1001700063726561736520504E3938206F7220615B
:10018000646A75737420686F6D696E67207370653B
:100190006564005B43414C5D2041626F727465642D
:1001A000005B43414C5D2041626F72746564005B8B
:1001B00043414C5D2041626F7274656400456E641A
:1001C00073746F7020616C7265616479206163740F
:1001D0006976652E204465636F6D7072657373690F
:1001E0006E67206120626974004465746563746998
:1001F0006E67204D494E207573696E6720656E6489
:1002000073746F702E2E2E353073206265666F7298
:10021000652074696D656F75742E20496620656E62
:100220006473746F7020697320616C7761797320D7
:100230006F6E2C20696E63726561736520706E301D
:1002400032342E20496620746F6F20736C6F772CC8
:1002500020696E63726561736520504E3938206F76
:10026000722061646A75737420686F6D696E6720AF
:10027000737065656420696E20706172616D65746C
:100280006572732E006465746563744D696E2073C6
:100290007570706F72746564206F6E204D352F4DD0
:1002A00036206F6E6C79005B43414C5D2041626F7C
:1002B00072746564005B43414C5D2041626F7274EF
:1002C0002072657175657374656420287175696342
:1002D0006B29004D617820656E6473746F702066C1
:1002E0006F756E643A20636F6E746163742F72650C
:1002F0006C65617365204020005B43414C5D20418B
:10030000626F72746564005B43414C5D2041626FB3
:1003100072742072657175657374656420287175D7
:1003200069636B290052657475726E696E6720741B
:100330006F206D61696E206D656E752E004572725D
:100340006F723A206465746563744D6178207469D6
:100350006D656F75742E20496E63726561736520DB
:10036000504E3938206F722061646A75737420684A
:100370006F6D696E67207370656564005B43414C07
:100380005D2041626F72742072657175657374656A
:10039000642028717569636B29005B43414C5D20C3
:1003A00041626F7274207265717565737465642043
:1003B00028717569636B2900456E6473746F7020D2
:1003C000616C7265616479206F6E2E204465636F85
:1003D0006D7072657373696E6700446574656374EC
:1003E000696E67204D4158207573696E6720656E90
:1003F0006473746F702E353073206265666F72653A
:100400002074696D656F75742E004F4B0045525214
:1004100020004D6F746F722077617320646973637D
:100420006F6E6E65637465643B2073657420746FD2
:1004300020434F4E4E454354454420666F7220631F
:10044000616C6962726174696F6E2E0046616374DB
:100450006F72792073657474696E67732072657347
:10046000746F7265642E20506F7765722D637963A7
:100470006C65206973207265636F6D6D656E646570
:10048000642E005B484F4D494E475D204E6F2065FE
:100490006E6473746F7020666F756E6420E2809472
:1004A00020686F6D696E672061626F727465642089
:1004B00028706F736974696F6E2072656163686517
:1004C00064203020776974686F757420656E64737A
:1004D000746F703B20636865636B20776972696E27
:1004E00067206F722064697361626C65204D352FDF
:1004F0004D3620696E204D6F74696F6E2043656EB6
:1005000074657229002061626F727465643A2072AA
:10051000656163686564206C6F676963616C2070F6
:100520006F736974696F6E203020776974686F75B6
:100530007420656E6473746F702074726967676588
:1005400072005B484F4D494E475D204D005B484F60
:100550004D494E475D204E6F20656E6473746F7019
:1005600020666F756E6420E2809420686F6D696EFE
:10057000672061626F7274656420286D61782073F2
:1005800065656B206C696D6974207265616368656F
:10059000643B20636865636B20776972696E6720CE
:1005A0006F722064697361626C65204D352F4D3622
:1005B00020696E204D6F74696F6E2043656E74659F
:1005C00072290029002C206C696D69743D0020613E
:1005D000626F727465643A206D6178207365656B33
:1005E0002073746570732072656163686564202888
:1005F0006D6F7665643D005B484F4D494E475D2009
:100600004D005741524E494E4720534552564F20B8
:10061000454E41424C4544005741524E494E4720B9
:10062000534552564F2044495341424C45440008DB
:100630000B00020202000009040000010202000097
:1006400005240010010524010101042402060524EB
:100650000600010705810310004009040100020A99
:100660000000000705020240000007058302400069
:10067000000403090412010002EF02014041233685
:100680008000010102030141726475696E6F204CA4
:100690004C430041726475696E6F204C656F6E61EA
:1006A00072646F0000207C204D617267696E3D00AE
:1006B00000207C204D61783D000043616C696272CE
:1006C0006174696F6E206C6F6164656420666F721F
:1006D000204D00454550524F4D20696E76616C6942
:1006E00064206F72206D6178206861736E277420BA
:1006F0006265656E2063616C696272617465642015
:1007000079657420283D3029005B534146455D20C2
:1007100053696D4875622073747265616D207265EE
:1007200073756D656420647572696E6720504152FF
:100730004B5F5A45524F005B534146455D2053691C
:100740006D487562205041524B5F5A45524F20749C
:10075000696D656F7574202D3E20534552564F5F6D
:100760004F4646005B534146455D2053696D4875D1
:1007700062205041524B5F5A45524F20646F6E6564
:10078000202D3E20534552564F5F4F4646000000F5
:100790000000240027002A002D0030000000000087
:1007A000250028002B002E0031000404040404035B
:1007B0000405020202020403020202020606060601
:1007C0000606040402020204040408020110408028
:1007D0004010204080408008020401804020100228
:1007E00001108010204040200000000200090F008E
:1007F00000030401000C00000000000000000000E5
:1008000000000000000000544553545F5354524F01
:100810004B4520646F6E650041424F525445442061
:10082000647572696E6720544553545F5354524F38
:100830004B450041424F5254454420647572696EE5
:100840006720544553545F5354524F4B4500414227
:100850004F5254454420647572696E672054455365
:10086000545F5354524F4B450041424F52544544FC
:1008700020647572696E6720544553545F53545217
:100880004F4B45005265616368696E672043454E72
:10089000544552005265616368696E672043454E56
:1008A0005445520041424F52544544206475726988
:1008B0006E6720544553545F5354524F4B4500418B
:1008C000424F5254454420647572696E6720544506
:1008D00053545F5354524F4B4500526561636869EE
:1008E0006E6720656666656374697665204D41585C
:1008F000005265616368696E67206566666563744A
:10090000697665204D41580041424F52544544207C
:10091000647572696E6720544553545F5354524F47
:100920004B450041424F5254454420647572696EF4
:100930006720544553545F5354524F4B4500526502
:10094000616368696E67206566666563746976656C
:10095000204D494E005265616368696E6720656687
:1009600066656374697665204D494E0054657374FD
:10097000696E672066756C6C207374726F6B65208E
:1009800077697468206D617267696E2E00537461B7
:10099000727420544553545F5354524F4B45004199
:1009A000424F5254454420647572696E6720544525
:1009B00053545F5354524F4B450052656665726500
:1009C0006E6365204D494E206265666F72652054E6
:1009D0004553545F5354524F4B4500474F5F544F5C
:1009E0005F43454E54455220646F6E650041424F4F
:1009F000525445440043616E6E6F742063656E749B
:100A000065723A204D4158206E6F742063616C69A5
:100A1000627261746564004641494C4544206475C6
:100A200072696E67204D494E206465746563746910
:100A30006F6E00506F736974696F6E20756E6B6EA8
:100A40006F776E202D3E20646574656374204D4978
:100A50004E206265666F72652063656E74657269AB
:100A60006E6700676F546F43656E746572536D6196
:100A7000727420737570706F72746564206F6E206D
:100A80004D352F4D36206F6E6C790064657465634B
:100A9000744D617820737570706F72746564206F27
:100AA0006E204D352F4D36206F6E6C7900434F4DC3
:100AB000504C4554455F43414C494220646F6E653C
:100AC0000043616C6962726174696F6E20646F6E5D
:100AD000652E20506C656173652072657374617258
:100AE000742074686520636F6E74726F6C20626F1F
:100AF00078206265666F7265207573696E67205332
:100B0000696D68756200536176696E672063616C18
:100B10006962726174696F6E20746F20454550522E
:100B20004F4D0041424F52544544004641494C45C7
:100B30004420647572696E67204D41582064657465
:100B4000656374696F6E00446574656374696E678C
:100B5000204D415820656E6473746F7000464149A2
:100B60004C454420647572696E67204D494E20647F
:100B70006574656374696F6E004465746563746958
:100B80006E67204D494E20656E6473746F7000531C
:100B90007461727420434F4D504C4554455F43413E
:100BA0004C49420066756C6C43616C696272617499
:100BB000696F6E536F667420737570706F727465B1
:100BC00064206F6E204D352F4D36206F6E6C79008E
:100BD000204D00204D434D494E3D302E39002048D8
:100BE0005350533D0020534552564F3D00535441FE
:100BF0005455532046573D322E3020424F583D0029
:100C00004F4B5F44495341424C4544004F4B5F4575
:100C10004E41424C4544004D3620686F6D696E6709
:100C2000206661696C65643A204D494E20656E64AA
:100C300073746F70206E6F74207265616368656491
:100C40002028636865636B20776972696E672F651A
:100C50006E6473746F702F64726976657220736549
:100C60007474696E677329004D36206D617267690F
:100C70006E206170706C6965643A20004D362068A2
:100C80006F6D6564004D3520686F6D696E67206615
:100C900061696C65643A204D494E20656E647374D9
:100CA0006F70206E6F7420726561636865642028C0
:100CB000636865636B20776972696E672F656E6420
:100CC00073746F702F6472697665722073657474C3
:100CD000696E677329004D35206D617267696E20FA
:100CE0006170706C6965643A20004D3520686F6DE5
:100CF0006564004D3620686F6D696E67207374619E
:100D00007274004D36206D617267696E206170707B
:100D10006C6965643A20004D3620686F6D696E67B6
:100D200020736B69707065643A20616C72656164F0
:100D30007920686F6D6564004D3620686F6D696E4F
:100D40006720736B69707065643A206E6F742063FE
:100D50006F6E6E6563746564004D3520686F6D69F4
:100D60006E67207374617274004D35206D61726717
:100D7000696E206170706C6965643A20004D3520A1
:100D8000686F6D696E6720736B69707065643A2077
:100D9000616C726561647920686F6D6564004D35C2
:100DA00020686F6D696E6720736B69707065643A57
:100DB000206E6F7420636F6E6E65637465640043AC
:100DC000414C4942524154454400554E4B4E4F57B9
:100DD0004E5F434D4400554E4B4E4F574E5F41437F
:100DE00054494F4E004F4E4C595F4D355F4D3600C4
:100DF00043454E5445525F4641494C454400004DE1
:100E0000004F4E4C595F4D355F4D360043414C49C4
:100E1000425F4641494C454400004D004F4E4C59FD
:100E20005F4D355F4D360043414C49425F46414975
:100E30004C454400004D004F4E4C595F4D355F4DC1
:100E400036004241445F56414C5545004241445FA3
:100E50004D4F544F52004241445F41524753004E60
:100E60004F545F52454143484544004F4E4C595FF3
:100E70004D355F4D36004E4F545F52454143484516
:100E800044004F4E4C595F4D355F4D360043414C49
:100E900049425F4641494C4544004F4E4C595F4DD5
:100EA000355F4D36004D36004D35004241445F4DB3
:100EB0004F544F52004241445F4152475300554EF8
:100EC0004B4E4F574E5F4B45590004000C00140029
:100ED0001C0024002C004D415247494E5F4F4E4CA0
:100EE000595F4D355F4D36000000080010001800B6
:100EF000200028003000340038003C00400044004E
:100F00004D4F544F525F524551554952454400424E
:100F100041445F4D4F544F52004241445F56414C53
:100F20005545004241445F41524753004F4B5F4D8E
:100F3000435F444953434F4E4E454354454400425A
:100F40004F585F444F574E0053485F444953414206
:100F50004C4544005348434F4E4E4543544544008E
:100F60004F4B5F4D435F44495341424C4544004F12
:100F70004B5F4D435F434F4E4E4543544544003015
:100F80000031004241445F4D4F544F5200424144B2
:100F90005F4D4F544F52003A20000020E2809420D1
:100FA0004D00002F00005B43414C5D205374657081
:100FB0002000902F11241FBECFEFDAE0DEBFCDBF9F
:100FC00012E0A0E0B1E0E4E8F0E602C005900D9286
:100FD000A83CB107D9F723E0A8ECB2E001C01D920C
:100FE000A93EB207E1F717E0CAEDD7E004C02197A8
:100FF000FE010E941B30C93DD107C9F70E94F92AA2
:101000000C9440300C940000000000000000000030
:10101000FC0180919803882311F13FB7F89482E096
:101020008093E9002091F200822F90E018161906B3
:1010300014F481E090E0882339F0289844E6409346
:1010400097034091F1004083222339F02091F20070
:10105000211103C02BE62093E8003FBF08958FEFD6
:101060009FEF089583E08093E9008091F200882348
:1010700019F08AE38093E80008950C9432082FB7A2
:10108000F89483E08093E9009091E800892F8072C2
:1010900095FF04C09091F20080E4891B2FBF089552
:1010A000282F30E0F901E851F84F9491F901E75306
:1010B000F84F84912655384FF9012491222309F4E1
:1010C00030C09923E9F091509F30D0F4E92FF0E03F
:1010D000E459F74F0C941B309A089E087B0892083D
:1010E0009608800880088008A108A708AB08AF0808
:1010F000B5088008B908909180009F779093800090
:10110000E22FF0E0EE0FFF1FE456F84FA591B491E7
:101110009FB7F894EC91611132C080958E238C9327
:101120009FBF0895909180009F7DE8CF90918000AF
:10113000977FE4CF94B59F7794BDE2CF94B59F7D20
:10114000FBCF909190009F7790939000D9CF909192
:1011500090009F7DF9CF90919000977FF5CF90916F
:10116000C0009F779093C000CBCF9091C0009F7D2F
:10117000F9CF9091C200977F9093C200C1CF8E2B80
:10118000CECFCF93DF9390E0FC01E753F84F24914B
:101190008655984FFC0184918823D1F090E0880F08
:1011A000991FFC01E257F84FA591B491FC01E45658
:1011B000F84FC591D491623071F49FB7F8943C9187
:1011C000822F809583238C93E8812E2B28839FBFC9
:1011D000DF91CF9108958FB7F894EC912E2B2C933B
:1011E0008FBFF6CF3FB7F89480911A0390911B03FD
:1011F000A0911C03B0911D0326B5A89B05C02F3FED
:1012000019F00196A11DB11D3FBFBA2FA92F982F2C
:101210008827BC01CD01620F711D811D911D42E027
:10122000660F771F881F991F4A95D1F708958F92EF
:101230009F92AF92BF92CF92DF92EF92FF924B01BB
:101240005C010E94F2086B017C010E94F2086C199B
:101250007D098E099F09683E734081059105A8F3B9
:1012600021E0821A9108A108B10888EEC80E83E037
:10127000D81EE11CF11C81149104A104B10429F7CA
:10128000FF90EF90DF90CF90BF90AF909F908F90A6
:1012900008952FB7F8946091160370911703809109
:1012A0001803909119032FBF08954091EE025091B9
:1012B000EF022091EC023091ED0242175307B4F493
:1012C0009091E8009570E1F39091E80092FD19C0CB
:1012D0008093F1008091EE029091EF0201968F735E
:1012E0009927892B19F48EEF8093E8008091EE0204
:1012F0009091EF0201969093EF028093EE0281E0CD
:10130000089580E00895EF92FF920F931F93CF937B
:10131000DF93F82E192FE62E042F81E0860F880F19
:101320000E94550983E00E945509CF2DD12FEC0E64
:10133000FD2EF11CCE15DF05B9F007FF13C0FE012D
:1013400084910E945509182F80E00E94550981233D
:1013500021968111EFCFDF91CF911F910F91FF90D7
:10136000EF9008958881EDCF81E0F5CFDF92EF9285
:10137000FF920F931F93CF93DF93D82E8A01EB0137
:101380007B01E40EF51ECE15DF0559F0D7FE12C025
:10139000FE0184910E94550921968111F4CF0FEF2F
:1013A0001FEFC801DF91CF911F910F91FF90EF9038
:1013B000DF9008958881EECF615030F02091F100E8
:1013C000FC0120830196F8CF289884E68093970348
:1013D00008958091E40281110DC082E08093E002C3
:1013E00084E08093E1021092E3021092E20281E035
:1013F0008093E40280EE92E008950F931F93CF93C1
:10140000DF931F92CDB7DEB782E0898342E450E0DC
:101410006FE276E080E80E94B6090E94E909DC01EB
:1014200012960D911C910115110589F0D801ED91CD
:10143000FC910280F381E02DBE016F5F7F4FC801F8
:10144000099597FD04C0F80100851185ECCF8981CD
:101450000F90DF91CF911F910F9108958F929F92DE
:10146000AF92BF92CF92DF92EF92FF920F931F93B2
:10147000CF93DF936C017B018A0180911401882353
:1014800009F45CC080919803882309F457C08091C7
:10149000F20280FF05C08091E00082608093E0004E
:1014A000E801B12C8AEFA82E93E0892E2AE3922E30
:1014B000209711F4BB20D9F10E943F0881110AC086
:1014C000AA94AA20D9F161E070E080E090E00E9447
:1014D0001709EECF8C171D0611F00CF08C2F9FB75B
:1014E000F8948092E9002091E80025FD02C09FBF9A
:1014F000DFCF282F30E0C21BD30BF701815020F043
:1015000041914093F100FACFE20EF31EBB2021F08F
:101510009092E800B12CEBCF8091E80085FDE7CFF9
:101520009092E800BB24B394209709F3F3CF5D9821
:1015300084E68093F102101611063CF081E090E001
:10154000F6019383828310E000E0C801DF91CF9120
:101550001F910F91FF90EF90DF90CF90BF90AF90D1
:101560009F908F900895CF93DF931F92CDB7DEB7F2
:101570006983DC01ED91FC910280F381E02D41E073
:1015800050E0BE016F5F7F4F09950F90DF91CF91C3
:1015900008950F931F93CF93DF938C01D0E0C0E0A9
:1015A000F801EC0FFD1F6491662341F089E993E097
:1015B0000E94B30A892B11F02196F2CFCE01DF9160
:1015C000CF911F910F9108950E943F0890E00895D8
:1015D000CF93DF931F92CDB7DEB7FC01848595854D
:1015E00097FD08C02FEF3FEF358724870F90DF91DD
:1015F000CF910895CE0101960E940808019719F431
:10160000898190E0F3CF8FEF9FEFF0CF0F931F937F
:10161000CF93DF931F92CDB7DEB78C01FC01848599
:10162000958597FF0BC0CE0101960E94080801978F
:1016300071F4898190E0F80195878487F8018485A9
:1016400095850F90DF91CF911F910F9108958FEFA6
:101650009FEFF1CFFC018485958597FD0BC09FB767
:10166000F89482E08093E9008091F2009FBF90E0BF
:10167000019608959FB7F89482E08093E9008091E5
:10168000F2009FBF90E0089580919303811102C002
:101690008091920380930603089580911E0388230E
:1016A00009F44CC140911F03442309F447C19091B0
:1016B0000801992309F437C16091660370916703AB
:1016C00020915803309159036217730709F430C110
:1016D0008FEF6217730708F481E02091010130E079
:1016E000281731F01816D4F55C9880930101342F37
:1016F000680F711D87FD7A95709367036093660389
:1017000080E1923028F16091680370916903E09163
:101710005A03F0915B036E177F0721F12FEF6E17CD
:101720007F0708F421E050910201521731F01216A0
:10173000BCF4469820930201342F8062620F711D21
:1017400027FD7A957093690360936803923069F47A
:1017500090E020E0332309F4B1C0AAC05C9AC5CF61
:10176000469AE8CF923009F4D2C060916A03709132
:101770006B03E0915C03F0915D036E177F0709F442
:10178000C3C02FEF6E177F0708F421E050910301CB
:10179000521739F012160CF0B5C05F982093030170
:1017A000342F8064620F711D27FD7A9570936B034F
:1017B00060936A03933061F260916C0370916D03E2
:1017C000E0915E03F0915F036E177F0709F4A3C0F9
:1017D0002FEF6E177F0708F421E050910401521794
:1017E00039F012160CF095C0769820930401342F2E
:1017F0008068620F711D27FD7A9570936D03609369
:101800006C03943009F4A4CF60916E0370916F0360
:10181000E0916003F091610320E06E177F07C9F04B
:101820002FEF6E177F0708F421E050910501521742
:1018300039F012160CF073C0589820930501342F1C
:10184000620F711D27FD7A9570936F0360936E038D
:1018500020E4953009F46AC06091700370917103BF
:10186000E0916203F09163036E177F0709F45EC095
:101870009FEF6E177F0708F491E05091060159170A
:1018800039F019160CF04DC08C9890930601342F46
:10189000690F711D97FD7A957093710360937003C2
:1018A00090E2492F482B422B09F448C0332321F002
:1018B000E3E0F0E03197F1F7882319F035B1382BE8
:1018C00035B9222319F03BB1322B3BB9992319F0DA
:1018D00031B3392B31BBE3E0F0E03197F1F78823E6
:1018E00021F035B18095832385B9222321F08BB176
:1018F000209528232BB9992309F181B3909598233A
:1019000091BB08955F9A4ACF933009F055CF20E0FC
:101910000DC0769A6ACF943009F076CFF8CF589AF6
:101920008CCF8C9AB2CF20E080E030E090E0B9CF4D
:1019300030E080E0923008F0E6CE0895089580917E
:101940002E0181110CC080912D0181110AC080915E
:101950002C01811108C084E080930801089587E07C
:10196000FBCF86E0F9CF85E0F7CFEEEDF2E0108215
:101970001182E0E2F3E014821582E4E7F3E01482DE
:101980001582E6E6F3E08FEF9FEF918780879387DC
:101990008287E8E5F3E09187808793878287EAED85
:1019A000F2E01182108213821282E4EDF2E01182E1
:1019B000108213821282E8EDF2E010821182089503
:1019C0003F924F925F926F927F928F929F92AF92CF
:1019D000BF92CF92DF92EF92FF920F931F93CF931C
:1019E000DF9300D000D000D0CDB7DEB7182F362E51
:1019F00029013A0125E0811101C024E030E06901AC
:101A0000CC0CDD1CDE82CD82F601E85AFC4F208131
:101A10003181F601EA59FC4F8081918128173907FD
:101A2000C9F080E026960FB6F894DEBF0FBECDBF9A
:101A3000DF91CF911F910F91FF90EF90DF90CF90AA
:101A4000BF90AF909F908F907F906F905F904F90DE
:101A50003F9008950E94F2084B015C01411451042B
:101A60006104710441F44090160150901701609098
:101A7000180170901901412F50E08A01000F111FC9
:101A8000000F111FF801E453FD4F80819181A28165
:101A9000B38175016401C81AD90AEA0AFB0AC414A1
:101AA000D504E604F70408F4BCCFED81FE81EA59C1
:101AB000FC4FC080D180E09115016E2E712C9301F6
:101AC000A32D032C000CBB0B0E942130DC01CB01A9
:101AD0008C0D9D1DA11DB11D009721E0A207B10530
:101AE00024F08FEF9FEFA0E0B0E0B7FF03C080E0ED
:101AF00090E0DC016D817E81685A7C4FFB0191830F
:101B00008083D801A453BD4F8D929D92AD92BC921B
:101B10001397FFEF3F1213C0440F551FDA01A6526F
:101B2000BD4F8D919C911197930120953095281769
:101B3000390728F0F301E80FF91FED93FC9381E0DA
:101B400071CF000000000000000000000000000055
:101B50000F931F93CF93DF938B01EA0160E087E13E
:101B60000E94500861E087E10E94C108F894219723
:101B700008F424C0F8010190008007D0029005D03D
:101B800001900190019001D017C008D007D006D075
:101B900005D004D003D002D001D00895889A001C4B
:101BA0000000000008F0889800000000000000001D
:101BB000000008F4889808958F01D9CF78948BE3BA
:101BC00091E00197F1F7DF91CF911F910F91089567
:101BD000CF92DF92EF92FF9220E639E040E050E0B2
:101BE0000E94C62F6B017C01AFEFB0E0AC019B01FE
:101BF0000E94BB2F20EBC21624E0D206E104F104C0
:101C0000C0F420EB34E040E050E00E94C62F109278
:101C10009403209395031092960341E050E064E909
:101C200073E08FE291E0FF90EF90DF90CF900C9403
:101C3000A80D60557B4A8440910920EB34E040E0D8
:101C400050E00E94C62F8FEF90E0BC01621B730B27
:101C50009B01DDCFCF92DF92EF92FF920F931F9304
:101C60000E9449090091C8021091C9022091CA023C
:101C70003091CB026B017C01C01AD10AE20AF30A4F
:101C800097018601043111052105310580F060932B
:101C9000C8027093C9028093CA029093CB021F912D
:101CA0000F91FF90EF90DF90CF900C94E80D1F9173
:101CB0000F91FF90EF90DF90CF900895853031F431
:101CC00086B18095881F8827881F0895863039F44B
:101CD0008FB186FB882780F991E08927089580E0FD
:101CE0000895DF92EF92FF920F931F93CF93DF93AC
:101CF000D82E042F122F6230710540F0CB01880FCF
:101D0000991F880F991F05970197F1F7D0E0C0E060
:101D100083ECE82EF12C8D2D0E945E0E8111CF5F99
:101D2000C7010197F1F7DF5F0D13F5CF81E0C11710
:101D300008F480E0DF91CF911F910F91FF90EF9019
:101D4000DF9008954091160150911701609118019C
:101D500070911901493C51056105710530F422E08B
:101D600042E070E060E00C94710E453F5140610527
:101D7000710518F422E043E0F4CF23E045E0F1CF11
:101D80000895CF93DF93EC0188819981FC0100973E
:101D900021F4DF91CF910895FA01CF012081AF01A5
:101DA0004F5F5F4F2032C1F32930B1F3211105C0DD
:101DB000F983E88390E080E0ECCFDF0121912223DA
:101DC00031F0203211F02930C1F71C92DF01B983C4
:101DD000A883DFCF1F93CF93DF93EB01FC01DF01DB
:101DE0008D918032F1F08930E1F080E020E030E048
:101DF000A901119190ED910F9A30A8F4AAE0B0E0FA
:101E00000E94BB2F212F110F330B20533109032EBA
:101E1000000C440B550B260F371F481F591F81E03C
:101E2000E8CFFD01DCCF882321F0288339834A8362
:101E30005B83DF91CF911F9108950F931F93CF93F1
:101E4000DF9300D000D0CDB7DEB7009709F18B014A
:101E500019821A821B821C82BE016F5F7F4F0E9413
:101E6000EA0E882361F049815A816B817C814F3F62
:101E700051056105710509F058F4F80140830F9090
:101E80000F900F900F90DF91CF911F910F910895B8
:101E900080E0F5CFDC01FB012D919191222331F0FF
:101EA000992311F02917C1F380E003C081E091115B
:101EB000FBCF0895FC0101900020E9F73197AF01B5
:101EC000481B590BBC0189E993E00C942E0A8F92B0
:101ED0009F92AF92BF920F931F93CF93DF93CDB793
:101EE000DEB7A1970FB6F894DEBF0FBECDBF19A223
:101EF000423008F44AE08E010F5D1F4F842E912C72
:101F0000B12CA12CA50194010E94C62FE62FB90186
:101F1000CA01EA30F4F4E05DD801EE938D01232B81
:101F2000242B252B79F790E080E0109719F0CD0154
:101F30000E945A0FA1960FB6F894DEBF0FBECDBF18
:101F4000DF91CF911F910F91BF90AF909F908F9095
:101F50000895E95CE1CFCF93DF930E945A0FEC0123
:101F60008EE791E00E945A0F8C0F9D1FDF91CF9159
:101F70000895CF93DF930E94C90AEC018EE791E0A8
:101F80000E945A0F8C0F9D1FDF91CF9108950C94E2
:101F9000B90FAF92BF92CF92DF92EF92FF920F9361
:101FA0001F93CF93DF93CDB7DEB762970FB6F89448
:101FB000DEBF0FBECDBF5C01CB019E01235F3F4F53
:101FC0007901890120E03AE0C32ED12C0097A9F4D1
:101FD00080E38D8721E0822F90E09701280F391F41
:101FE000DE0111968D01E216F30699F0F901429196
:101FF0009F014D93F8CF253071F32F5FB6010E94FA
:102000000730805DD8018D938D01CB01009799F742
:10201000E2CF800F911FDC011C92C5010E94C70F07
:10202000C8010E94AB0F62960FB6F894DEBF0FBED8
:10203000CDBFDF91CF911F910F91FF90EF90DF9077
:10204000CF90BF90AF900895CF93DF93EC018DE0D8
:1020500094E00E94C90ACE01DF91CF910C94B90F90
:10206000BC0190E080E04AE00C94670FCF93DF93CF
:102070000E943010EC018EE791E00E945A0F8C0F05
:102080009D1FDF91CF910895FF920F931F93CF93E0
:10209000DF93EC018B01FB01F0800E94A52FF81665
:1020A00021F06F2DCE010E94AD2FF801F180219615
:1020B000CE010E94A52FF81621F06F2DCE010E94AF
:1020C000AD2FC801DF91CF911F910F91FF9008951F
:1020D0000F931F93CF93DF9300D0CDB7DEB78C0162
:1020E0000E94A52F8983C80101960E94A52F8A838B
:1020F00089819A810F900F90DF91CF911F910F915D
:102100000895CF93DF9380E490E00E94681021E06F
:10211000892B09F420E020932C0184E490E00E94B4
:10212000681021E0892B09F420E020932D0180E242
:1021300091E00E946810EC01C2978F3D964210F02A
:10214000CCE2D1E0BE017695679590E080E0605CDE
:102150007D4B804F9F4F9E0150E040E00E94C62F74
:10216000C83283E2D80708F5C03787E1D807F8F40A
:10217000CC3A8DE0D807E8F4C83087E0D807D8F427
:10218000C03283E0D807C8F4CC32D140C0F082E03E
:1021900020931601309317014093180150931901B1
:1021A00080931501DF91CF91089580E1F1CF8CE00C
:1021B000EFCF88E0EDCF85E0EBCF83E0E9CF81E0A2
:1021C000E7CFCF92DF92EF92FF920F931F93CF93BF
:1021D000DF93CDB7DEB7A6970FB6F894DEBF0FBE7C
:1021E000CDBFE82EF62E10E000E0C8010E94A52F1A
:1021F0008F3F21F06FEFC8010E94AD2F0F5F1F4F7F
:10220000011584E0180789F7EAE1F1E04CE753E0B3
:102210002AE833E084E7C82E83E0D82E62E271E03A
:102220000FEF1FEF81E001931193DA011D921D92D0
:10223000AD01D9018D939D01D6011D926D016E17DF
:102240007F0789F7109223011092220110928503D3
:102250001092840310928E0310927803109225013D
:1022600010922401109287031092860310928F031C
:10227000109279031092270110922601109289037F
:10228000109288031092900310927A038093280191
:102290008093290180932A0180932B01E0922C01E5
:1022A000F0922D0180911A0190911B0198878F83E4
:1022B000BE01695F7F4F90E080E00E9444108091F2
:1022C0001C0190911D019A878987BE01675F7F4F2E
:1022D00088E090E00E94441080911E0190911F01BF
:1022E0009C878B87BE01655F7F4F80E190E00E94F5
:1022F000441080912001909121019E878D87BE011D
:10230000635F7F4F88E190E00E94441080917C03DE
:1023100090917D03988B8F87BE01615F7F4F84E032
:1023200090E00E94441080917E0390917F039A8BED
:10233000898BBE016F5E7F4F8CE090E00E9444105D
:1023400080918003909181039C8B8B8BBE016D5E8D
:102350007F4F84E190E00E9444108091820390912D
:1023600083039E8B8D8BBE016B5E7F4F8CE190E073
:102370000E944410188E1F8ABE01695E7F4F80E262
:1023800090E00E9444101A8E198EBE01675E7F4F46
:1023900084E290E00E9444101C8E1B8EBE01655E9C
:1023A0007F4F88E290E00E9444101E8E1D8EBE0179
:1023B000635E7F4F8CE290E00E94441001E010E0E9
:1023C00018A30F8FBE01615E7F4F80E390E00E94F3
:1023D00044101AA309A3BE016F5D7F4F84E390E010
:1023E0000E9444101CA30BA3BE016D5D7F4F88E3C8
:1023F00090E00E9444101EA30DA3BE016B5D7F4FB1
:102400008CE390E00E9444108E2D90E09E838D839B
:10241000BE016B5F7F4F80E490E00E9444106F2DFF
:1024200070E07A836983BE016F5F7F4F84E490E040
:102430000E94441082E090E09C838B83BE016D5F1C
:102440007F4F88E490E00E9444108CE494E00E9466
:10245000C70FA6960FB6F894DEBF0FBECDBFDF91B3
:10246000CF911F910F91FF90EF90DF90CF90089543
:10247000CF93DF93EC0161E871E00E942830892B53
:1024800089F481E0809327030E9449096093C80280
:102490007093C9028093CA029093CB02DF91CF91CF
:1024A0000C94E80D109227036CE871E0CE010E94B5
:1024B0002830892B89F48FEF809394031092950331
:1024C0001092960341E050E064E973E08FE291E0FE
:1024D000DF91CF910C94A80D60E971E0CE010E94CC
:1024E0002830892B31F4109294038FEF8093950359
:1024F000E7CF66E971E0CE010E942830892B29F4EC
:102500008FEF8093940380E5F1CF6DE971E0CE0108
:102510000E942830892B41F4109294031092950365
:102520008FEF80939603CECF62EA71E0CE010E94D6
:102530002830892B39F480EA809394031092950314
:1025400088ECEFCF8FEF8093940380939503E9CFCE
:1025500080911F0381110BC080910603882321F015
:102560008DE991E00C94381280E991E0FBCF089559
:1025700061E082E10E94500810921F0380910603DF
:10258000811104C088E196E00E94C70F0E94440BAD
:102590000C94A812CF93DF93EC010E94B50C10921B
:1025A0007B030E94B8120E94440B0E94A812CE0125
:1025B000DF91CF910C94B90F60E082E10E94500846
:1025C00081E080931F0380910603811104C082E0A3
:1025D00096E00E94C70F8CE891E00C9438122F927D
:1025E0003F924F925F926F927F928F929F92AF92A3
:1025F000BF92CF92DF92EF92FF920F931F93CF93F0
:10260000DF93DEED8D2ED2E09D2E10E000E083E022
:10261000482E512C612C712CA02ED4018D914D018E
:1026200081508430C8F480910603811102C00E9459
:10263000B812B5E03B2EC6E0BC2EA11004C0F4E0F9
:102640003F2EA5E0BA2EF401D2917F01D23009F4D9
:1026500060C0D8F4D13041F10130110599F4DF9117
:10266000CF911F910F91FF90EF90DF90CF90BF908F
:10267000AF909F908F907F906F905F904F903F9022
:102680002F90089501E010E0C7CFD33009F46AC05D
:10269000D43011F78B2D0E94A20E882309F4F6C0C6
:1026A00020E030E0A9015CC0F801EE0FFF1FE65208
:1026B000FD4F118210828B2D0E94A20E232D30E03F
:1026C000220F331FF801E852FD4FD901AA59BC4F20
:1026D000882379F040E050E811965C934E93E9012D
:1026E000C85ADC4F598348831082E2E0D701EC934B
:1026F000B3CF8FEF9FEF11969C938E93285A3C4F48
:10270000D90111969C938E93D08323E0F701208307
:10271000A3CF8B2D0E94A20E81110EC081E0F80183
:10272000E852FD4F8083F801EE0FFF1FE652FD4F88
:1027300011821082E3E0DACF209116013091170167
:1027400040911801509119012D32F1E03F074105E8
:10275000510530F0CA01B901A30192010E94C62FB0
:1027600061E090C0C32CD12CF801E852FD4F80816C
:102770001801220C331CE601CC0FDD1F8823A1F0C9
:102780008B2D0E94A20E882379F0C458DC4F8881DB
:102790009981009711F484E190E0F101EC52FD4F32
:1027A0009183808324E0B2CF910126523D4F1901DD
:1027B000D9018D919C910196C1F5FE01EA59FC4F1A
:1027C00080819181C85ADC4F99838883F601E05E4D
:1027D000FC4F1082E601CC58DC4F1882E6E0D701AE
:1027E000EC930E94A81287EF95E00E94C90A8B2DF6
:1027F00090E00E9430108EEC95E00E94C90AD10151
:102800008D919C910E94301085EC95E00E94C90A40
:102810008FEF9FEF0E94301083EC95E00E94B90F7C
:102820008DE495E00E94C70F17CFFE01EA59FC4FD7
:1028300080819181892B11F580819181C85ADC4F6B
:1028400099838883F601E05EFC4F1082E601CC5844
:10285000DC4F188226E0F70120830E94A81282E450
:1028600095E00E94C90A8B2D90E00E94301085E00F
:1028700095E00E94B90F83E894E0D4CF20E030E0E7
:10288000A9016FEF8A2D0E94E00CE6CEC801880FE7
:10289000991FAC014C525D4F6A01DA01CD91DC9178
:1028A0002097B9F020E030E0A90161E08A2D0E9474
:1028B000E00C882309F4D0CE8091150190E0C81770
:1028C000D90708F4CE01C81BD90BF601D183C08308
:1028D000C3CEC32DD0E0CE01880F991F9C01285A8A
:1028E0003C4F1901D9012D913C91FC01EA59FC4F53
:1028F0006F01808191812817390709F0ADCE8B2DAA
:102900000E94A20E8111CCCED60111961C921E926D
:10291000F10111821082FE01EC58FC4F81E08083AE
:10292000C05EDC4F1882D7011C928CE891E00E94B7
:10293000381292CE10927B03882309F45DC09091E7
:102940007803911159C0611115C020E030E830932F
:102950006F0320936E0330937103209370033093C1
:10296000610320936003309363032093620391E03B
:1029700019C060E02091790380E090E890936F03A4
:1029800080936E039093710380937003909361031F
:10299000809360039093630380936203962F862F46
:1029A00061E062279093DE026093DF021092DB0207
:1029B0001092DA021092DD021092DC021092D5021F
:1029C0001092D4021092D7021092D6021092D8021E
:1029D0001092D902882339F181E080932403109268
:1029E0007803662329F081E0809325031092790310
:1029F00086E991E00C9438126111BBCF80E090E839
:102A000090936F0380936E03909371038093700390
:102A100090936103809360039093630380936203B8
:102A200080E090E0BFCF6111DECF08952F923F92FA
:102A30004F925F926F927F928F929F92AF92BF92CE
:102A4000CF92DF92EF92FF920F931F93CF93DF937A
:102A5000CDB7DEB7C755D1090FB6F894DEBF0FBEAC
:102A6000CDBF4FE250E068E273E0CE0101960E94D4
:102A7000313018AAFE0131962E2F9F2FDF018D9144
:102A8000803289F0893079F0882309F447C0819138
:102A9000882359F03FE9380F3A3108F48052DF01BA
:102AA00011978C93F4CFFD01E7CF2DAF9EAFCE01F0
:102AB000CD960E94C10E8C01009781F1DC018C91B2
:102AC000853409F058C011968C91882329F090ED37
:102AD000980F9A3008F04FC019AA811139C0CE0161
:102AE000CD960E94C10E009729F48DE89FE00E94C8
:102AF000241014C0BE016F5C7F4F0E941D0F8823FD
:102B0000A1F389A98150873080F789A90E945E0EC0
:102B1000882371F181E89FE00E94B90FC95ADF4F05
:102B20000FB6F894DEBF0FBECDBFDF91CF911F91DE
:102B30000F91FF90EF90DF90CF90BF90AF909F905C
:102B40008F907F906F905F904F903F902F9008955F
:102B5000BE016F5C7F4FC80101960E941D0F882344
:102B600021F089A98150873080F283E89FE0BFCFB0
:102B70008FE79FE0D1CF69EA71E0C8010E944A0F58
:102B8000811121C062EB71E0C8010E944A0F8111DE
:102B90001AC068EB71E0C8010E944A0F81111DC084
:102BA00063EC71E0C8010E944A0F882301F181E0C3
:102BB00080939203809391030E94440B0E94A81279
:102BC00084E59FE0A9CF81E0809393030E94440BAA
:102BD0000E94A8128FE69FE09FCF81E0809393032D
:102BE0000E94440B80E69FE00E94CA1297CF60EDDE
:102BF00071E0C8010E944A0F882309F4BFC081E038
:102C00008093920382E0809391030E94440B0E9480
:102C1000440B90E080E09C01220F331FF901EA5938
:102C2000FC4F40815181285A3C4FF9015183408328
:102C300001968730910579F70E94DC1280912C0172
:102C40000091780391E00927811101C000E0109103
:102C50002D01112321F01091790391E019278111A1
:102C600005C08EE99DE00E94B90F12C080917803E3
:102C70008823B9F08DE79DE00E94B90F89E69DE0B9
:102C80000E94C90A80918403909185030E943610A6
:102C900080912D01811108C088E39DE00E94B90F49
:102CA00015C089E59DE0DFCF80917903882371F11C
:102CB00087E19DE00E94B90F83E09DE00E94C90A70
:102CC00080918603909187030E943610011103C002
:102CD000112309F446C0612F802F0E949A1401111C
:102CE00002C01123F1F180912403811104C080916D
:102CF0002503882371F00E94EF120E944D0B8091F2
:102D00002703882381F30E942A0EEDCF83EF9CE0F6
:102D1000C5CF002391F080917803882329F18AEEB2
:102D20009CE00E94B90F86ED9CE00E94C90A809148
:102D30008403909185030E943610112391F08091B5
:102D400079038823B1F08CE79CE00E94B90F88E6F4
:102D50009CE00E94C90A80918603909187030E949B
:102D600036108FEB9DE0D8CE85E89CE00E94B90F2D
:102D7000E4CF87E19CE00E94B90FF3CF69ED71E0E9
:102D8000C8010E944A0F882349F0109292031092C2
:102D900091030E94440B88E49FE026CF64EE71E02B
:102DA000C8010E944A0F882359F010929203109292
:102DB00091030E94440B0E94A8128FE39FE0ACCEC7
:102DC0006CEE71E0C8010E944A0F811119C064EFD6
:102DD00071E0C8010E944A0F811112C06FEF71E0CB
:102DE000C8010E944A0F811116C06BEB71E0C80147
:102DF0000E944A0F882309F448C080E09CE0F4CE8A
:102E000010929303109291030E94440B0E94A81207
:102E10008CE29FE081CE0E94440B90E080E09C0118
:102E2000220F331FF901EA59FC4F40815181285A82
:102E30003C4FD90111965C934E93019687309105D2
:102E400071F70E94DC1280912C01882331F080916F
:102E50007803811118C080918E0390912D019923E0
:102E600011F40C94531F9091790391110C94531FFA
:102E700060918F03662311F40C94531F0E949A14DF
:102E80008CE09CE049CE80E0E8CF62E672E0C801C9
:102E90000E944A0F882309F49EC08DEE9BE00E9499
:102EA000C90A4AE062E070E080E090E00E94670FAB
:102EB00085EE9BE00E94C90A80911F03882309F4D4
:102EC00088C081E30E9418248EED9BE00E94C90A0D
:102ED000209116013091170140911801509119016C
:102EE00090E080E02115310541055105B9F0CA0196
:102EF000B9019695879577956795605C7D4B804F76
:102F00009F4F0E94C62F21153105B1E04B07510597
:102F100020F02FEF3FEF40E050E0C9010E94301059
:102F200083ED9BE00E94C90AA8E2AA2EA1E0BA2E76
:102F3000BAE8CB2EB3E0DB2E1AE1E12E11E0F12E40
:102F40000CE713E0412C512C3201439480ED9BE0BF
:102F50000E94C90A4AE0C301B2010E94670F8DE3D3
:102F60000E941824F50161915F0170E090E080E01B
:102F70004AE00E94670F8CE20E941824D6016D91EE
:102F80006D0170E090E080E04AE00E94670F8CE203
:102F90000E941824F701819191917F010E943010C5
:102FA0008CE20E941824D8018D919D918D010E9480
:102FB0003010BFEF4B1A5B0A6B0A7B0AE8E04E1633
:102FC00051046104710411F68EE791E00E945A0FDA
:102FD000A5CD80E377CF60E772E0C8010E944A0F79
:102FE000882309F459C1CE01CD960E94C10E7C01FF
:102FF000CE01CD960E94C10E6C01CE01CD960E94ED
:10300000C10E8C01E114F10419F0C114D10419F4BA
:1030100083E29FE06CCD19AA1AAA1BAA1CAABE01C2
:103020006F5C7F4FC6010E94EA0E811103C089E1E7
:103030009FE05DCD89A99AA9ABA9BCA90097A14041
:10304000B10540F08FEF9FEFA0E0B0E089AB9AAB05
:10305000ABABBCAB1FAE0115110579F0BE01615CD5
:103060007F4FC8010E941D0F882321F08FAD815032
:10307000873018F08FE09FE03ACD66E072E0C7013C
:103080000E944A0F882309F47FC00E9497250E945E
:10309000320865E070E080E090E00E941709C9A85E
:1030A000DAA8EBA8FCA83C2D2D2D9E2D8F2D41E1FB
:1030B000C41647E2D406E104F10420F030E127E22F
:1030C00090E080E0832E922EA92EB82E82E38816FF
:1030D0009104A104B10428F4F2E38F2E912CA12CC9
:1030E000B12CC501B4019695879577956795605C7D
:1030F0007D4B804F9F4FA50194010E94C62F80E118
:1031000098E2C91693E2D906E104F10448F58CE08F
:10311000A0E7CA16A7E1DA06E104F10408F588E0A1
:10312000BCEACB16BDE0DB06E104F104C8F485E09F
:10313000E8E0CE16E7E0DE06E104F10488F483E07F
:10314000F0E2CF16F3E0DF06E104F10448F48CE28C
:10315000C81681E0D806E104F10408F0ABC681E0AE
:1031600020931601309317014093180150931901D1
:10317000809315019CAE8BAEBE01655C7F4F80E2F3
:1031800091E00E944410CACC1FAD80E09FE0112363
:1031900009F4ADCC0FEF010F66EC71E0C7010E949E
:1031A0004A0F882319F121E089A99AA9ABA9BCA9E2
:1031B000892B8A2B8B2B09F420E0E02FF0E0DF0134
:1031C000A85DBE4F2C93EE0FFF1FEC50F14F859181
:1031D000949130E03AAF29AFBE01675C7F4F0E9407
:1031E00044100E949F0C0E94972598CC66E972E0DB
:1031F000C7010E944A0F882331F110E029A93AA99A
:10320000F801EE0FFF1FDF01A65EBE4F7D012D937B
:103210003C93E851F14F8591949138AF2FABBE01AB
:10322000695C7F4F0E9444108FAD0E94F625F80123
:10323000E657FC4F81E0D7012D913C91232B09F4F7
:1032400080E08083D0CF6FE072E0C7010E944A0F18
:103250008823F9F086ED9EE0153008F448CC29A9C2
:103260003AA9E02FF0E0EE0FFF1FDF01A458BC4F9A
:103270002D933C93E653F14F859194913EAB2DAB4A
:10328000BE016B5C7F4F0E9444108FAD0E94F625FB
:10329000AACF8EEB9EE02BCC66E172E0C8010E94C3
:1032A0004A0F882309F4FBC5CE01CD960E94C10EBA
:1032B0008C01CE01CD960E94C10E0115110519F4A5
:1032C00085EB9EE014CC1DAA009769F0BE016B5CF3
:1032D0007F4F0E941D0F882319F08DA9883018F0A8
:1032E0008BEA9EE004CC69E172E0C8010E944A0FBB
:1032F000882331F00E94B50C81E080937B0373CF6B
:1033000060E272E0C8010E944A0FF82E882381F122
:103310008DA9853011F081110BC085E00E94CA256E
:1033200088EA9EE00E94C70F85E00E94C728F82E19
:103330008DA9863011F081110DC086E00E94CA254A
:1033400085EA9EE00E94C70F86E00E94C72881118F
:1033500001C0F12C8DA9882331F08550823018F0FE
:103360008AE99EE0C4CBF1103ECF8DE89EE0BFCB52
:103370006BE272E0C8010E944A0F882379F08DA9A0
:103380009BEF980F923018F082E89EE0B0CB0E943D
:103390002E24811128CF86E79EE0A9CB69E372E055
:1033A000C8010E944A0F882379F08DA99BEF980FDE
:1033B000923018F08BE69EE09ACB0E942E24811169
:1033C00012CF8FE59EE093CB67E472E0C8010E94C4
:1033D0004A0F8823F9F00E94DC1280912C01882387
:1033E00031F080917803811113C080918E03909108
:1033F0002D01992309F460C59091790391115CC561
:1034000060918F03662309F457C50E949A14EBCE8E
:1034100080E0EDCF60E572E0C8010E944A0FA82E5F
:10342000882339F00E94B50C10927B030E94B812D9
:10343000DACE6AE572E0C8010E944A0F882309F4D7
:1034400086C0CE01CD960E94C10E8C01CE01CD96D4
:103450000E94C10E7C010115110511F0892B19F490
:1034600086E59EE044CB19AABE016F5C7F4FC80180
:103470000E941D0FB82E882309F466C009A90150C7
:10348000073008F061C0F7018081BFEFEB1AFB0A3B
:103490008032C9F38930B9F38B3231F1C12CD12C90
:1034A0007601C3948D3229F4CC24CA94DC2C7601A5
:1034B000319620E030E0A901119180ED810F8A3032
:1034C000C0F4AAE0B0E00E94BB2F212F110F330BF4
:1034D00020533109032E000C440B550B260F371FC8
:1034E000481F591FAB2CE8CFC12CD12C7601C394B7
:1034F000DFCFAA2031F1E02FF0E0EE0FFF1FDF0158
:10350000AA59BC4F0D911C91C701B6010E94F72F1B
:10351000DC01CB01800F911FA11DB11D009721E09F
:10352000A207B10524F08FEF9FEFA0E0B0E0B7FF56
:1035300003C080E090E0DC01E85AFC4F9183808377
:1035400052CE82E49EE0D3CA8CE49EE0D0CA6FE5FE
:1035500072E0C8010E944A0F8823E1F18DA98150D1
:10356000873008F0DBCACE01CD960E94C10E19AAA1
:103570001AAA1BAA1CAA009709F4D0CABE016F5C44
:103580007F4F0E94EA0E882309F4C8CA89A99AA924
:10359000ABA9BCA90097A140B10540F08FEF9FEF08
:1035A000A0E0B0E089AB9AABABABBCAB8DA98150CE
:1035B00090E0FC01E85DFE4F2081222309F4AECAB1
:1035C00029A93AA9880F991FFC01E85AFC4F3183B9
:1035D0002083A4CA66E672E0C8010E944A0F8823CD
:1035E00039F060912D0180912C010E94E110FBCDFA
:1035F00064E772E0C8010E944A0F81112DC06FE795
:1036000072E0C8010E944A0F811126C06EE872E084
:10361000C8010E944A0F8111A5C06AE972E0C80181
:103620000E944A0F8111E1C067EA72E0C8010E945E
:103630004A0F8111DAC06FEA72E0C8010E944A0F96
:103640008111D3C066EB72E0C8010E944A0F81115C
:10365000F9C186ED9DE04BCA8DA99BEF980F923082
:1036600018F087E39EE043CA0E94CA2585E39EE0E6
:103670000E94C70F6DA970E084E39EE00E94F724CA
:103680001DA98BEF810F823038F084EA9BE00E9405
:10369000C70F87E29EE02BCA10927B036FE87BE0A6
:1036A000812F0E947E250E9481100E949F0C49E775
:1036B0005BE0612F81E00E944E25812F0E94C72888
:1036C0006DE57BE0882399F066E970E080E090E0AA
:1036D0000E94170947E45BE0612F82E00E944E25BB
:1036E000812F0E943A26811106C06BE27BE0812F78
:1036F0000E947E25CECF80917B0363E27BE0811127
:10370000F6CF8FEF810F90E0DC01A657BC4F880FFA
:10371000991FFC01E65EFE4F81E020813181232B61
:1037200009F480E08C93E12FF0E0ED58FC4F81E04C
:10373000808346E05BE0612F83E00E944E25812F6D
:103740000E94F6250E94B81280E991E00E9438128A
:1037500081EC9AE00E94C70F6DEA7AE0812F0E9407
:103760007E2541CD8DA99BEF980F923018F08CE10A
:103770009EE0BDC90E94CA258AE19EE00E94C70F53
:103780006DA970E089E19EE00E94F7248DA99BEF6E
:10379000980F923038F08BE89AE00E94C70F8CE0C7
:1037A0009EE0A5C90E943A268823C9F38DA92FEF70
:1037B000280F30E0A901440F551FFA01EA59FC4FC8
:1037C00060817181465E5E4FDA016D937C93F901F1
:1037D000E657FC4F91E0672B09F490E090832C585A
:1037E0003C4F91E0F901908351CD8DA99BEF980F4B
:1037F000923018F081E09EE07AC90E94CA258FEFCE
:103800009DE00E94C70F6DA970E08EEF9DE00E94C1
:10381000F724DDA88BEF8D0D823028F083E69AE047
:103820000E94C70F20C010927B0322242A942D0CE3
:10383000312CC1018C589C4F22969FAF8EAF22979E
:10384000DC018C91811112C063E37AE08D2D0E941E
:103850007E258D2D0E94C728811108C067E17AE07E
:103860008D2D0E947E2580EF9DE041C9220C331CE6
:10387000F101E65EFE4F80819181892B19F485EF7D
:1038800099E0CECF8D2D0E94DA24F101E458FC4F4F
:1038900000811181080F191F169507958090160158
:1038A00090901701A0901801B0901901B8E78B16FD
:1038B0009104A104B10428F428E7822E912CA12CB4
:1038C000B12CF09015010E94F2082B013C010E94DE
:1038D000DC1286E991E00E943812F101EA59FC4FAE
:1038E0002696FFAFEEAF26978F2D90E0B0E0A0E0D8
:1038F00064968CAF9DAFAEAFBFAF6497C801B0E028
:10390000A0E02C968CAF9DAFAEAFBFAF2C97D1018E
:10391000A85ABC4F2E96BFAFAEAF2E97EF2DF0E05A
:103920006096FFAFEEAF60972696AEADBFAD26971F
:103930008D919C910817190709F46FC00E945524B6
:10394000882371F06DEE79E08D2D0E947E250E9416
:10395000A7250E94B81286E991E00E94381283CF11
:103960000E94F208641975098609970997FD23C01A
:10397000480C591C6A1C7B1C2696EEADFFAD2697A1
:10398000E080F1800E151F05C8F40E94BE256096E8
:103990008EAD9FAD60978E159F0528F4E81AF90A41
:1039A000E016F10608F478012E96AEADBFAD2E9765
:1039B0001196FC92EE920E944D0BB6CF0E94B2255A
:1039C00064964CAD5DAD6EAD7FAD64974E0D5F1DE1
:1039D000611D711D2C968CAD9DADAEADBFAD2C970C
:1039E00068968CAF9DAFAEAFBFAF689748175907C9
:1039F0006A077B0730F468964CAF5DAF6EAF7FAF60
:103A000068976696EEADFFAD66972E96AEADBFADEC
:103A10002E971196FC93EE93CECFF101E85AFC4F0E
:103A20001183008381E02296AEADBFAD22978C93C7
:103A30000E949B2580E991E00E9438126BED79E0AD
:103A40008D2D8DCE8DA99BEF980F923018F085EEBD
:103A50009DE04DC80E94CA251DA91092710081E009
:103A600080931E0322242A94210E6AEB79E0812F91
:103A70000E947E25812F0E94C72881110AC06FE90C
:103A800079E0812F0E947E250E94A7250E941D2497
:103A9000AACB312C220C331CF101E458FC4F80805E
:103AA0009180812F0E94DA245C018091160190910F
:103AB0001701A0911801B091190124968CAF9DAF08
:103AC000AEAFBFAF249788379105A105B10550F47B
:103AD00088E790E0A0E0B0E024968CAF9DAFAEAF59
:103AE000BFAF2497009115010E94F2082B013C0101
:103AF0006DE879E0812F0E947E258CE699E00E9496
:103B0000C70F0E94DC1245E559E0612F81E00E9459
:103B10004E258EE399E00E94C70F0E94BE25D10179
:103B2000AA59BC4F7D01C02ED12CF101E85AFC4F9F
:103B30002696FFAFEEAF2697D7018D919C91881600
:103B4000990608F04FC089E993E00E942A0B892B5F
:103B5000D9F089E993E00E94060B8197A9F489E9DD
:103B600093E00E94E80A81E080937B0363E279E0BE
:103B7000812F0E947E250E94A7250E94B81286E907
:103B800091E00E94381282CF0E94F20864197509F0
:103B90008609970997FD1CC024968CAD9DADAEADEE
:103BA000BFAD2497480E591E6A1E7B1ED7018D910A
:103BB0009C91C816D90628F48C199D098815990579
:103BC00008F4C4012696EEADFFAD2697918380835D
:103BD0000E944D0B80917B03882309F4ADCF68E0F0
:103BE00079E0C6CF6CE271E080E090E00E941709B6
:103BF00041EF58E0612F82E00E944E258AED98E067
:103C00000E94C70F0E94B225C1018A599C4F269677
:103C10009FAF8EAF2697802F90E0B0E0A0E02C966B
:103C20008CAF9DAFAEAFBFAF2C976501F12CE12CEF
:103C3000D101A85ABC4F2E96BFAFAEAF2E97269695
:103C4000EEADFFAD2697808191818A159B0508F026
:103C50004FC089E993E00E942A0B892B81F089E902
:103C600093E00E94060B819751F489E993E00E944A
:103C7000E80A81E080937B036FEB78E079CF0E94C4
:103C8000F208641975098609970997FD27C02496DB
:103C90008CAD9DADAEADBFAD2497480E591E6A1ECA
:103CA0007B1E2696AEADBFAD26978D919C912C962E
:103CB0004CAD5DAD6EAD7FAD2C97480F591F611DAA
:103CC000711DC6014C155D056E057F0508F4CA011E
:103CD0002E96EEADFFAD2E97918380830E944D0B03
:103CE00080917B03882309F4AACF64EA78E040CF6F
:103CF0006CE271E080E090E00E9417098A0C9B1C46
:103D00009694879444E958E0612F83E00E944E2501
:103D100084E898E00E94C70F0E94BE25C1018A591D
:103D20009C4F7C01C02ED12CD101A85ABC4F5D0103
:103D3000F701808191818816990608F041C089E9D0
:103D400093E00E942A0B892B81F089E993E00E947D
:103D5000060B819751F489E993E00E94E80A81E01B
:103D600080937B0369E678E003CF0E94F208641930
:103D700075098609970997FD19C024968CAD9DADEC
:103D8000AEADBFAD2497480E591E6A1E7B1ED701EB
:103D90008D919C91C816D90628F48C199D09881517
:103DA000990508F4C401F501918380830E944D0BAD
:103DB00080917B03882309F4BBCF6EE478E0D8CEF2
:103DC0000E94B225C1018A599C4F5C01802F90E06E
:103DD000B0E0A0E028968CAF9DAFAEAFBFAF289704
:103DE0006401F12CE12CD101A85ABC4F1D01F50151
:103DF000808191818815990508F049C089E993E08F
:103E00000E942A0B892B81F089E993E00E94060B1E
:103E1000819751F489E993E00E94E80A81E0809358
:103E20007B0363E378E0A4CE0E94F208641975096D
:103E30008609970997FD21C024968CAD9DADAEAD46
:103E4000BFAD2497480E591E6A1E7B1ED5018D9169
:103E50009C9128964CAD5DAD6EAD7FAD2897480F17
:103E6000591F611D711DC6014C155D056E057F054D
:103E700008F4CA01F101918380830E944D0B809167
:103E80007B03882309F4B3CF68E178E071CE67E063
:103E900078E0812F0E947E250E949B25F7CD8AEC39
:103EA0009DE00C947715882311F40C94401760E082
:103EB0000C943E1782E054C9882309F494C960E049
:103EC000A4CA0F931F93CF93C0910503CC23E1F0B5
:103ED0000E944909009101031091020320910303FC
:103EE00030910403601B710B820B930B63337105DC
:103EF0008105910548F0EC2FF0E0E85DFC4F108261
:103F00000E94161510920503CF911F910F910895ED
:103F10001F920F920FB60F9211242F933F938F93FE
:103F20009F93AF93BF938091160390911703A09135
:103F30001803B09119033091150323E0230F2D3797
:103F400058F50196A11DB11D20931503809316030A
:103F500090931703A0931803B093190380911A0349
:103F600090911B03A0911C03B0911D030196A11D0C
:103F7000B11D80931A0390931B03A0931C03B0936D
:103F80001D03BF91AF919F918F913F912F910F9002
:103F90000FBE0F901F90189526E8230F0296A11DC3
:103FA000B11DD2CF1F920F920FB60F9211242F93F3
:103FB0003F934F935F936F937F938F939F93AF93B1
:103FC000BF93CF93EF93FF93C091E1008091E10005
:103FD000837F8093E100C3FF0FC01092E90081E06E
:103FE0008093EB001092EC0082E38093ED0010923E
:103FF000980388E08093F000C2FF1AC00E94320844
:104000008091F102882341F08091F10281508093E8
:10401000F102811101C05D9A80919703882341F0DC
:1040200080919703815080939703811101C0289A52
:10403000C4FF23C08091E2008E7E81608093E20005
:104040008091E1008F7E8093E1008091F2028E7E6C
:1040500080618093F202FF91EF91CF91BF91AF9178
:104060009F918F917F916F915F914F913F912F9190
:104070000F900FBE0F901F901895C0FFECCF80914E
:10408000E2008E7E80618093E2008091E1008E7E6E
:104090008093E1008091F2028E7E8160DACF1F92E0
:1040A0000F920FB60F921124CF92DF92EF92FF92F0
:1040B0000F931F932F933F934F935F936F937F9330
:1040C0008F939F93AF93BF93EF93FF93CF93DF9320
:1040D000CDB7DEB76C97DEBFCDBF1092E9008091FF
:1040E000E80083FF25C068E0CE0145960E94DC0908
:1040F00082EF8093E8008D8987FF39C09091E800B6
:1041000090FFFCCF982F907609F034C19E894F899B
:10411000588D2F89F88C911131C0803861F58091CC
:10412000F3028093F1001092F1008EEF8093E8008B
:104130006C960FB6F894DEBF0FBECDBFDF91CF9166
:10414000FF91EF91BF91AF919F918F917F916F916F
:104150005F914F913F912F911F910F91FF90EF90A1
:10416000DF90CF900F900FBE0F901F9018959EEF8D
:104170009093E800C7CF1092F100D5CF913059F459
:104180008111D3CF4130510581F68091F3028D7FAB
:104190008093F302CACF933049F48111C6CF4130E6
:1041A000510519F68091F3028260F2CF953041F407
:1041B0008091E80080FFFCCF20682093E300B5CF1A
:1041C000963009F0A9C00B8D1C8D22E01092E900F9
:1041D0001092EF021092EE02F2122EC01092ED0237
:1041E0001092EC020E94FD091F8299E09983FA82E5
:1041F00091E09E8390EA98879AEF99872091EE024A
:104200003091EF02275F3F4F3C832B838D831092C9
:10421000E9001092EF021092EE021093ED0200936B
:10422000EC0249E050E0BE016F5F7F4F80E00E94EA
:10423000B6090E94FD0979CF1093ED020093EC02BC
:104240000E94E909DC0112960D911C9101151105DE
:1042500009F451C1D801ED91FC910480F581E02D64
:10426000BE016B5E7F4FC8010995009709F03EC102
:10427000F80100851185EACFF3E0FF120EC08F89A7
:10428000882309F440C0823061F440E860E183E9AA
:1042900096E00E948309811148CF81E28093EB0070
:1042A00047CF813029F440E86BE087E896E0F1CF12
:1042B000833099F70E94E909DC011296ED90FC9099
:1042C0008E010F5F1F4F6801E114F10479F0D701EF
:1042D000ED91FC910680F781E02DB801C7010995A9
:1042E000080F111DF701E084F184EECFD8011C9274
:1042F000F60101900020E9F73197BF016C197D09A3
:1043000040E0C601C6CF61E776E0FB01449150E092
:1043100080E80E94B60909CF973009F4BECF9830E3
:1043200021F481E08093F10000CF993009F0FDCEB7
:10433000837009F0B2CFE2E5F1E081E031E096E38D
:104340002191222371F08093E9003093EB00DF018B
:1043500011972C912093EC009093ED008F5F8730A4
:1043600079F78EE78093EA001092EA008F898093B4
:104370009803DBCE8B8D9C8D1092E9001092EF029A
:104380001092EE029093ED028093EC02898D8111E0
:1043900092C08E899D89913A49F4813209F07DCF8E
:1043A00047E050E06DE071E080E0B3CF913209F07A
:1043B00074CF833269F48F89988DB0E0A0E0809348
:1043C000090190930A01A0930B01B0930C01ADCEAB
:1043D000803269F48091E80082FFFCCF67E08DE0D5
:1043E00091E00E94DC098BEF8093E8009ECE823240
:1043F00009F09BCE8F8980931401EEEFFFE7859142
:1044000094918B3F9C4D51F1E0E0F8E080910D01DB
:1044100090910E01A0910F01B0911001803B94404A
:10442000A105B105F1F48091140180FD1AC0EE3FA1
:104430008AE0F80789F587E797E791838083809181
:1044400060008093F00288E19BE00FB6F894A89595
:10445000809360000FBE9093600067CEEEEFFAE0AD
:10446000D5CF808191818737974709F05ECEA89597
:10447000809160008861809360008091F002809359
:104480006000EE3F2AE0F20789F08091FE0A9091E9
:10449000FF0A9183808349CE808191818737980775
:1044A00051F29093FF0A8093FE0AC5CF1092FF0A43
:1044B0001092FE0A3ACE0E94E909DC0112960D9193
:1044C0001C910115110509F4E8CED801ED91FC917C
:1044D0000190F081E02DBE016B5E7F4FC801099510
:1044E000811123CEF80100851185EBCF181619062E
:1044F0000CF41BCED2CEF1E0FF12BECE65E776E023
:1045000004CF1F920F920FB60F9211242F933F9357
:104510004F935F936F937F938F939F9320910801A5
:10452000809166039091670340915803509159031D
:104530008417950709F401C130910101841795078B
:1045400008F0F1C041E050E0313031F05C9841E0DA
:1045500050E031E030930101840F951F9093670381
:104560008093660380E330E1223008F412C1409169
:1045700068035091690360915A0370915B03461779
:10458000570709F4EAC0909102014617570708F44B
:10459000EAC06FEF7FEF9F3F31F0469A6FEF7FEFFA
:1045A0009FEF90930201460F571F5093690340936A
:1045B0006803223009F429C140916A0350916B03CA
:1045C00060915C0370915D034617570709F4EEC0D4
:1045D000909103014617570708F4D1C06FEF7FEFA2
:1045E0009F3F31F05F9A6FEF7FEF9FEF9093030152
:1045F0008064460F571F50936B0340936A03233028
:1046000009F403C140916C0350916D0360915E0306
:1046100070915F034617570709F4D5C090910401C4
:104620004617570708F4DDC06FEF7FEF9F3F31F06B
:10463000769A6FEF7FEF9FEF909304018068460FAB
:10464000571F50936D0340936C03243009F4DDC071
:1046500040916E0350916F0360916003709161030C
:1046600090E046175707B9F0909105014617570794
:1046700008F4ADC06FEF7FEF9F3F31F0589A6FEFB6
:104680007FEF9FEF90930501460F571F50936F03E5
:1046900040936E0390E4253009F48EC0209170039E
:1046A00030917103409162035091630324173507E1
:1046B00009F482C0609106012417350708F49BC0F5
:1046C0004FEF5FEF6F3F31F08C9A4FEF5FEF6FEF7F
:1046D00060930601240F351F3093710320937003FC
:1046E00020E2882319F035B1382B35B9992319F018
:1046F0003BB1392B3BB9222319F031B3322B31BBFB
:104700003AE03A95F1F700C081114BC0992321F0AE
:104710008BB1909598239BB9222391F081B320957A
:10472000282321BB0DC04FEF5FEF3F3F09F414CFAB
:104730005C9A4FEF5FEF3FEF0DCF223008F06FC074
:104740009F918F917F916F915F914F913F912F91A9
:104750000F900FBE0F901F901895832F223009F0F5
:104760002BCF90E02BC061E070E0913009F41BCFBB
:10477000469861E070E091E09093020114CF61E00F
:1047800070E0913009F434CF5F9861E070E091E01F
:104790002DCF2C9A3AE03A95F1F700C020E090E056
:1047A00080E135B18095832385B9B0CF233009F0FE
:1047B00029CF382F90E002C0392F382B332309F44A
:1047C000BFCF20E08ECF243009F042CFF2CF61E09E
:1047D00070E0913009F458CF589861E070E091E0B2
:1047E00051CF61E070E0913009F428CF769861E014
:1047F00070E091E021CF41E050E0613009F46ACFF0
:104800008C9841E050E061E063CF95B1982B95B969
:104810009AE09A95F1F700C020E090E0C2CF80E2E4
:1048200030E0A5CE00000000000000000000000005
:10483000682F89E993E00C94B30A10921E0310923A
:10484000900089E08093910087EC90E0909399002C
:104850008093980082E0809371000895382F8091B2
:10486000160190911701A0911801B0911901883794
:104870009105A105B10520F488E790E0A0E0B0E043
:10488000BC01CD019695879577956795613D27E0A9
:1048900072078105910520F060ED77E080E090E0FF
:1048A00021E043E0832F0C94710ECF92DF92EF92C0
:1048B000FF921F93CF93DF93CDB7DEB768970FB604
:1048C000F894DEBF0FBECDBF10917B0311111CC049
:1048D00089E993E00E942A0B892BB1F0CE01019661
:1048E0007C016C0189E993E00E942A0B892B21F15C
:1048F000173111F189E993E00E94E80A813299F4B5
:1049000081E080937B0311E0812F68960FB6F894C5
:10491000DEBF0FBECDBFDF91CF911F91FF90EF9013
:10492000DF90CF9008958D3039F08A3029F01F5FE5
:10493000D6018D936D01D6CFF701E10FF11D1082E5
:10494000F701D7018D917D018032D1F38930C1F318
:104950008F7D843461F581818F7D8F3441F532966E
:10496000DF0181918032E1F38930D1F38F7D83348F
:10497000F1F411968C9111978F7D8134C1F41296C8
:104980008C9112978F7D8E3491F413968C9113979E
:104990008F7D833461F414968C9114978F7D8534C8
:1049A00031F415968C918F7D8C3409F4A9CF109138
:1049B0007B03AACF8150282F30E0220F331FF9014B
:1049C000E65EFE4F8081918124583C4FF9012081A1
:1049D00031812817390750F4A901440F551F841756
:1049E000950710F401970895821B930B0895BF92C9
:1049F000CF92DF92EF92FF920F931F93CF93DF93AB
:104A0000CDB7DEB72B970FB6F894DEBF0FBECDBF84
:104A10008C01CB01009741F19E01295F3F4FB12CE2
:104A200079014AE0C42ED12CB394B6010E9407301C
:104A3000805DD9018D939D01CB01009719F045E070
:104A4000B412F2CFDE0111968B2D9D018150A7018A
:104A5000480F511DFA0190819D938111F7CFF90103
:104A6000EB0DF11D108203C080E389831A82C80117
:104A70000E94C70FCE0101960E94AB0F2B960FB676
:104A8000F894DEBF0FBECDBFDF91CF911F910F9184
:104A9000FF90EF90DF90CF90BF9008950F931F93FA
:104AA000CF93DF93D82FC62F8A0186EA9FE00E941A
:104AB000C70F6D2F70E085EA9FE00E94C90F83EA5F
:104AC0009FE00E94C70F63E070E082EA9FE00E94CF
:104AD000C90F8BE99FE00E94C70F6C2F70E08AE935
:104AE0009FE00E94C90F87E99FE00E94C70FC8019D
:104AF000DF91CF911F910F910C94C70F0F931F93CC
:104B0000CF93C82F8B0183EB90E00E94C70F6C2FCF
:104B100070E082EB90E00E94C90F8CEA90E00E9466
:104B2000C70FC801CF911F910F910C94C70F8AE056
:104B300094E00C94B90F80910001833039F083E048
:104B40008093000186EC90E00C94C70F089580914B
:104B50000001882331F0109200018BEB90E00C945F
:104B6000C70F089580910001823039F082E0809370
:104B7000000185ED90E00C94C70F0895809100012D
:104B8000813039F081E08093000189EE90E00C944F
:104B9000C70F0895CF93DF9300D0CDB7DEB7815014
:104BA0008730F8F4E82FF0E0DF01A85DBE4F8C916C
:104BB000811117C081E08C93EE0FFF1FEC50F14F75
:104BC0008591949121E030E03A832983BE016F5FA3
:104BD0007F4F0E9444100E949F0C82E194E00E944B
:104BE000C70F0F900F90DF91CF910895EF92FF9232
:104BF0000F931F93CF93DF9300D000D0CDB7DEB7D4
:104C00009BEF980F923058F58150082F10E0E92E55
:104C1000F12CEE0CFF1CF701E55CFE4F80819181C9
:104C2000000F111FF801E65EFE4F208131813A83AB
:104C30002983BE016F5F7F4F0E944410F701E95C3A
:104C4000FE4F80819181F801E458FC4F2081318131
:104C50003C832B83BE016D5F7F4F0E9444100F90F9
:104C60000F900F900F90DF91CF911F910F91FF90B8
:104C7000EF9008952F923F924F925F926F927F92A2
:104C80008F929F92AF92BF92CF92DF92EF92FF925C
:104C90000F931F93CF93DF93CDB7DEB76A970FB60D
:104CA000F894DEBF0FBECDBF8C8B1092710081E0F7
:104CB00080931E039C889A940E94DC1286E991E0FE
:104CC0000E9438128AED93E00E94C70F0E94B2251D
:104CD000209116013091170140911801509119014E
:104CE0002E873F87488B598B283731054105510561
:104CF00040F488E790E0A0E0B0E08E879F87A88B23
:104D0000B98B209015010E94F2082B013C018C897F
:104D10000E945E0E882309F47CC088EB93E00E9419
:104D2000C70F0E94B22552E3E52EF12C092D10E0A9
:104D3000000F111FD801AA59BC4F5D01C22CD12C04
:104D4000085A1C4F89E993E00E942A0B892BB1F184
:104D500089E993E00E94060B819781F589E993E048
:104D60000E94E80A81E080937B038AE993E00E9435
:104D7000C70F0E94A7250E94B81286E991E00E9401
:104D80003812312C0E941D24832D6A960FB6F89498
:104D9000DEBF0FBECDBFDF91CF911F910F91FF906E
:104DA000EF90DF90CF90BF90AF909F908F907F90CB
:104DB0006F905F904F903F902F9008950E94F2085F
:104DC000641975098609970997FD1DC02E853F85D1
:104DD00048895989420E531E641E751ED5012D91B6
:104DE0003C91C601EC14FD0408F4C701AC0128177E
:104DF000390710F441E050E0241B350BF8013183F2
:104E00002083E81AF90A0E944D0BE114F10409F01D
:104E100099CF292D30E03E8B2D8B220F331F3D87FC
:104E20002C872A593C4F7901D90111961C921E9268
:104E30000C851D85085A1C4FF801118210820E94B2
:104E400049094B015C010E94B2251B8A1A8AF88E1F
:104E5000EF8AC22CD12CF12CE12C1A8F098F022D54
:104E600010E089E993E00E942A0B892B81F089E9FF
:104E700093E00E94060B819751F489E993E00E9428
:104E8000E80A81E080937B038CE793E070CF0E9477
:104E9000F208641975098609970997FD27C02E85C0
:104EA0003F8548895989420E531E641E751EAF897D
:104EB000B88D8D919C91A7019601280F391F411D36
:104EC000511DDA01C901009731E0A307B10520F0B7
:104ED0008FEF9FEFA0E0B0E0E98DFA8D91838083A2
:104EE0002A893B89200F311F3B8B2A8B0E944D0B57
:104EF0004A895B8942335105E8F40E9449096819DF
:104F000079098A099B096135734C8105910508F47B
:104F1000A8CF8DE393E00E94C70F85E293E00E9443
:104F2000C70F0E94A72586E991E00E9438120E94CF
:104F3000B81227CF23E045E068EC70E08C890E942E
:104F4000710E382E8823C9F20C851D850A591C4F15
:104F5000D8018D909C900E94BE250E9449096B014A
:104F60007C015801022D10E0EC85FD85E85AFC4FCC
:104F7000FB8BEA8B23E045E068EC70E08C890E94B3
:104F8000710E882309F44AC089E993E00E942A0B34
:104F9000892B81F089E993E00E94060B819751F4F7
:104FA00089E993E00E94E80A81E080937B0387E02F
:104FB00093E0DDCE80917B03882319F089EF92E0A6
:104FC000D6CE0E94F208641975098609970997FDE3
:104FD00017C02E853F8548895989420E531E641E8D
:104FE000751ED5018D919C9198018017910710F441
:104FF00021E030E0821B930BEA89FB899183808357
:105000000E944D0B0E9449096C197D098E099F0968
:10501000693873418105910508F4ACCF94E1E92E1C
:10502000F12C2C853D852A593C4F6901022D10E059
:105030004C855D85485A5C4F5A01D6018D919C91F3
:10504000892B09F051C0EC85FD85EA59FC4F808120
:105050009181EC85FD85E85AFC4F91838083EC8536
:10506000FD85E65EFE4F91828082ED89FE89E657DE
:10507000FC4F81E08114910409F480E0808380E991
:1050800091E00E94381283ED92E00E94C70F8114D4
:10509000910409F472C09E01295F3F4FD12C890110
:1050A0008AE0E82EF12CD394C401B7010E940730A6
:1050B000805DD9018D939D014B01672B19F0F5E0BF
:1050C000DF12F1CFDE0111968D2D9D018150A801D7
:1050D000480F511DFA0190819D938111F7CFF9017D
:1050E000ED0DF11D10824CC089E993E00E942A0B5E
:1050F000892B81F089E993E00E94060B819751F496
:1051000089E993E00E94E80A81E080937B0385EBC4
:1051100092E02DCE80917B03882319F087EA92E0FC
:1051200026CE0E94F208641975098609970997FD31
:105130001DC02E853F8548895989420E531E641E25
:10514000751ED6012D913C91C801E016F10608F4B8
:10515000C701AC012817390710F441E050E0241BC7
:10516000350BF50131832083E81AF90A0E944D0BB3
:10517000E114F10409F061CF66CF80E389831A82DC
:10518000CE0101960E94AB0F0E94A725FBCD2F9266
:105190003F924F925F926F927F928F929F92AF92C7
:1051A000BF92CF92DF92EF92FF920F931F93CF9314
:1051B000DF93CDB7DEB72E970FB6F894DEBF0FBEE4
:1051C000CDBF382E8BEF830D8230F8F085E892E06A
:1051D0000E94C70F212C822D2E960FB6F894DEBFA9
:1051E0000FBECDBFDF91CF911F910F91FF90EF9038
:1051F000DF90CF90BF90AF909F908F907F906F90F7
:105200005F904F903F902F9008951092710081E031
:1052100080931E0322242A94230C10927B030E9465
:10522000DC1286E991E00E94381289EE91E00E943A
:10523000C70F0E94BE258090160190901701A09084
:105240001801B090190128E782169104A104B10455
:1052500028F428E7822E912CA12CB12C3091150135
:105260003B830E94F2082B013C01832D0E945E0EBD
:10527000882309F45FC08DEB91E00E94C70F0E9464
:10528000B22502E310E0422D50E0440F551F5A832F
:1052900049834A595C4F6A015B81E52EF12C698193
:1052A0007A81685A7C4F7A8369830E9455248823C7
:1052B00081F08FEA91E00E94C70F0E94A7250E940B
:1052C000B81286E991E00E943812212C0E941D2418
:1052D00082CF0E94F208641975098609970997FD23
:1052E00023C0480C591C6A1C7B1CD6012D913C9193
:1052F000C7010E151F0508F4C801AC0170E060E09D
:10530000420F531F611D711D41155105B1E06B071F
:10531000710520F04FEF5FEF60E070E0E981FA8106
:1053200051834083081B190B0E944D0B0115110579
:1053300009F0BBCF022D10E0000F111F98012A5970
:105340003C4F3A8729878FEF9FEFD90111969C93A5
:105350008E93F801E85AFC4FFA83E98391838083A6
:105360000E9449096C837D838E839F830E94BE25A2
:10537000F12CE12CFB81CF2ED12C0E9455248823C7
:1053800019F081EA91E097CF0E94F208641975093B
:105390008609970997FD16C0480C591C6A1C7B1C8E
:1053A000A985BA858D919C9196018C159D0510F467
:1053B00021E030E0821B930BE981FA8191838083A5
:1053C000EC0CFD1C0E944D0B0E945524282E8823B6
:1053D00019F083E991E06FCFF2E3EF16F10408F5DD
:1053E0000E9449092C813D814E815F81621B730BB4
:1053F000840B950B6135734C8105910508F4BDCF85
:1054000084E591E00E94C70F8CE391E00E94C70FF2
:105410000E94A72586E991E00E9438120E94B812E6
:1054200055CF23E045E068EC70E0832D0E94710EBB
:1054300088878823A9F20E94B225F801E458FC4F1E
:10544000408151815A834983452B21F464E170E006
:105450007A8369830E9449096B017C01C8018A59DA
:105460009C4F9D838C833B81232F30E050E040E0B4
:1054700029873A874B875C87A801485A5C4F5E872B
:105480004D8723E045E068EC70E0832D0E94710EAB
:10549000882309F446C00E945524882369F08EE2CF
:1054A00091E00E94C70F0E94A7250E94B81286E9CA
:1054B00091E00E9438120ACF0E94F208641975091F
:1054C0008609970997FD1FC0480C591C6A1C7B1C54
:1054D000AC81BD818D919C9129853A854B855C85F8
:1054E000280F391F411D511DDA01C901009731E014
:1054F000A307B10520F08FEF9FEFA0E0B0E0ED85AE
:10550000FE85918380830E944D0B0E9449096C198E
:105510007D098E099F09693873418105910508F459
:10552000B0CF98012A593C4F69015B81452F50E06B
:105530005D834C83B801685A7C4F7B010E945524DF
:10554000882319F080E291E0ACCF0E94F208641940
:1055500075098609970997FD2AC0480C591C6A1CD1
:105560007B1CD6012D913C918C819D81E981FA8132
:10557000E817F90708F4CF01AC0170E060E0420FD2
:10558000531F611D711D41155105F1E06F07710534
:1055900020F04FEF5FEF60E070E0D70111965C9371
:1055A0004E93E981FA81E81BF90BFA83E9830E94A3
:1055B0004D0B29813A81232B09F6F801EA59FC4F5A
:1055C00011821082F801E85AFC4F11821082E32DFB
:1055D000F0E0E757FC4F81E0808380E991E00E9492
:1055E00038128BEF90E00E94C70F0E94A7252884F5
:1055F0006DCECF93DF9300D000D0CDB7DEB77894D7
:1056000084B5826084BD84B5816084BD85B58260C7
:1056100085BD85B5816085BD80916E008160809378
:105620006E001092810080918100826080938100E1
:1056300080918100816080938100809180008160F1
:10564000809380008091910082608093910080918E
:10565000910081608093910080919000816080939F
:1056600090008091C10084608093C1008091C1004E
:1056700082608093C1008091C10081608093C100ED
:105680008091C30081608093C3008091C0008260DC
:105690008093C0008091C20081608093C20080919D
:1056A0007A00846080937A0080917A00826080938F
:1056B0007A0080917A00816080937A0080917A00EC
:1056C000806880937A00109298031092F3021092EF
:1056D000F2028091D70081608093D70080EA8093A6
:1056E000D80089B5806189BD89B5826089BD09B45A
:1056F00000FEFDCF61E070E080E090E00E941709BD
:105700008091D8008F7C80618093D8008091E000E8
:10571000807F8093E0008091E1008E7E8093E100A5
:105720008DE08093E200559A209A61E082E10E9428
:10573000C10861E082E10E94500862E08DE00E94B1
:10574000C10862E083E10E94C1080E949F0CB4E698
:105750008B2EB1E09B2E18E5612E11E0712E0CE727
:10576000E02E03E0F02E0AE813E08AE1C82E81E083
:10577000D82E41E050E05A83498333243394D40136
:105780008D919D914D010E9468105C01F301819102
:1057900091913F010E9468102C01A114B10409F0FD
:1057A000B2C083ED96E00E94C70FD6011D921C92F5
:1057B000F70111821082D8011C9249815A814F5FF2
:1057C0005F4F5A83498352E0C50ED11C82E0E80E38
:1057D000F11C0F5F1F4FA981BA81189781F6E7E787
:1057E000F1E0FA83E983F0E7EF2EF1E0FF2EAEE778
:1057F000CA2EA1E0DA2E61E0A981BA818D91BA8327
:10580000A9830E94C108F70111917F0161E0812FF6
:105810000E94C10861E0812F0E945008A980BA80CF
:10582000CA14DB0441F70E94B81210927803109258
:10583000790310927A030E94B81264E670E080E067
:1058400090E00E9417091092270381E891E00E94DE
:10585000381288E490E00E946810029721F060E01E
:1058600080E00E94E1108FEF9FEF9093A60380935A
:10587000A5030E9481100E949F0C1092900089E065
:105880008093910087EC90E090939900809398002A
:1058900082E0809371000E94440B0E94A81222248F
:1058A0002A94322C412C512C7724739472E0672E69
:1058B000B0901401B98221E02B83B11001C01B828A
:1058C0006AE070E080E090E00E9417098091F402A5
:1058D000882309F451C0A980A1104EC0109205037D
:1058E000109201031092020310920303109204031A
:1058F00089E993E00E942A0B892B51F189E993E011
:105900000E94E80AF5CFF601B182A082D7018D93FB
:105910009C93F80130828AEB96E00E94C70F698160
:105920007A8189EB96E00E94C90F81EB96E00E9494
:10593000C70FB50180EB96E00E94C90F85EA96E09B
:105940000E94C70FB20184EA96E00E94C90F35CFCA
:1059500010929203109293031092910310920C03F1
:1059600010920D0310920E0310920F030E94440B2D
:105970000E94B8120E94A8128091F402811118C0EE
:10598000B980BB20A9F01092050310920103109278
:105990000203109203031092040389E993E00E942A
:1059A0002A0B892B29F089E993E00E94E80AF5CFB8
:1059B000CB80C092F40289E993E00E942A0B892BE4
:1059C00051F00E9449096093110370931203809370
:1059D00013039093140380912403811103C08091D9
:1059E000250381117092100389E993E00E942A0B2C
:1059F000892B09F461C289E993E00E94060B97FDA7
:105A00005BC28035910509F005C289E993E00E94E7
:105A10002A0B0D970CF450C289E993E00E94E80A22
:105A200065EFE62E62E0F62EFA82E98289E993E0DC
:105A30000E94E80AA981BA818D93BA83A983A150F3
:105A4000B340A1F70E94490900910C0310910D0386
:105A500020910E0330910F03011511052105310529
:105A600079F05B016C01A01AB10AC20AD30A96014F
:105A7000850141E049830B3F11052105310508F4FB
:105A8000198260930C0370930D0380930E0390931F
:105A90000F0380910B03882331F010920B0389E0F0
:105AA00097E00E94C70F80919203882319F053E07A
:105AB00050939103A980E8E2F1E0AA2009F430C1F3
:105AC00090E080E02191222371F09C01220F331F8E
:105AD000D901AA59BC4F4D915C91285A3C4FD9012C
