:100000000C9470070C9498070C9498070C9498071C
:100010000C9498070C9498070C9498070C949807E4
:100020000C9498070C9498070C94771D0C94F41D6D
:100030000C9498070C9498070C9498070C949807C4
:100040000C9498070C9498070C9498070C949807B4
:100050000C9498070C9498070C9498070C942D1DF9
:100060000C9498070C9498070C9498070C94980794
:100070000C9498070C9498070C9498070C94980784
:100080000C9426200C9498070C9498070C949807CD
:100090000C9498070C9498070C9498070C94980764
:1000A0000C9498070C9498070C94980720E280947D
:1000B0002000005B43414C5D204D005B4143545D9B
:1000C0002049444C45005B4143545D2043454E5418
:1000D00045524544005B4143545D204445434F4DE8
:1000E0005052455353494E47005B4143545D2043B2
:1000F0004F4D5052455353494E47004D696E206550
:100100006E6473746F7020666F756E643B20706FE1
:10011000736974696F6E2073657420746F2030008A
:100120005B43414C5D2041626F72746564005B43C8
:10013000414C5D2041626F72746564005265747554
:10014000726E696E6720746F206D61696E206D65D7
:100150006E752E004572726F723A20646574656325
:10016000744D696E2074696D656F75742E20496ECB
:1001700063726561736520504E3938206F7220615B
:10018000646A75737420686F6D696E67207370653B
:100190006564005B43414C5D2041626F727465642D
:1001A000005B43414C5D2041626F72746564005B8B
:1001B00043414C5D2041626F7274656400456E641A
:1001C00073746F7020616C7265616479206163740F
:1001D0006976652E204465636F6D7072657373690F
:1001E0006E67206120626974004465746563746998
:1001F0006E67204D494E207573696E6720656E6489
:1002000073746F702E2E2E353073206265666F7298
:10021000652074696D656F75742E20496620656E62
:100220006473746F7020697320616C7761797320D7
:100230006F6E2C20696E63726561736520706E301D
:1002400032342E20496620746F6F20736C6F772CC8
:1002500020696E63726561736520504E3938206F76
:10026000722061646A75737420686F6D696E6720AF
:10027000737065656420696E20706172616D65746C
:100280006572732E006465746563744D696E2073C6
:100290007570706F72746564206F6E204D352F4DD0
:1002A00036206F6E6C79005B43414C5D2041626F7C
:1002B00072746564005B43414C5D2041626F7274EF
:1002C0002072657175657374656420287175696342
:1002D0006B29004D617820656E6473746F702066C1
:1002E0006F756E643A20636F6E746163742F72650C
:1002F0006C65617365204020005B43414C5D20418B
:10030000626F72746564005B43414C5D2041626FB3
:1003100072742072657175657374656420287175D7
:1003200069636B290052657475726E696E6720741B
:100330006F206D61696E206D656E752E004572725D
:100340006F723A206465746563744D6178207469D6
:100350006D656F75742E20496E63726561736520DB
:10036000504E3938206F722061646A75737420684A
:100370006F6D696E67207370656564005B43414C07
:100380005D2041626F72742072657175657374656A
:10039000642028717569636B29005B43414C5D20C3
:1003A00041626F7274207265717565737465642043
:1003B00028717569636B2900456E6473746F7020D2
:1003C000616C7265616479206F6E2E204465636F85
:1003D0006D7072657373696E6700446574656374EC
:1003E000696E67204D4158207573696E6720656E90
:1003F0006473746F702E353073206265666F72653A
:100400002074696D656F75742E004F4B0045525214
:1004100020004D6F746F722077617320646973637D
:100420006F6E6E65637465643B2073657420746FD2
:1004300020434F4E4E454354454420666F7220631F
:10044000616C6962726174696F6E2E0046616374DB
:100450006F72792073657474696E67732072657347
:10046000746F7265642E20506F7765722D637963A7
:100470006C65206973207265636F6D6D656E646570
:10048000642E005B484F4D494E475D204E6F2065FE
:100490006E6473746F7020666F756E6420E2809472
:1004A00020686F6D696E672061626F727465642089
:1004B00028706F736974696F6E2072656163686517
:1004C00064203020776974686F757420656E64737A
:1004D000746F703B20636865636B20776972696E27
:1004E00067206F722064697361626C65204D352FDF
:1004F0004D3620696E204D6F74696F6E2043656EB6
:1005000074657229002061626F727465643A2072AA
:10051000656163686564206C6F676963616C2070F6
:100520006F736974696F6E203020776974686F75B6
:100530007420656E6473746F702074726967676588
:1005400072005B484F4D494E475D204D005B484F60
:100550004D494E475D204E6F20656E6473746F7019
:1005600020666F756E6420E2809420686F6D696EFE
:10057000672061626F7274656420286D61782073F2
:1005800065656B206C696D6974207265616368656F
:10059000643B20636865636B20776972696E6720CE
:1005A0006F722064697361626C65204D352F4D3622
:1005B00020696E204D6F74696F6E2043656E74659F
:1005C00072290029002C206C696D69743D0020613E
:1005D000626F727465643A206D6178207365656B33
:1005E0002073746570732072656163686564202888
:1005F0006D6F7665643D005B484F4D494E475D2009
:100600004D005741524E494E4720534552564F20B8
:10061000454E41424C4544005741524E494E4720B9
:10062000534552564F2044495341424C45440008DB
:100630000B00020202000009040000010202000097
:1006400005240010010524010101042402060524EB
:100650000600010705810310004009040100020A99
:100660000000000705020240000007058302400069
:10067000000403090412010002EF02014041233685
:100680008000010102030141726475696E6F204CA4
:100690004C430041726475696E6F204C656F6E61EA
:1006A00072646F0000207C204D617267696E3D00AE
:1006B00000207C204D61783D000043616C696272CE
:1006C0006174696F6E206C6F6164656420666F721F
:1006D000204D00454550524F4D20696E76616C6942
:1006E00064206F72206D6178206861736E277420BA
:1006F0006265656E2063616C696272617465642015
:1007000079657420283D3029005B534146455D20C2
:1007100053696D4875622073747265616D207265EE
:1007200073756D656420647572696E6720504152FF
:100730004B5F5A45524F005B534146455D2053691C
:100740006D487562205041524B5F5A45524F20749C
:10075000696D656F7574202D3E20534552564F5F6D
:100760004F4646005B534146455D2053696D4875D1
:1007700062205041524B5F5A45524F20646F6E6564
:10078000202D3E20534552564F5F4F4646000000F5
:100790000000240027002A002D0030000000000087
:1007A000250028002B002E0031000404040404035B
:1007B0000405020202020403020202020606060601
:1007C0000606040402020204040408020110408028
:1007D0004010204080408008020401804020100228
:1007E00001108010204040200000000200090F008E
:1007F00000030401000C00000000000000000000E5
:1008000000000000000000544553545F5354524F01
:100810004B4520646F6E650041424F525445442061
:10082000647572696E6720544553545F5354524F38
:100830004B450041424F5254454420647572696EE5
:100840006720544553545F5354524F4B4500414227
:100850004F5254454420647572696E672054455365
:10086000545F5354524F4B450041424F52544544FC
:1008700020647572696E6720544553545F53545217
:100880004F4B45005265616368696E672043454E72
:10089000544552005265616368696E672043454E56
:1008A0005445520041424F52544544206475726988
:1008B0006E6720544553545F5354524F4B4500418B
:1008C000424F5254454420647572696E6720544506
:1008D00053545F5354524F4B4500526561636869EE
:1008E0006E6720656666656374697665204D41585C
:1008F000005265616368696E67206566666563744A
:10090000697665204D41580041424F52544544207C
:10091000647572696E6720544553545F5354524F47
:100920004B450041424F5254454420647572696EF4
:100930006720544553545F5354524F4B4500526502
:10094000616368696E67206566666563746976656C
:10095000204D494E005265616368696E6720656687
:1009600066656374697665204D494E0054657374FD
:10097000696E672066756C6C207374726F6B65208E
:1009800077697468206D617267696E2E00537461B7
:10099000727420544553545F5354524F4B45004199
:1009A000424F5254454420647572696E6720544525
:1009B00053545F5354524F4B450052656665726500
:1009C0006E6365204D494E206265666F72652054E6
:1009D0004553545F5354524F4B4500474F5F544F5C
:1009E0005F43454E54455220646F6E650041424F4F
:1009F000525445440043616E6E6F742063656E749B
:100A000065723A204D4158206E6F742063616C69A5
:100A1000627261746564004641494C4544206475C6
:100A200072696E67204D494E206465746563746910
:100A30006F6E00506F736974696F6E20756E6B6EA8
:100A40006F776E202D3E20646574656374204D4978
:100A50004E206265666F72652063656E74657269AB
:100A60006E6700676F546F43656E746572536D6196
:100A7000727420737570706F72746564206F6E206D
:100A80004D352F4D36206F6E6C790064657465634B
:100A9000744D617820737570706F72746564206F27
:100AA0006E204D352F4D36206F6E6C7900434F4DC3
:100AB000504C4554455F43414C494220646F6E653C
:100AC0000043616C6962726174696F6E20646F6E5D
:100AD000652E20506C656173652072657374617258
:100AE000742074686520636F6E74726F6C20626F1F
:100AF00078206265666F7265207573696E67205332
:100B0000696D68756200536176696E672063616C18
:100B10006962726174696F6E20746F20454550522E
:100B20004F4D0041424F52544544004641494C45C7
:100B30004420647572696E67204D41582064657465
:100B4000656374696F6E00446574656374696E678C
:100B5000204D415820656E6473746F7000464149A2
:100B60004C454420647572696E67204D494E20647F
:100B70006574656374696F6E004465746563746958
:100B80006E67204D494E20656E6473746F7000531C
:100B90007461727420434F4D504C4554455F43413E
:100BA0004C49420066756C6C43616C696272617499
:100BB000696F6E536F667420737570706F727465B1
:100BC00064206F6E204D352F4D36206F6E6C79008E
:100BD000204D00204D434D494E3D302E39002048D8
:100BE0005350533D0020534552564F3D00535441FE
:100BF0005455532046573D322E3020424F583D0029
:100C00004F4B5F44495341424C4544004F4B5F4575
:100C10004E41424C4544004D3520686F6D696E670A
:100C2000206661696C65643A204D494E20656E64AA
:100C300073746F70206E6F74207265616368656491
:100C40002028636865636B20776972696E672F651A
:100C50006E6473746F702F64726976657220736549
:100C60007474696E677329004D35206D6172676910
:100C70006E206170706C6965643A20004D352068A3
:100C80006F6D6564004D3520686F6D696E67207308
:100C900074617274004D35206D617267696E2061F8
:100CA00070706C6965643A20004D3520686F6D691D
:100CB0006E6720736B69707065643A20616C726551
:100CC00061647920686F6D6564004D3520686F6DD3
:100CD000696E6720736B69707065643A206E6F741B
:100CE00020636F6E6E65637465640043414C4942D6
:100CF000524154454400554E4B4E4F574E5F434D65
:100D00004400554E4B4E4F574E5F414354494F4E52
:100D1000004F4E4C595F4D355F4D360043454E54A4
:100D200045525F4641494C454400004D004F4E4CF2
:100D3000595F4D355F4D360043414C49425F464156
:100D4000494C454400004D004F4E4C595F4D355FB6
:100D50004D360043414C49425F4641494C454400B1
:100D6000004D004F4E4C595F4D355F4D36004241AE
:100D7000445F56414C5545004241445F4D4F544FEE
:100D800052004241445F41524753004E4F545F521C
:100D9000454143484544004F4E4C595F4D355F4DEA
:100DA00036004E4F545F52454143484544004F4E34
:100DB0004C595F4D355F4D360043414C49425F46CB
:100DC00041494C4544004F4E4C595F4D355F4D36BF
:100DD000004D36004D35004241445F4D4F544F5257
:100DE000004241445F4152475300554E4B4E4F57CE
:100DF0004E5F4B45590004000C0014001C002400F9
:100E00002C004D415247494E5F4F4E4C595F4D3576
:100E10005F4D360000000800100018002000280078
:100E20003000340038003C00400044004D4F544F27
:100E3000525F5245515549524544004241445F4D2D
:100E40004F544F52004241445F56414C5545004279
:100E500041445F41524753004F4B5F4D435F44490C
:100E600053434F4E4E454354454400424F585F4410
:100E70004F574E0053485F44495341424C4544004C
:100E80005348434F4E4E4543544544004F4B5F4DEE
:100E9000435F44495341424C4544004F4B5F4D43EF
:100EA0005F434F4E4E4543544544003000310042AD
:100EB00041445F4D4F544F52004241445F4D4F54A7
:100EC0004F52003A20000020E28094204D00002F75
:100ED00000005B43414C5D20537465702000262D5B
:100EE00011241FBECFEFDAE0DEBFCDBF12E0A0E0DD
:100EF000B1E0E0EBFBE502C005900D92AE3BB1071F
:100F0000D9F723E0AEEBB2E001C01D92A53CB207D9
:100F1000E1F717E0C0E7D7E004C02197FE010E9487
:100F2000B12DCF36D107C9F70E9499280C94D62D40
:100F30000C940000FC0180917403882311F13FB7E9
:100F4000F89482E08093E9002091F200822F90E0F3
:100F50001816190614F481E090E0882339F02898D7
:100F600044E6409373034091F1004083222339F01B
:100F70002091F200211103C02BE62093E8003FBF2F
:100F800008958FEF9FEF089583E08093E9008091AB
:100F9000F200882319F08AE38093E80008950C9406
:100FA000C4072FB7F89483E08093E9009091E8009C
:100FB000892F807295FF04C09091F20080E4891B14
:100FC0002FBF0895282F30E0F901E851F84F949190
:100FD000F901E753F84F84912655384FF9012491D0
:100FE000222309F430C09923E9F091509F30D0F4C6
:100FF000E92FF0E0E250F84F0C94B12D2C083008A6
:101000000D082408280812081208120833083908A5
:101010003D084108470812084B08909180009F77CF
:1010200090938000E22FF0E0EE0FFF1FE456F84FA0
:10103000A591B4919FB7F894EC91611132C080955D
:101040008E238C939FBF0895909180009F7DE8CF61
:1010500090918000977FE4CF94B59F7794BDE2CFC5
:1010600094B59F7DFBCF909190009F7790939000D7
:10107000D9CF909190009F7DF9CF90919000977F6C
:10108000F5CF9091C0009F779093C000CBCF909107
:10109000C0009F7DF9CF9091C200977F9093C200CE
:1010A000C1CF8E2BCECFCF93DF9390E0FC01E753DF
:1010B000F84F24918655984FFC0184918823D1F0F4
:1010C00090E0880F991FFC01E257F84FA591B49169
:1010D000FC01E456F84FC591D491623071F49FB78A
:1010E000F8943C91822F809583238C93E8812E2B5A
:1010F00028839FBFDF91CF9108958FB7F894EC912B
:101100002E2B2C938FBFF6CF3FB7F894809100031E
:1011100090910103A0910203B091030326B5A89B0F
:1011200005C02F3F19F00196A11DB11D3FBFBA2F79
:10113000A92F982F8827BC01CD01620F711D811D39
:10114000911D42E0660F771F881F991F4A95D1F7BE
:1011500008958F929F92AF92BF92CF92DF92EF92BB
:10116000FF924B015C010E9484086B017C010E948C
:1011700084086C197D098E099F09683E73408105BA
:101180009105A8F321E0821A9108A108B10888EE20
:10119000C80E83E0D81EE11CF11C81149104A10447
:1011A000B10429F7FF90EF90DF90CF90BF90AF9000
:1011B0009F908F9008952FB7F8946091FC027091E2
:1011C000FD028091FE029091FF022FBF0895409191
:1011D000D4025091D5022091D2023091D30242170D
:1011E0005307B4F49091E8009570E1F39091E80012
:1011F00092FD19C08093F1008091D4029091D502A4
:1012000001968F739927892B19F48EEF8093E8004C
:101210008091D4029091D50201969093D50280934B
:10122000D40281E0089580E00895EF92FF920F9339
:101230001F93CF93DF93F82E192FE62E042F81E012
:10124000860F880F0E94E70883E00E94E708CF2DF1
:10125000D12FEC0EFD2EF11CCE15DF05B9F007FFE6
:1012600013C0FE0184910E94E708182F80E00E94BD
:10127000E708812321968111EFCFDF91CF911F9154
:101280000F91FF90EF9008958881EDCF81E0F5CF29
:10129000DF92EF92FF920F931F93CF93DF93D82E9D
:1012A0008A01EB017B01E40EF51ECE15DF0559F036
:1012B000D7FE12C0FE0184910E94E7082196811199
:1012C000F4CF0FEF1FEFC801DF91CF911F910F9166
:1012D000FF90EF90DF9008958881EECF615030F05D
:1012E0002091F100FC0120830196F8CF289884E634
:1012F0008093730308958091CA0281110DC082E02A
:101300008093C60284E08093C7021092C9021092B3
:10131000C80281E08093CA0286EC92E008950F93A0
:101320001F93CF93DF931F92CDB7DEB782E08983FF
:1013300042E450E06FE276E080E80E9448090E94B3
:101340007B09DC0112960D911C910115110589F0A4
:10135000D801ED91FC910280F381E02DBE016F5F19
:101360007F4FC801099597FD04C0F80100851185DC
:10137000ECCF89810F90DF91CF911F910F9108954C
:101380008F929F92AF92BF92CF92DF92EF92FF9295
:101390000F931F93CF93DF936C017B018A018091A0
:1013A0001201882309F45CC080917403882309F436
:1013B00057C08091D80280FF05C08091E000826014
:1013C0008093E000E801B12C8AEFA82E93E0892EEB
:1013D0002AE3922E209711F4BB20D9F10E94D10765
:1013E00081110AC0AA94AA20D9F161E070E080E0DE
:1013F00090E00E94A908EECF8C171D0611F00CF0AA
:101400008C2F9FB7F8948092E9002091E80025FD89
:1014100002C09FBFDFCF282F30E0C21BD30BF701E4
:10142000815020F041914093F100FACFE20EF31E7B
:10143000BB2021F09092E800B12CEBCF8091E80026
:1014400085FDE7CF9092E800BB24B394209709F381
:10145000F3CF5D9884E68093D702101611063CF016
:1014600081E090E0F6019383828310E000E0C80100
:10147000DF91CF911F910F91FF90EF90DF90CF9070
:10148000BF90AF909F908F900895CF93DF931F925E
:10149000CDB7DEB76983DC01ED91FC910280F38169
:1014A000E02D41E050E0BE016F5F7F4F09950F9046
:1014B000DF91CF9108950F931F93CF93DF938C010A
:1014C000D0E0C0E0F801EC0FFD1F6491662341F00D
:1014D00085E793E00E94450A892B11F02196F2CF0F
:1014E000CE01DF91CF911F910F9108950E94D107F6
:1014F00090E00895CF93DF931F92CDB7DEB7FC0144
:101500008485958597FD08C02FEF3FEF35872487A9
:101510000F90DF91CF910895CE0101960E949A0716
:10152000019719F4898190E0F3CF8FEF9FEFF0CF0F
:101530000F931F93CF93DF931F92CDB7DEB78C012C
:10154000FC018485958597FF0BC0CE0101960E9412
:101550009A07019771F4898190E0F8019587848753
:10156000F801848595850F90DF91CF911F910F91A0
:1015700008958FEF9FEFF1CFFC018485958597FD4E
:101580000BC09FB7F89482E08093E9008091F2004D
:101590009FBF90E0019608959FB7F89482E08093F2
:1015A000E9008091F2009FBF90E008958091470389
:1015B000811102C0809146038093EC0208958091CE
:1015C0000403882309F44CC140910503442309F422
:1015D00047C190910601992309F437C160916303D3
:1015E000709164032091590330915A036217730775
:1015F00009F430C18FEF6217730708F481E020917E
:10160000010130E0281731F01816D4F55C9880936A
:101610000101342F680F711D87FD7A957093640363
:101620006093630380E1923028F1609165037091CB
:101630006603E0915B03F0915C036E177F0721F175
:101640002FEF6E177F0708F421E050910201521727
:1016500031F01216BCF4469820930201342F8062B8
:10166000620F711D27FD7A95709366036093650381
:10167000923069F490E020E0332309F4B1C0AAC0AD
:101680005C9AC5CF469AE8CF923009F4D2C06091F7
:10169000670370916803E0915D03F0915E036E173C
:1016A0007F0709F4C3C02FEF6E177F0708F421E00E
:1016B00050910301521739F012160CF0B5C05F9823
:1016C00020930301342F8064620F711D27FD7A95EA
:1016D0007093680360936703933061F260916903CC
:1016E00070916A03E0915F03F09160036E177F07CA
:1016F00009F4A3C02FEF6E177F0708F421E0509183
:101700000401521739F012160CF095C07698209308
:101710000401342F8068620F711D27FD7A95709344
:101720006A0360936903943009F4A4CF60916B035A
:1017300070916C03E0916103F091620320E06E17F9
:101740007F07C9F02FEF6E177F0708F421E0509153
:101750000501521739F012160CF073C058982093F7
:101760000501342F620F711D27FD7A9570936C036C
:1017700060936B0320E4953009F46AC060916D03B7
:1017800070916E03E0916303F09164036E177F071D
:1017900009F45EC09FEF6E177F0708F491E0509147
:1017A0000601591739F019160CF04DC08C9890931A
:1017B0000601342F690F711D97FD7A9570936E03A2
:1017C00060936D0390E2492F482B422B09F448C0E7
:1017D000332321F0E3E0F0E03197F1F7882319F0AB
:1017E00035B1382B35B9222319F03BB1322B3BB937
:1017F000992319F031B3392B31BBE3E0F0E0319795
:10180000F1F7882321F035B18095832385B9222310
:1018100021F08BB1209528232BB9992309F181B3AD
:101820009095982391BB08955F9A4ACF933009F021
:1018300055CF20E00DC0769A6ACF943009F076CF6C
:10184000F8CF589A8CCF8C9AB2CF20E080E030E06D
:1018500090E0B9CF30E080E0923008F0E6CE089515
:10186000089580912601811104C084E080930601CF
:10187000089585E0FBCFE7E5F3E010821182E8E40C
:10188000F3E014821582EDE6F3E014821582E3E6BC
:10189000F3E08FEF9FEF9187808793878287E9E559
:1018A000F3E09187808793878287E3E5F3E01182F5
:1018B000108213821282EFE4F3E01182108213820D
:1018C0001282EDE4F3E01082118208953F924F926C
:1018D0005F926F927F928F929F92AF92BF92CF92C0
:1018E000DF92EF92FF920F931F93CF93DF9300D07D
:1018F00000D000D0CDB7DEB7182F362E29013A011F
:1019000025E0811101C024E030E06901CC0CDD1C30
:10191000DE82CD82F601E75AFC4F20813181F6014B
:10192000ED59FC4F8081918128173907C9F080E07B
:1019300026960FB6F894DEBF0FBECDBFDF91CF91D4
:101940001F910F91FF90EF90DF90CF90BF90AF90DD
:101950009F908F907F906F905F904F903F900895F1
:101960000E9484084B015C0141145104610471041C
:1019700041F4409014015090150160901601709050
:101980001701412F50E08A01000F111F000F111F96
:10199000F801E254FD4F80819181A281B3817501EC
:1019A0006401C81AD90AEA0AFB0AC414D504E60479
:1019B000F70408F4BCCFED81FE81ED59FC4FC080E7
:1019C000D180E09113016E2E712C9301A32D032C75
:1019D000000CBB0B0E94B72DDC01CB018C0D9D1DB3
:1019E000A11DB11D009721E0A207B10524F08FEFE2
:1019F0009FEFA0E0B0E0B7FF03C080E090E0DC0123
:101A00006D817E81675A7C4FFB0191838083D80171
:101A1000A254BD4F8D929D92AD92BC921397FFEF51
:101A20003F1213C0440F551FDA01AD5ABC4F8D91C0
:101A30009C9111979301209530952817390728F02C
:101A4000F301E80FF91FED93FC9381E071CF85302E
:101A500031F486B18095881F8827881F08958630C5
:101A600039F48FB186FB882780F991E089270895A2
:101A700080E00895DF92EF92FF920F931F93CF9330
:101A8000DF93D82E042F122F6230710540F0CB0166
:101A9000880F991F880F991F05970197F1F7D0E0DC
:101AA000C0E083ECE82EF12C8D2D0E94270D8111D2
:101AB000CF5FC7010197F1F7DF5F0D13F5CF81E02D
:101AC000C11708F480E0DF91CF911F910F91FF9033
:101AD000EF90DF90089540911401509115016091AD
:101AE000160170911701493C51056105710530F4EB
:101AF00022E042E070E060E00C943A0D453F514036
:101B00006105710518F422E043E0F4CF23E045E0DD
:101B1000F1CF0895CF93DF93EC0188819981FC0187
:101B2000009721F4DF91CF910895FA01CF01208130
:101B3000AF014F5F5F4F2032C1F32930B1F3211164
:101B400005C0F983E88390E080E0ECCFDF012191CC
:101B5000222331F0203211F02930C1F71C92DF012D
:101B6000B983A883DFCF1F93CF93DF93EB01FC01F1
:101B7000DF018D918032F1F08930E1F080E020E0EA
:101B800030E0A901119190ED910F9A30A8F4AAE0EC
:101B9000B0E00E94512D212F110F330B205331093A
:101BA000032E000C440B550B260F371F481F591FDF
:101BB00081E0E8CFFD01DCCF882321F02883398341
:101BC0004A835B83DF91CF911F9108950F931F93F9
:101BD000CF93DF9300D000D0CDB7DEB7009709F1E7
:101BE0008B0119821A821B821C82BE016F5F7F4F9C
:101BF0000E94B30D882361F049815A816B817C81F9
:101C00004F3F51056105710509F058F4F801408313
:101C10000F900F900F900F90DF91CF911F910F9128
:101C2000089580E0F5CFDC01FB012D9191912223F5
:101C300031F0992311F02917C1F380E003C081E04E
:101C40009111FBCF0895FC0101900020E9F7319735
:101C5000AF01481B590BBC0185E793E00C94C00908
:101C60008F929F92AF92BF920F931F93CF93DF9368
:101C7000CDB7DEB7A1970FB6F894DEBF0FBECDBFCC
:101C800019A2423008F44AE08E010F5D1F4F842EE6
:101C9000912CB12CA12CA50194010E945C2DE62F62
:101CA000B901CA01EA30F4F4E05DD801EE938D0188
:101CB000232B242B252B79F790E080E0109719F047
:101CC000CD010E94230EA1960FB6F894DEBF0FBE81
:101CD000CDBFDF91CF911F910F91BF90AF909F909B
:101CE0008F900895E95CE1CFCF93DF930E94230E9C
:101CF000EC018AE691E00E94230E8C0F9D1FDF917C
:101D0000CF910895CF93DF930E945B0AEC018AE69E
:101D100091E00E94230E8C0F9D1FDF91CF910895BB
:101D20000C94820EAF92BF92CF92DF92EF92FF920D
:101D30000F931F93CF93DF93CDB7DEB762970FB6A4
:101D4000F894DEBF0FBECDBF5C01CB019E01235FC7
:101D50003F4F7901890120E03AE0C32ED12C009752
:101D6000A9F480E38D8721E0822F90E09701280F6E
:101D7000391FDE0111968D01E216F30699F0F90183
:101D800042919F014D93F8CF253071F32F5FB6013B
:101D90000E949D2D805DD8018D938D01CB01009710
:101DA00099F7E2CF800F911FDC011C92C5010E94C0
:101DB000900EC8010E94740E62960FB6F894DEBFB2
:101DC0000FBECDBFDF91CF911F910F91FF90EF908C
:101DD000DF90CF90BF90AF900895CF93DF93EC0149
:101DE0008DE094E00E945B0ACE01DF91CF910C94CC
:101DF000820EBC0190E080E04AE00C94300EFF922D
:101E00000F931F93CF93DF93EC018B01FB01F080C5
:101E10000E943B2DF81621F06F2DCE010E94432D1C
:101E2000F801F1802196CE010E943B2DF81621F099
:101E30006F2DCE010E94432DC801DF91CF911F91DC
:101E40000F91FF9008950F931F93CF93DF9300D0CE
:101E5000CDB7DEB78C010E943B2D8983C801019666
:101E60000E943B2D8A8389819A810F900F90DF9188
:101E7000CF911F910F910895CF93DF9380E490E06D
:101E80000E94230F21E0892B09F420E020932601F2
:101E900084E490E00E94230F21E0892B09F420E0E4
:101EA0002093270180E291E00E94230FEC01C2976A
:101EB0008F3D964210F0CCE2D1E0BE017695679559
:101EC00090E080E0605C7D4B804F9F4F9E0150E032
:101ED00040E00E945C2DC83283E2D80708F5C03785
:101EE00087E1D807F8F4CC3A8DE0D807E8F4C83099
:101EF00087E0D807D8F4C03283E0D807C8F4CC32E2
:101F0000D140C0F082E0209314013093150140933A
:101F100016015093170180931301DF91CF9108951B
:101F200080E1F1CF8CE0EFCF88E0EDCF85E0EBCF23
:101F300083E0E9CF81E0E7CFEF92FF920F931F9309
:101F4000CF93DF93CDB7DEB7A6970FB6F894DEBF79
:101F50000FBECDBFF82EE62E10E000E0C8010E94B3
:101F60003B2D8F3F21F06FEFC8010E94432D0F5F83
:101F70001F4F011584E0180789F7E8E1F1E046E317
:101F800053E020E433E00DE613E06FEF7FEF81E0F4
:101F900061937193DA011D921D92AD01D9018D9368
:101FA0009D01D8011D928D01B1E0E032FB0781F760
:101FB000109221011092200110923F0310923E03D3
:101FC00010924403109271038093220180932301A5
:101FD0008093240180932501F092260180911801BD
:101FE0009091190198878F83BE01695F7F4F90E0C0
:101FF00080E00E94FF0E80911A0190911B019A8748
:102000008987BE01675F7F4F88E090E00E94FF0EE6
:1020100080911C0190911D019C878B87BE01655F9B
:102020007F4F80E190E00E94FF0E80911E01909111
:102030001F019E878D87BE01635F7F4F88E190E01F
:102040000E94FF0E8091360390913703988B8F8703
:10205000BE01615F7F4F84E090E00E94FF0E80919F
:102060003803909139039A8B898BBE016F5E7F4F45
:102070008CE090E00E94FF0E80913A0390913B0328
:102080009C8B8B8BBE016D5E7F4F84E190E00E9444
:10209000FF0E80913C0390913D039E8B8D8BBE0182
:1020A0006B5E7F4F8CE190E00E94FF0E188E1F8ABE
:1020B000BE01695E7F4F80E290E00E94FF0E1A8EA3
:1020C000198EBE01675E7F4F84E290E00E94FF0E92
:1020D0001C8E1B8EBE01655E7F4F88E290E00E94E1
:1020E000FF0E1E8E1D8EBE01635E7F4F8CE290E060
:1020F0000E94FF0E01E010E018A30F8FBE01615E89
:102100007F4F80E390E00E94FF0E1AA309A3BE0157
:102110006F5D7F4F84E390E00E94FF0E1CA30BA332
:10212000BE016D5D7F4F88E390E00E94FF0E1EA30D
:102130000DA3BE016B5D7F4F8CE390E00E94FF0E0C
:102140008F2D90E09E838D83BE016B5F7F4F80E477
:1021500090E00E94FF0EF12CFA82E982BE016F5FCF
:102160007F4F84E490E00E94FF0E82E090E09C8329
:102170008B83BE016D5F7F4F88E490E00E94FF0E6D
:102180008CE494E00E94900EA6960FB6F894DEBF01
:102190000FBECDBFDF91CF911F910F91FF90EF90B8
:1021A0000895CF93DF93EC016DE671E00E94BE2DA0
:1021B000892B31F461E087E1DF91CF910C94E20744
:1021C00061E771E0CE010E94BE2D892B99F36AE789
:1021D00071E0CE010E94BE2D892B61F360E0EBCF50
:1021E000109272038091710391E0892720E030E81A
:1021F00030936C0320936B0330936E0320936D0335
:10220000309362032093610330936403209363034C
:102210008093570310925803109254031092530363
:1022200010925603109255031092500310924F03D0
:10223000109252031092510310924D0310924E03CC
:10224000882341F090934C031092710381E891E050
:102250000C94D11008958091050381110BC08091D9
:10226000EC02882321F088E891E00C94D1108DE8ED
:1022700091E0FBCF089561E082E10E94E2071092B5
:1022800005038091EC02811104C088E196E00E9470
:10229000900E0E94D60A0C942B11CF93DF93EC0181
:1022A0000E943B0C109272030E943B110E94D60ABE
:1022B0000E942B11CE01DF91CF910C94820E60E031
:1022C00082E10E94E20781E0809305038091EC02A5
:1022D000811104C082E096E00E94900E8DE691E0AC
:1022E0000C94D1102F923F924F925F926F927F92F7
:1022F0008F929F92AF92BF92CF92DF92EF92FF9216
:102300000F931F93CF93DF93D7E58D2ED3E09D2EB0
:1023100010E000E083E0482E512C612C712CA02E9F
:10232000D4018D914D0181508430C8F48091EC022C
:10233000811102C00E943B11B5E03B2EC6E0BC2ECD
:10234000A11004C0F4E03F2EA5E0BA2EF401D29112
:102350007F01D23009F460C0D8F4D13041F10130AE
:10236000110599F4DF91CF911F910F91FF90EF909C
:10237000DF90CF90BF90AF909F908F907F906F90A5
:102380005F904F903F902F90089501E010E0C7CFED
:10239000D33009F46AC0D43011F78B2D0E946B0D35
:1023A000882309F4F6C020E030E0A9015CC0F80100
:1023B000EE0FFF1FED5AFC4F118210828B2D0E94F1
:1023C0006B0D232D30E0220F331FF801E35BFC4F30
:1023D000D901AD59BC4F882379F040E050E81196FF
:1023E0005C934E93E901C75ADC4F598348831082AE
:1023F000E2E0D701EC93B3CF8FEF9FEF11969C9360
:102400008E93275A3C4FD90111969C938E93D0837B
:1024100023E0F7012083A3CF8B2D0E946B0D811148
:102420000EC081E0F801E35BFC4F8083F801EE0F02
:10243000FF1FED5AFC4F11821082E3E0DACF2091AA
:1024400014013091150140911601509117012D3260
:10245000F1E03F074105510530F0CA01B901A30180
:1024600092010E945C2D61E090C0C32CD12CF80138
:10247000E35BFC4F80811801220C331CE601CC0F7A
:10248000DD1F8823A1F08B2D0E946B0D882379F02E
:10249000CA5CDC4F88819981009711F484E190E057
:1024A000F101E15BFC4F9183808324E0B2CF910185
:1024B0002D5A3C4F1901D9018D919C910196C1F57E
:1024C000FE01ED59FC4F80819181C75ADC4F998301
:1024D0008883F601E85BFC4F1082E601C359DC4FAC
:1024E0001882E6E0D701EC930E942B1187EF95E06C
:1024F0000E945B0A8B2D90E00E94F90E8EEC95E015
:102500000E945B0AD1018D919C910E94F90E85EC8D
:1025100095E00E945B0A8FEF9FEF0E94F90E83EC1B
:1025200095E00E94820E8DE495E00E94900E17CFF8
:10253000FE01ED59FC4F80819181892B11F580813D
:102540009181C75ADC4F99838883F601E85BFC4F81
:102550001082E601C359DC4F188226E0F701208380
:102560000E942B1182E495E00E945B0A8B2D90E083
:102570000E94F90E85E095E00E94820E83E894E0C7
:10258000D4CF20E030E0A9016FEF8A2D0E94660CC5
:10259000E6CEC801880F991FAC01415B5C4F6A0110
:1025A000DA01CD91DC912097B9F020E030E0A9016B
:1025B00061E08A2D0E94660C882309F4D0CE8091B8
:1025C000130190E0C817D90708F4CE01C81BD90B36
:1025D000F601D183C083C3CEC32DD0E0CE01880FD6
:1025E000991F9C01275A3C4F1901D9012D913C910B
:1025F000FC01ED59FC4F6F0180819181281739074B
:1026000009F0ADCE8B2D0E946B0D8111CCCED60181
:1026100011961C921E92F10111821082FE01E35963
:10262000FC4F81E08083C85BDC4F1882D7011C928D
:102630008DE691E00E94D11092CE2F923F924F9260
:102640005F926F927F928F929F92AF92BF92CF9242
:10265000DF92EF92FF920F931F93CF93DF93CDB74B
:10266000DEB7C755D1090FB6F894DEBF0FBECDBF98
:102670004FE250E066E073E0CE0101960E94C72D64
:1026800018AAFE0131962E2F9F2FDF018D918032E7
:1026900089F0893079F0882309F447C08191882333
:1026A00059F03FE9380F3A3108F48052DF011197B1
:1026B0008C93F4CFFD01E7CF2DAF9EAFCE01CD9629
:1026C0000E948A0D8C01009781F1DC018C91853488
:1026D00009F058C011968C91882329F090ED980F3D
:1026E0009A3008F04FC019AA811139C0CE01CD9699
:1026F0000E948A0D009729F489EB9EE00E94ED0E5E
:1027000014C0BE016F5C7F4F0E94E60D8823A1F3C9
:1027100089A98150853080F789A90E94270D8823D7
:1027200071F18DEA9EE00E94820EC95ADF4F0FB60A
:10273000F894DEBF0FBECDBFDF91CF911F910F91F7
:10274000FF90EF90DF90CF90BF90AF909F908F90D1
:102750007F906F905F904F903F902F900895BE01B3
:102760006F5C7F4FC80101960E94E60D882321F01F
:1027700089A98150853080F28FEA9EE0BFCF8BEA35
:102780009EE0D1CF63E971E0C8010E94130E811170
:1027900021C06CE971E0C8010E94130E81111AC0BA
:1027A00062EA71E0C8010E94130E81111DC06DEA3A
:1027B00071E0C8010E94130E882301F181E080932B
:1027C0004603809345030E94D60A0E942B1180E89D
:1027D0009EE0A9CF81E0809347030E94D60A0E9421
:1027E0002B118BE99EE09FCF81E0809347030E94ED
:1027F000D60A8CE89EE00E944D1197CF6AEB71E0FB
:10280000C8010E94130E882309F473C081E08093ED
:10281000460382E0809345030E94D60A0E94D60AAE
:10282000809163039091640390935A0380935903BA
:10283000809165039091660390935C0380935B03A2
:10284000809167039091680390935E0380935D038A
:102850008091690390916A039093600380935F0372
:1028600080916B0390916C0390936203809361035A
:102870000E945F1180912601882399F08091710355
:10288000811114C085E89CE00E94820E0E94F01025
:1028900080914C038823F9F00E9472110E94DF0A94
:1028A000F7CF8AEC9CE00E94820E12C089EA9CE07D
:1028B0000E94820E85E99CE00E945B0A80913E03A3
:1028C00090913F030E94F90E8AE691E00E94230E48
:1028D0008BEE9CE028CF80917103882339F08CE740
:1028E0009CE00E94820E88E69CE0E6CF87E19CE0B7
:1028F000DACF63EC71E0C8010E94130E882349F01F
:1029000010924603109245030E94D60A84E79EE087
:1029100072CF6EEC71E0C8010E94130E882359F04B
:1029200010924603109245030E94D60A0E942B1172
:102930008BE69EE0F8CE66ED71E0C8010E94130EB2
:10294000811119C06EED71E0C8010E94130E811152
:1029500012C069EE71E0C8010E94130E811116C009
:1029600065EA71E0C8010E94130E882309F44AC089
:1029700080E09CE040CF10924703109245030E94F4
:10298000D60A0E942B1188E59EE0CDCE0E94D60A81
:10299000809163039091640390935A038093590349
:1029A000809165039091660390935C0380935B0331
:1029B000809167039091680390935E0380935D0319
:1029C0008091690390916A039093600380935F0301
:1029D00080916B0390916C039093620380936103E9
:1029E0000E945F1180912601882349F08091710334
:1029F000811105C08091440381110E94F0108CE088
:102A00009CE091CE6CE472E0C8010E94130E882312
:102A100009F49EC08DEE9BE00E945B0A4AE061E0F3
:102A200070E080E090E00E94300E85EE9BE00E9416
:102A30005B0A80910503882309F488C081E30E9422
:102A4000B7218EED9BE00E945B0A2091140130912A
:102A50001501409116015091170190E080E0211579
:102A6000310541055105B9F0CA01B901969587951F
:102A700077956795605C7D4B804F9F4F0E945C2DE2
:102A800021153105B1E04B07510520F02FEF3FEF45
:102A900040E050E0C9010E94F90E83ED9BE00E94E6
:102AA0005B0AA2E2AA2EA1E0BA2EB0E4CB2EB3E0DC
:102AB000DB2E18E1E12E11E0F12E06E313E0412CAC
:102AC000512C3201439480ED9BE00E945B0A4AE066
:102AD000C301B2010E94300E8DE30E94B721F501BF
:102AE00061915F0170E090E080E04AE00E94300E6A
:102AF0008CE20E94B721D6016D916D0170E090E0EB
:102B000080E04AE00E94300E8CE20E94B721F7017B
:102B1000819191917F010E94F90E8CE20E94B72170
:102B2000D8018D919D918D010E94F90EBFEF4B1A36
:102B30005B0A6B0A7B0AE6E04E16510461047104DD
:102B400011F68AE691E00E94230EEFCD80E377CF65
:102B50006AE572E0C8010E94130E882309F459C186
:102B6000CE01CD960E948A0D7C01CE01CD960E94A9
:102B70008A0D6C01CE01CD960E948A0D8C01E11464
:102B8000F10419F0C114D10419F48FE49EE0B6CD1C
:102B900019AA1AAA1BAA1CAABE016F5C7F4FC60104
:102BA0000E94B30D811103C085E49EE0A7CD89A9E1
:102BB0009AA9ABA9BCA90097A140B10540F08FEF3D
:102BC0009FEFA0E0B0E089AB9AABABABBCAB1FAE64
:102BD0000115110579F0BE01615C7F4FC8010E94AB
:102BE000E60D882321F08FAD8150853018F08BE3FE
:102BF0009EE084CD60EF71E0C7010E94130E882330
:102C000009F47FC00E9436230E94C40765E070E08B
:102C100080E090E00E94A908C9A8DAA8EBA8FCA867
:102C20003C2D2D2D9E2D8F2D41E1C41647E2D4065B
:102C3000E104F10420F030E127E290E080E0832E0F
:102C4000922EA92EB82E82E388169104A104B10415
:102C500028F4F2E38F2E912CA12CB12CC501B401E4
:102C60009695879577956795605C7D4B804F9F4FD4
:102C7000A50194010E945C2D80E198E2C91693E2BF
:102C8000D906E104F10448F58CE0A0E7CA16A7E1F3
:102C9000DA06E104F10408F588E0BCEACB16BDE0F1
:102CA000DB06E104F104C8F485E0E8E0CE16E7E0D5
:102CB000DE06E104F10488F483E0F0E2CF16F3E0ED
:102CC000DF06E104F10448F48CE2C81681E0D8067E
:102CD000E104F10408F098C681E0209314013093D8
:102CE00015014093160150931701809313019CAE78
:102CF0008BAEBE01655C7F4F80E291E00E94FF0ECB
:102D000014CD1FAD8CE29EE0112309F4F7CC0FEF38
:102D1000010F60EB71E0C7010E94130E882319F1C7
:102D200021E089A99AA9ABA9BCA9892B8A2B8B2B55
:102D300009F420E0E02FF0E0DF01AE5DBE4F2C9300
:102D4000EE0FFF1FE05EF14F8591949130E03AAFB6
:102D500029AFBE01675C7F4F0E94FF0E0E94310CBD
:102D60000E943623E2CC60E872E0C7010E94130E95
:102D7000882331F110E029A93AA9F801EE0FFF1FCD
:102D8000DF01A85EBE4F7D012D933C93EC5EF14FB9
:102D90008591949138AF2FABBE01695C7F4F0E9443
:102DA000FF0E8FAD0E949523F801E05CFC4F81E09F
:102DB000D7012D913C91232B09F480E08083D0CF63
:102DC00069EF71E0C7010E94130E8823F9F082E0D9
:102DD0009EE0153008F492CC29A93AA9E02FF0E042
:102DE000EE0FFF1FDF01AA5CBC4F2D933C93EA500E
:102DF000F24F859194913EAB2DABBE016B5C7F4F42
:102E00000E94FF0E8FAD0E949523AACF8AEE9DE00F
:102E100075CC60E072E0C8010E94130E882309F4AB
:102E2000EFC5CE01CD960E948A0D8C01CE01CD96C4
:102E30000E948A0D0115110519F481EE9DE05ECC0A
:102E40001DAA009769F0BE016B5C7F4F0E94E60DE2
:102E5000882319F08DA9863018F087ED9DE04ECCBF
:102E600063E072E0C8010E94130E882331F00E94D3
:102E70003B0C81E08093720373CF6AE072E0C8017B
:102E80000E94130EF82E882381F18DA9853011F050
:102E900081110BC085E00E94692384ED9DE00E94B2
:102EA000900E85E00E946726F82E8DA9863011F0DD
:102EB00081110DC086E00E94692381ED9DE00E9492
:102EC000900E86E00E946726811101C0F12C8DA929
:102ED000882331F08550823018F086EC9DE00ECCCE
:102EE000F1103ECF89EB9DE009CC65E172E0C801AD
:102EF0000E94130E882379F08DA99BEF980F9230D2
:102F000018F08EEA9DE0FACB0E94CD21811128CFE6
:102F100082EA9DE0F3CB63E272E0C8010E94130EE7
:102F2000882379F08DA99BEF980F923018F087E9EC
:102F30009DE0E4CB0E94CD21811112CF8BE89DE072
:102F4000DDCB61E372E0C8010E94130E882399F083
:102F50000E945F1180912601882309F401CF80919E
:102F600071038111FDCE80914403882309F4F8CECA
:102F70000E94F010F5CE6AE372E0C8010E94130EC1
:102F8000A82E882339F00E943B0C109272030E94F5
:102F90003B11E6CE64E472E0C8010E94130E882360
:102FA00009F486C0CE01CD960E948A0D8C01CE0117
:102FB000CD960E948A0D7C010115110511F0892B17
:102FC00019F482E89DE09ACB19AABE016F5C7F4F8D
:102FD000C8010E94E60DB82E882309F466C009A92D
:102FE0000150053008F061C0F7018081BFEFEB1A96
:102FF000FB0A8032C9F38930B9F38B3231F1C12C2D
:10300000D12C7601C3948D3229F4CC24CA94DC2CC3
:103010007601319620E030E0A901119180ED810F19
:103020008A30C0F4AAE0B0E00E94512D212F110F88
:10303000330B20533109032E000C440B550B260F84
:10304000371F481F591FAB2CE8CFC12CD12C76015C
:10305000C394DFCFAA2031F1E02FF0E0EE0FFF1F85
:10306000DF01AD59BC4F0D911C91C701B6010E9403
:103070008D2DDC01CB01800F911FA11DB11D00978B
:1030800021E0A207B10524F08FEF9FEFA0E0B0E0B0
:10309000B7FF03C080E090E0DC01E75AFC4F91836A
:1030A00080835ECE8EE69DE029CB88E79DE026CB2F
:1030B00069E472E0C8010E94130E8823E1F18DA932
:1030C0008150853008F031CBCE01CD960E948A0D1B
:1030D00019AA1AAA1BAA1CAA009709F426CBBE019A
:1030E0006F5C7F4F0E94B30D882309F41ECB89A922
:1030F0009AA9ABA9BCA90097A140B10540F08FEFF8
:103100009FEFA0E0B0E089AB9AABABABBCAB8DA9B5
:10311000815090E0FC01EE5DFE4F2081222309F4F6
:1031200004CB29A93AA9880F991FFC01E75AFC4F43
:1031300031832083FACA60E572E0C8010E94130E51
:10314000882339F060912701809126010E949C0F0D
:1031500007CE6EE572E0C8010E94130E81112DC0EA
:1031600069E672E0C8010E94130E811126C068E76B
:1031700072E0C8010E94130E8111A5C064E872E0DC
:10318000C8010E94130E8111E1C061E972E0C8011B
:103190000E94130E8111DAC069E972E0C8010E9431
:1031A000130E8111D3C060EA72E0C8010E94130EB1
:1031B0008111F9C182E09DE0A1CA8DA99BEF980F12
:1031C000923018F083E69DE099CA0E94692381E657
:1031D0009DE00E94900E6DA970E080E69DE00E9447
:1031E00096221DA98BEF810F823038F084EA9BE094
:1031F0000E94900E83E59DE081CA109272036FE8F1
:103200007BE0812F0E941D230E943C0F0E94310C05
:1032100049E75BE0612F81E00E94ED22812F0E944F
:1032200067266DE57BE0882399F066E970E080E031
:1032300090E00E94A90847E45BE0612F82E00E94D1
:10324000ED22812F0E94D923811106C06BE27BE021
:10325000812F0E941D23CECF8091720363E27BE019
:103260008111F6CF8FEF810F90E0DC01A05CBC4FA5
:10327000880F991FFC01E85EFE4F81E020813181BB
:10328000232B09F480E08C93E12FF0E0E459FC4F0C
:1032900081E0808346E05BE0612F83E00E94ED22C5
:1032A000812F0E9495230E943B118DE891E00E949E
:1032B000D11081EC9AE00E94900E6DEA7AE0812FA5
:1032C0000E941D234DCD8DA99BEF980F923018F0D1
:1032D00088E49DE013CA0E94692386E49DE00E9471
:1032E000900E6DA970E085E49DE00E9496228DA964
:1032F0009BEF980F923038F08BE89AE00E94900E86
:1033000088E39DE0FBC90E94D9238823C9F38DA9D6
:103310002FEF280F30E0A901440F551FFA01ED5996
:10332000FC4F60817181485E5E4FDA016D937C9342
:10333000F901E05CFC4F91E0672B09F490E0908389
:1033400023593C4F91E0F90190835DCD8DA99BEF0E
:10335000980F923018F08DE29DE0D0C90E94692349
:103360008BE29DE00E94900E6DA970E08AE29DE0E4
:103370000E949622DDA88BEF8D0D823028F083E627
:103380009AE00E94900E20C01092720322242A9488
:103390002D0C312CC10183599C4F22969FAF8EAFCB
:1033A0002297DC018C91811112C063E37AE08D2DAC
:1033B0000E941D238D2D0E946726811108C067E1A0
:1033C0007AE08D2D0E941D238CE19DE097C9220C8F
:1033D000331CF101E85EFE4F80819181892B19F445
:1033E00085EF99E0CECF8D2D0E947922F101EA5C24
:1033F000FC4F00811181080F191F169507958090C9
:10340000140190901501A0901601B0901701B8E733
:103410008B169104A104B10428F428E7822E912C84
:10342000A12CB12CF09013010E9484082B013C01C7
:103430000E945F1181E891E00E94D110F101ED59E5
:10344000FC4F2696FFAFEEAF26978F2D90E0B0E0B1
:10345000A0E064968CAF9DAFAEAFBFAF6497C801DC
:10346000B0E0A0E02C968CAF9DAFAEAFBFAF2C9775
:10347000D101A75ABC4F2E96BFAFAEAF2E97EF2DFE
:10348000F0E06096FFAFEEAF60972696AEADBFADB1
:1034900026978D919C910817190709F46FC00E9417
:1034A000F421882371F06DEE79E08D2D0E941D23AB
:1034B0000E9446230E943B1181E891E00E94D110B6
:1034C00083CF0E948408641975098609970997FDBE
:1034D00023C0480C591C6A1C7B1C2696EEADFFAD20
:1034E0002697E080F1800E151F05C8F40E945D2329
:1034F00060968EAD9FAD60978E159F0528F4E81AF3
:10350000F90AE016F10608F478012E96AEADBFADCB
:103510002E971196FC92EE920E94DF0AB6CF0E947F
:10352000512364964CAD5DAD6EAD7FAD64974E0D8D
:103530005F1D611D711D2C968CAD9DADAEADBFADF7
:103540002C9768968CAF9DAFAEAFBFAF689748170A
:1035500059076A077B0730F468964CAF5DAF6EAFD2
:103560007FAF68976696EEADFFAD66972E96AEADCF
:10357000BFAD2E971196FC93EE93CECFF101E75A93
:10358000FC4F1183008381E02296AEADBFAD229740
:103590008C930E943A238DE891E00E94D1106BED4C
:1035A00079E08D2D8DCE8DA99BEF980F923018F07C
:1035B00081E19DE0A3C80E9469231DA910927100BA
:1035C00081E08093040322242A94210E6AEB79E09F
:1035D000812F0E941D23812F0E94672681110AC01E
:1035E0006FE979E0812F0E941D230E9446230E94EB
:1035F000BC21B6CB312C220C331CF101EA5CFC4F10
:1036000080809180812F0E9479225C018091140139
:1036100090911501A0911601B091170124968CAFDD
:103620009DAFAEAFBFAF249788379105A105B10517
:1036300050F488E790E0A0E0B0E024968CAF9DAF16
:10364000AEAFBFAF2497009113010E9484082B01F5
:103650003C016DE879E0812F0E941D238CE699E002
:103660000E94900E0E945F1145E559E0612F81E0B4
:103670000E94ED228EE399E00E94900E0E945D234D
:10368000D101AD59BC4F7D01C02ED12CF101E75ABB
:10369000FC4F2696FFAFEEAF2697D7018D919C91F8
:1036A0008816990608F04FC085E793E00E94BC0A8F
:1036B000892BD9F085E793E00E94980A8197A9F4B5
:1036C00085E793E00E947A0A81E08093720363E2C7
:1036D00079E0812F0E941D230E9446230E943B1106
:1036E00081E891E00E94D11082CF0E948408641981
:1036F00075098609970997FD1CC024968CAD9DAD70
:10370000AEADBFAD2497480E591E6A1E7B1ED70171
:103710008D919C91C816D90628F48C199D0988159D
:10372000990508F4C4012696EEADFFAD2697918366
:1037300080830E94DF0A80917203882309F4ADCF51
:1037400068E079E0C6CF6CE271E080E090E00E9432
:10375000A90841EF58E0612F82E00E94ED228AED36
:1037600098E00E94900E0E945123C1018D599C4FF8
:1037700026969FAF8EAF2697802F90E0B0E0A0E016
:103780002C968CAF9DAFAEAFBFAF2C976501F12CDF
:10379000E12CD101A75ABC4F2E96BFAFAEAF2E97EA
:1037A0002696EEADFFAD2697808191818A159B0507
:1037B00008F04FC085E793E00E94BC0A892B81F096
:1037C00085E793E00E94980A819751F485E793E09A
:1037D0000E947A0A81E0809372036FEB78E079CFE0
:1037E0000E948408641975098609970997FD27C006
:1037F00024968CAD9DADAEADBFAD2497480E591E3D
:103800006A1E7B1E2696AEADBFAD26978D919C910C
:103810002C964CAD5DAD6EAD7FAD2C97480F591F0A
:10382000611D711DC6014C155D056E057F0508F40F
:10383000CA012E96EEADFFAD2E97918380830E9434
:10384000DF0A80917203882309F4AACF64EA78E042
:1038500040CF6CE271E080E090E00E94A9088A0C01
:103860009B1C9694879444E958E0612F83E00E9462
:10387000ED2284E898E00E94900E0E945D23C10131
:103880008D599C4F7C01C02ED12CD101A75ABC4F21
:103890005D01F701808191818816990608F041C089
:1038A00085E793E00E94BC0A892B81F085E793E0CD
:1038B0000E94980A819751F485E793E00E947A0A62
:1038C00081E08093720369E678E003CF0E94840868
:1038D000641975098609970997FD19C024968CAD5E
:1038E0009DADAEADBFAD2497480E591E6A1E7B1E1E
:1038F000D7018D919C91C816D90628F48C199D0981
:103900008815990508F4C401F501918380830E940C
:10391000DF0A80917203882309F4BBCF6EE478E05C
:10392000D8CE0E945123C1018D599C4F5C01802F3C
:1039300090E0B0E0A0E028968CAF9DAFAEAFBFAFF7
:1039400028976401F12CE12CD101A75ABC4F1D012D
:10395000F501808191818815990508F049C085E7B6
:1039600093E00E94BC0A892B81F085E793E00E94D6
:10397000980A819751F485E793E00E947A0A81E0E2
:103980008093720363E378E0A4CE0E9484086419F4
:1039900075098609970997FD21C024968CAD9DADC8
:1039A000AEADBFAD2497480E591E6A1E7B1ED501D1
:1039B0008D919C9128964CAD5DAD6EAD7FAD2897F5
:1039C000480F591F611D711DC6014C155D056E051F
:1039D0007F0508F4CA01F101918380830E94DF0A08
:1039E00080917203882309F4B3CF68E178E071CE47
:1039F00067E078E0812F0E941D230E943A23F7CDD3
:103A000086EF9CE00C947E1382E067C90F931F93AE
:103A1000CF93C091EB02CC23E1F00E94DB08009130
:103A2000E7021091E8022091E9023091EA02601B5E
:103A3000710B820B930B633371058105910548F07F
:103A4000EC2FF0E0EA5FFC4F10820E941D131092F1
:103A5000EB02CF911F910F9108951F920F920FB615
:103A60000F9211242F933F938F939F93AF93BF9304
:103A70008091FC029091FD02A091FE02B091FF02A4
:103A80003091FB0223E0230F2D3758F50196A11D3D
:103A9000B11D2093FB028093FC029093FD02A09342
:103AA000FE02B093FF028091000390910103A09168
:103AB0000203B09103030196A11DB11D8093000381
:103AC00090930103A0930203B0930303BF91AF91BE
:103AD0009F918F913F912F910F900FBE0F901F904C
:103AE000189526E8230F0296A11DB11DD2CF1F9273
:103AF0000F920FB60F9211242F933F934F935F9322
:103B00006F937F938F939F93AF93BF93CF93EF93D5
:103B1000FF93C091E1008091E100837F8093E100F9
:103B2000C3FF0FC01092E90081E08093EB00109278
:103B3000EC0082E38093ED001092740388E08093A0
:103B4000F000C2FF1AC00E94C4078091D7028823E8
:103B500041F08091D70281508093D702811101C03A
:103B60005D9A80917303882341F0809173038150A3
:103B700080937303811101C0289AC4FF23C08091F0
:103B8000E2008E7E81608093E2008091E1008F7E72
:103B90008093E1008091D8028E7E80618093D8026C
:103BA000FF91EF91CF91BF91AF919F918F917F91B5
:103BB0006F915F914F913F912F910F900FBE0F909A
:103BC0001F901895C0FFECCF8091E2008E7E80613F
:103BD0008093E2008091E1008E7E8093E1008091ED
:103BE000D8028E7E8160DACF1F920F920FB60F92AD
:103BF0001124CF92DF92EF92FF920F931F932F9396
:103C00003F934F935F936F937F938F939F93AF9364
:103C1000BF93EF93FF93CF93DF93CDB7DEB76C974E
:103C2000DEBFCDBF1092E9008091E80083FF25C080
:103C300068E0CE0145960E946E0982EF8093E8000D
:103C40008D8987FF39C09091E80090FFFCCF982FB5
:103C5000907609F034C19E894F89588D2F89F88C50
:103C6000911131C0803861F58091D9028093F100C3
:103C70001092F1008EEF8093E8006C960FB6F894E6
:103C8000DEBF0FBECDBFDF91CF91FF91EF91BF910E
:103C9000AF919F918F917F916F915F914F913F91E4
:103CA0002F911F910F91FF90EF90DF90CF900F9089
:103CB0000FBE0F901F9018959EEF9093E800C7CF0E
:103CC0001092F100D5CF913059F48111D3CF41300A
:103CD000510581F68091D9028D7F8093D902CACF98
:103CE000933049F48111C6CF4130510519F68091C6
:103CF000D9028260F2CF953041F48091E80080FFD4
:103D0000FCCF20682093E300B5CF963009F0A9C01E
:103D10000B8D1C8D22E01092E9001092D5021092BA
:103D2000D402F2122EC01092D3021092D2020E943C
:103D30008F091F8299E09983FA8291E09E8390EA2D
:103D400098879AEF99872091D4023091D502275F06
:103D50003F4F3C832B838D831092E9001092D50254
:103D60001092D4021093D3020093D20249E050E0A3
:103D7000BE016F5F7F4F80E00E9448090E948F095B
:103D800079CF1093D3020093D2020E947B09DC0109
:103D900012960D911C910115110509F451C1D8011C
:103DA000ED91FC910480F581E02DBE016B5E7F4FAB
:103DB000C8010995009709F03EC1F80100851185F9
:103DC000EACFF3E0FF120EC08F89882309F440C0C8
:103DD000823061F440E860E183E996E00E941509D1
:103DE000811148CF81E28093EB0047CF813029F4E5
:103DF00040E86BE087E896E0F1CF833099F70E94C6
:103E00007B09DC011296ED90FC908E010F5F1F4F35
:103E10006801E114F10479F0D701ED91FC9106807D
:103E2000F781E02DB801C7010995080F111DF701B1
:103E3000E084F184EECFD8011C92F60101900020BD
:103E4000E9F73197BF016C197D0940E0C601C6CF83
:103E500061E776E0FB01449150E080E80E94480968
:103E600009CF973009F4BECF983021F481E08093D8
:103E7000F10000CF993009F0FDCE837009F0B2CF88
:103E8000E2E4F1E081E031E096E32191222371F058
:103E90008093E9003093EB00DF0111972C91209380
:103EA000EC009093ED008F5F873079F78EE7809379
:103EB000EA001092EA008F8980937403DBCE8B8D29
:103EC0009C8D1092E9001092D5021092D40290932A
:103ED000D3028093D202898D811192C08E899D89EF
:103EE000913A49F4813209F07DCF47E050E06BE030
:103EF00071E080E0B3CF913209F074CF833269F47E
:103F00008F89988DB0E0A0E080930701909308011D
:103F1000A0930901B0930A01ADCE803269F480917B
:103F2000E80082FFFCCF67E08BE091E00E946E0921
:103F30008BEF8093E8009ECE823209F09BCE8F8972
:103F400080931201EEEFFFE7859194918B3F9C4D9A
:103F500051F1E0E0F8E080910B0190910C01A0910B
:103F60000D01B0910E01803B9440A105B105F1F423
:103F70008091120180FD1AC0EE3F8AE0F80789F5B2
:103F800087E797E791838083809160008093D602D2
:103F900088E19BE00FB6F894A895809360000FBE6F
:103FA0009093600067CEEEEFFAE0D5CF80819181EB
:103FB0008737974709F05ECEA895809160008861A9
:103FC000809360008091D60280936000EE3F2AE0EB
:103FD000F20789F08091FE0A9091FF0A9183808315
:103FE00049CE808191818737980751F29093FF0ADB
:103FF0008093FE0AC5CF1092FF0A1092FE0A3ACEB5
:104000000E947B09DC0112960D911C91011511058E
:1040100009F4E8CED801ED91FC910190F081E02DFA
:10402000BE016B5E7F4FC8010995811123CEF80157
:1040300000851185EBCF181619060CF41BCED2CED5
:10404000F1E0FF12BECE65E776E004CF1F920F923B
:104050000FB60F9211242F933F934F935F936F935B
:104060007F938F939F93209106018091630390919A
:1040700064034091590350915A038417950709F43A
:1040800001C1309101018417950708F0F1C041E0AA
:1040900050E0313031F05C9841E050E031E0309355
:1040A0000101840F951F909364038093630380E361
:1040B00030E1223008F412C140916503509166034B
:1040C00060915B0370915C034617570709F4EAC0DF
:1040D000909102014617570708F4EAC06FEF7FEF8F
:1040E0009F3F31F0469A6FEF7FEF9FEF9093020171
:1040F000460F571F5093660340936503223009F41F
:1041000029C1409167035091680360915D037091EC
:104110005E034617570709F4EEC090910301461756
:10412000570708F4D1C06FEF7FEF9F3F31F05F9AE0
:104130006FEF7FEF9FEF909303018064460F571F4F
:104140005093680340936703233009F403C14091FF
:10415000690350916A0360915F0370916003461791
:10416000570709F4D5C0909104014617570708F482
:10417000DDC06FEF7FEF9F3F31F0769A6FEF7FEFFB
:104180009FEF909304018068460F571F50936A0376
:1041900040936903243009F4DDC040916B035091D2
:1041A0006C03609161037091620390E046175707BA
:1041B000B9F0909105014617570708F4ADC06FEFAD
:1041C0007FEF9F3F31F0589A6FEF7FEF9FEF909313
:1041D0000501460F571F50936C0340936B0390E407
:1041E000253009F48EC020916D0330916E0340910B
:1041F0006303509164032417350709F482C060916A
:1042000006012417350708F49BC04FEF5FEF6F3F9F
:1042100031F08C9A4FEF5FEF6FEF60930601240F40
:10422000351F30936E0320936D0320E2882319F02D
:1042300035B1382B35B9992319F03BB1392B3BB93E
:10424000222319F031B3322B31BB3AE03A95F1F722
:1042500000C081114BC0992321F08BB19095982318
:104260009BB9222391F081B32095282321BB0DC057
:104270004FEF5FEF3F3F09F414CF5C9A4FEF5FEFD2
:104280003FEF0DCF223008F06FC09F918F917F914B
:104290006F915F914F913F912F910F900FBE0F90B3
:1042A0001F901895832F223009F02BCF90E02BC060
:1042B00061E070E0913009F41BCF469861E070E056
:1042C00091E09093020114CF61E070E0913009F425
:1042D00034CF5F9861E070E091E02DCF2C9A3AE006
:1042E0003A95F1F700C020E090E080E135B180958B
:1042F000832385B9B0CF233009F029CF382F90E040
:1043000002C0392F382B332309F4BFCF20E08ECFE2
:10431000243009F042CFF2CF61E070E0913009F42F
:1043200058CF589861E070E091E051CF61E070E0C3
:10433000913009F428CF769861E070E091E021CFC8
:1043400041E050E0613009F46ACF8C9841E050E0E0
:1043500061E063CF95B1982B95B99AE09A95F1F702
:1043600000C020E090E0C2CF80E230E0A5CE682F10
:1043700085E793E00C94450A109204031092900094
:1043800089E08093910087EC90E09093990080936E
:10439000980082E0809371000895382F8091140175
:1043A00090911501A0911601B091170188379105E0
:1043B000A105B10520F488E790E0A0E0B0E0BC01E1
:1043C000CD019695879577956795613D27E07207B2
:1043D0008105910520F060ED77E080E090E021E03C
:1043E00043E0832F0C943A0DCF92DF92EF92FF922D
:1043F0001F93CF93DF93CDB7DEB768970FB6F894CE
:10440000DEBF0FBECDBF1091720311111CC085E736
:1044100093E00E94BC0A892BB1F0CE0101967C0189
:104420006C0185E793E00E94BC0A892B21F11731CA
:1044300011F185E793E00E947A0A813299F481E0D4
:104440008093720311E0812F68960FB6F894DEBF57
:104450000FBECDBFDF91CF911F91FF90EF90DF9006
:10446000CF9008958D3039F08A3029F01F5FD60142
:104470008D936D01D6CFF701E10FF11D1082F70189
:10448000D7018D917D018032D1F38930C1F38F7DC9
:10449000843461F581818F7D8F3441F53296DF015F
:1044A00081918032E1F38930D1F38F7D8334F1F44F
:1044B00011968C9111978F7D8134C1F412968C9155
:1044C00012978F7D8E3491F413968C9113978F7D74
:1044D000833461F414968C9114978F7D853431F474
:1044E00015968C918F7D8C3409F4A9CF10917203AD
:1044F000AACF8150282F30E0220F331FF901E85E48
:10450000FE4F808191812A5C3C4FF90120813181ED
:104510002817390750F4A901440F551F8417950730
:1045200010F401970895821B930B0895BF92CF92C8
:10453000DF92EF92FF920F931F93CF93DF93CDB74C
:10454000DEB72B970FB6F894DEBF0FBECDBF8C0140
:10455000CB01009741F19E01295F3F4FB12C7901BA
:104560004AE0C42ED12CB394B6010E949D2D805DEB
:10457000D9018D939D01CB01009719F045E0B4124C
:10458000F2CFDE0111968B2D9D018150A701480FBE
:10459000511DFA0190819D938111F7CFF901EB0D27
:1045A000F11D108203C080E389831A82C8010E9432
:1045B000900ECE0101960E94740E2B960FB6F894C1
:1045C000DEBF0FBECDBFDF91CF911F910F91FF9046
:1045D000EF90DF90CF90BF9008950F931F93CF93EC
:1045E000DF93D82FC62F8A0182ED9EE00E94900EA5
:1045F0006D2F70E081ED9EE00E94920E8FEC9EE0A8
:104600000E94900E63E070E08EEC9EE00E94920E9D
:1046100087EC9EE00E94900E6C2F70E086EC9EE08E
:104620000E94920E83EC9EE00E94900EC801DF91E2
:10463000CF911F910F910C94900E0F931F93CF93D6
:10464000C82F8B0183EB90E00E94900E6C2F70E0DE
:1046500082EB90E00E94920E8CEA90E00E94900E15
:10466000C801CF911F910F910C94900E8AE094E0B5
:104670000C94820E80910001833039F083E08093A6
:10468000000186EC90E00C94900E0895809100015A
:10469000882331F0109200018BEB90E00C94900E87
:1046A000089580910001823039F082E0809300010A
:1046B00085ED90E00C94900E08958091000181307A
:1046C00039F081E08093000189EE90E00C94900E27
:1046D0000895CF93DF9300D0CDB7DEB781508530FA
:1046E000F8F4E82FF0E0DF01AE5DBE4F8C91811150
:1046F00017C081E08C93EE0FFF1FE05EF14F8591B4
:10470000949121E030E03A832983BE016F5F7F4FAF
:104710000E94FF0E0E94310C82E194E00E94900EF4
:104720000F900F90DF91CF910895EF92FF920F932A
:104730001F93CF93DF9300D000D0CDB7DEB79BEFB0
:10474000980F923058F58150082F10E0E92EF12C87
:10475000EE0CFF1CF701E55DFE4F80819181000F9B
:10476000111FF801E85EFE4F208131813A832983D1
:10477000BE016F5F7F4F0E94FF0EF701E95DFE4FA4
:1047800080819181F801EA5CFC4F208131813C837A
:104790002B83BE016D5F7F4F0E94FF0E0F900F9025
:1047A0000F900F90DF91CF911F910F91FF90EF909D
:1047B00008952F923F924F925F926F927F928F92C5
:1047C0009F92AF92BF92CF92DF92EF92FF920F93A0
:1047D0001F93CF93DF93CDB7DEB76A970FB6F894E8
:1047E000DEBF0FBECDBF8C8B1092710081E0809335
:1047F00004039C889A940E945F1181E891E00E94D2
:10480000D1108AED93E00E94900E0E9451232091D6
:1048100014013091150140911601509117012E8716
:104820003F87488B598B283731054105510540F4A6
:1048300088E790E0A0E0B0E08E879F87A88BB98BD7
:10484000209013010E9484082B013C018C890E9456
:10485000270D882309F47CC088EB93E00E94900E1A
:104860000E94512322E3E22EF12C092D10E0000FCB
:10487000111FD801AD59BC4F5D01C22CD12C075A74
:104880001C4F85E793E00E94BC0A892BB1F185E7B4
:1048900093E00E94980A819781F585E793E00E9452
:1048A0007A0A81E0809372038AE993E00E94900E75
:1048B0000E9446230E943B1181E891E00E94D110A2
:1048C000312C0E94BC21832D6A960FB6F894DEBF6E
:1048D0000FBECDBFDF91CF911F910F91FF90EF9051
:1048E000DF90CF90BF90AF909F908F907F906F9010
:1048F0005F904F903F902F9008950E948408641914
:1049000075098609970997FD1DC02E853F85488941
:104910005989420E531E641E751ED5012D913C917E
:10492000C601EC14FD0408F4C701AC0128173907CF
:1049300010F441E050E0241B350BF8013183208353
:10494000E81AF90A0E94DF0AE114F10409F099CF8C
:10495000292D30E03E8B2D8B220F331F3D872C8776
:104960002D593C4F7901D90111961C921E920C854C
:104970001D85075A1C4FF801118210820E94DB0826
:104980004B015C010E9451231B8A1A8AF88EEF8A20
:10499000C22CD12CF12CE12C1A8F098F022D10E0A2
:1049A00085E793E00E94BC0A892B81F085E793E0BC
:1049B0000E94980A819751F485E793E00E947A0A51
:1049C00081E0809372038CE793E070CF0E948408AB
:1049D000641975098609970997FD27C02E853F85BB
:1049E00048895989420E531E641E751EAF89B88DC1
:1049F0008D919C91A7019601280F391F411D511DD2
:104A0000DA01C901009731E0A307B10520F08FEF6B
:104A10009FEFA0E0B0E0E98DFA8D918380832A8931
:104A20003B89200F311F3B8B2A8B0E94DF0A4A896A
:104A30005B8942335105E8F40E94DB086819790963
:104A40008A099B096135734C8105910508F4A8CF4B
:104A50008DE393E00E94900E85E293E00E94900E19
:104A60000E94462381E891E00E94D1100E943B11F0
:104A700027CF23E045E068EC70E08C890E943A0D76
:104A8000382E8823C9F20C851D850D591C4FD8017D
:104A90008D909C900E945D230E94DB086B017C013D
:104AA0005801022D10E0EC85FD85E75AFC4FFB8B89
:104AB000EA8B23E045E068EC70E08C890E943A0DB7
:104AC000882309F44AC085E793E00E94BC0A892B39
:104AD00081F085E793E00E94980A819751F485E779
:104AE00093E00E947A0A81E08093720387E093E06A
:104AF000DDCE80917203882319F089EF92E0D6CE43
:104B00000E948408641975098609970997FD17C0E2
:104B10002E853F8548895989420E531E641E751E95
:104B2000D5018D919C9198018017910710F421E097
:104B300030E0821B930BEA89FB89918380830E947A
:104B4000DF0A0E94DB086C197D098E099F0969380C
:104B500073418105910508F4ACCF84E1E82EF12C76
:104B60002C853D852D593C4F6901022D10E04C8567
:104B70005D85475A5C4F5A01D6018D919C91892BD6
:104B800009F052C0EC85FD85ED59FC4F8081918183
:104B9000EC85FD85E75AFC4F91838083EC85FD858C
:104BA000E85EFE4F91828082ED89FE89E05CFC4FD9
:104BB00081E08114910409F480E080838DE891E024
:104BC0000E94D11083ED92E00E94900E8114910416
:104BD00009F473C09E01295F3F4FF12C0AE010E0F9
:104BE000F394C401B8010E949D2D805DD9018D937D
:104BF0009D014B01672B19F0F5E0FF12F1CFDE01AB
:104C000011968F2D9D01815047E050E04C0F5D1FA4
:104C1000480F511DFA0190819D938111F4CFF90144
:104C2000EF0DF11D10824CC085E793E00E94BC0A95
:104C3000892B81F085E793E00E94980A819751F4CF
:104C400085E793E00E947A0A81E08093720385EB06
:104C500092E02CCE80917203882319F087EA92E0CB
:104C600025CE0E948408641975098609970997FD65
:104C70001DC02E853F8548895989420E531E641EEA
:104C8000751ED6012D913C91C801E016F10608F47D
:104C9000C701AC012817390710F441E050E0241B8C
:104CA000350BF50131832083E81AF90A0E94DF0AE7
:104CB000E114F10409F060CF65CF80E389831A82A3
:104CC000CE0101960E94740E0E944623FACD2F92C7
:104CD0003F924F925F926F927F928F929F92AF928C
:104CE000BF92CF92DF92EF92FF920F931F93CF93D9
:104CF000DF93CDB7DEB72E970FB6F894DEBF0FBEA9
:104D0000CDBF382E8BEF830D8230F8F085E892E02E
:104D10000E94900E212C822D2E960FB6F894DEBFA5
:104D20000FBECDBFDF91CF911F910F91FF90EF90FC
:104D3000DF90CF90BF90AF909F908F907F906F90BB
:104D40005F904F903F902F9008951092710081E0F6
:104D50008093040322242A94230C109272030E944D
:104D60005F1181E891E00E94D11089EE91E00E94EC
:104D7000900E0E945D238090140190901501A090E8
:104D80001601B090170128E782169104A104B1041E
:104D900028F428E7822E912CA12CB12C30911301FC
:104DA0003B830E9484082B013C01832D0E94270D28
:104DB000882309F45FC08DEB91E00E94900E0E9461
:104DC000512302E310E0422D50E0440F551F5A8357
:104DD00049834D595C4F6A015B81E52EF12C698155
:104DE0007A81675A7C4F7A8369830E94F4218823F1
:104DF00081F08FEA91E00E94900E0E9446230E946B
:104E00003B1181E891E00E94D110212C0E94BC212D
:104E100082CF0E948408641975098609970997FD55
:104E200023C0480C591C6A1C7B1CD6012D913C9157
:104E3000C7010E151F0508F4C801AC0170E060E061
:104E4000420F531F611D711D41155105B1E06B07E4
:104E5000710520F04FEF5FEF60E070E0E981FA81CB
:104E600051834083081B190B0E94DF0A01151105AD
:104E700009F0BBCF022D10E0000F111F98012D5932
:104E80003C4F3A8729878FEF9FEFD90111969C936A
:104E90008E93F801E75AFC4FFA83E983918380836C
:104EA0000E94DB086C837D838E839F830E945D2339
:104EB000F12CE12CFB81CF2ED12C0E94F4218823F0
:104EC00019F081EA91E097CF0E948408641975096E
:104ED0008609970997FD16C0480C591C6A1C7B1C53
:104EE000A985BA858D919C9196018C159D0510F42C
:104EF00021E030E0821B930BE981FA81918380836A
:104F0000EC0CFD1C0E94DF0A0E94F421282E88234D
:104F100019F083E991E06FCFF2E3EF16F10408F5A1
:104F20000E94DB082C813D814E815F81621B730BE7
:104F3000840B950B6135734C8105910508F4BDCF49
:104F400084E591E00E94900E8CE391E00E94900E27
:104F50000E94462381E891E00E94D1100E943B11FB
:104F600055CF23E045E068EC70E0832D0E943A0DB8
:104F700088878823A9F20E945123F801EA5CFC4F3C
:104F8000408151815A834983452B21F464E170E0CB
:104F90007A8369830E94DB086B017C01C8018D590B
:104FA0009C4F9D838C833B81232F30E050E040E079
:104FB00029873A874B875C87A801475A5C4F5E87F1
:104FC0004D8723E045E068EC70E0832D0E943A0DA8
:104FD000882309F446C00E94F421882369F08EE2F8
:104FE00091E00E94900E0E9446230E943B1181E8AE
:104FF00091E00E94D1100ACF0E94840864197509BB
:105000008609970997FD1FC0480C591C6A1C7B1C18
:10501000AC81BD818D919C9129853A854B855C85BC
:10502000280F391F411D511DDA01C901009731E0D8
:10503000A307B10520F08FEF9FEFA0E0B0E0ED8572
:10504000FE85918380830E94DF0A0E94DB086C1931
:105050007D098E099F09693873418105910508F41E
:10506000B0CF98012D593C4F69015B81452F50E02D
:105070005D834C83B801675A7C4F7B010E94F42109
:10508000882319F080E291E0ACCF0E948408641973
:1050900075098609970997FD2AC0480C591C6A1C96
:1050A0007B1CD6012D913C918C819D81E981FA81F7
:1050B000E817F90708F4CF01AC0170E060E0420F97
:1050C000531F611D711D41155105F1E06F077105F9
:1050D00020F04FEF5FEF60E070E0D70111965C9336
:1050E0004E93E981FA81E81BF90BFA83E9830E9468
:1050F000DF0A29813A81232B09F6F801ED59FC4F8B
:1051000011821082F801E75AFC4F11821082E32DC0
:10511000F0E0E15CFC4F81E080838DE891E00E944B
:10512000D1108BEF90E00E94900E0E9446232884BD
:105130006DCECF93DF9300D000D000D0CDB7DEB7D7
:10514000789484B5826084BD84B5816084BD85B562
:10515000826085BD85B5816085BD80916E0081606E
:1051600080936E0010928100809181008260809314
:105170008100809181008160809381008091800016
:105180008160809380008091910082608093910083
:105190008091910081608093910080919000816066
:1051A000809390008091C10084608093C1008091C1
:1051B000C10082608093C1008091C10081608093B2
:1051C000C1008091C30081608093C3008091C000C2
:1051D00082608093C0008091C20081608093C20091
:1051E00080917A00846080937A0080917A00826056
:1051F00080937A0080917A00816080937A00809118
:105200007A00806880937A00109274031092D90219
:105210001092D8028091D70081608093D70080EAF5
:105220008093D80089B5806189BD89B5826089BDC8
:1052300009B400FEFDCF61E070E080E090E00E94E4
:10524000A9088091D8008F7C80618093D8008091DC
:10525000E000807F8093E0008091E1008E7E80936B
:10526000E1008DE08093E200559A209A61E082E1AE
:105270000E94530861E082E10E94E20762E08DE053
:105280000E94530862E083E10E9453080E94310C9F
:10529000E4E56E2EE1E07E2EF8E48F2EF1E09F2E05
:1052A000A6E3EA2EA3E0FA2E00E413E0B8E1CB2E49
:1052B000B1E0DB2E21E030E03A83298333243394BC
:1052C000D3018D919D913D010E94230F5C01F4015A
:1052D000819191914F010E94230F2C01A114B104DF
:1052E00009F0A9C083ED96E00E94900ED6011D92B0
:1052F0001C92F70111821082D8011C9229813A81F7
:105300002F5F3F4F3A83298332E0C30ED11C42E026
:10531000E40EF11C0F5F1F4F89819A81069781F679
:10532000A5E6B1E0BA83A98370E6E72E71E0F72E17
:1053300061E0E981FA818191FA83E9830E9453084F
:10534000D7011D917D0161E0812F0E94530861E02A
:10535000812F0E94E207E981FA81EA56F14041F784
:105360000E943B11109271030E943B1164E670E0B1
:1053700080E090E00E94A90861E087E10E94530864
:1053800060E087E10E94E2078CEA92E00E94D1107F
:1053900088E490E00E94230F029721F060E080E013
:1053A0000E949C0F8FEF9FEF909382038093810365
:1053B0000E943C0F0E94310C1092900089E0809373
:1053C000910087EC90E0909399008093980082E0A0
:1053D000809371000E94D60A0E942B117724739447
:1053E00030911201398341E04B83311101C01B829E
:1053F0006AE070E080E090E00E94A9088091DA0203
:10540000882309F451C0598151114EC01092EB020A
:105410001092E7021092E8021092E9021092EA025A
:1054200085E793E00E94BC0A892B51F185E793E060
:105430000E947A0AF5CFF601B182A082D7018D933E
:105440009C93F80130828AEB96E00E94900E69816D
:105450007A8189EB96E00E94920E81EB96E00E94A1
:10546000900EB50180EB96E00E94920E85EA96E0E0
:105470000E94900EB20184EA96E00E94920E3ECF06
:105480001092460310924703109245031092F202C5
:105490001092F3021092F4021092F5020E94D60AC2
:1054A0000E943B110E942B118091DA02811118C0D9
:1054B00089818823A9F01092EB021092E7021092E2
:1054C000E8021092E9021092EA0285E793E00E9456
:1054D000BC0A892B29F085E793E00E947A0AF5CF70
:1054E0009B819093DA0285E793E00E94BC0A892BA6
:1054F00051F00E94DB086093F7027093F8028093EA
:10550000F9029093FA0280914C0381117092F60295
:1055100085E793E00E94BC0A892B09F43AC285E72B
:1055200093E00E94980A97FD34C28035910509F0F6
:10553000DEC185E793E00E94BC0A0D970CF429C2F6
:1055400085E793E00E947A0A0BED12E01A83098343
:1055500085E793E00E947A0AE981FA818193FA83D0
:10556000E98327EE32E02E173F0791F70E94DB0810
:10557000C090F202D090F302E090F402F090F502B5
:10558000C114D104E104F10481F09B01AC012C1998
:105590003D094E095F0969017A0131E039834BEF1A
:1055A000C416D104E104F10408F419826093F202F4
:1055B0007093F3028093F4029093F5028091F102CC
:1055C000882331F01092F10289E097E00E94900E5A
:1055D00080914603882319F053E050934503898155
:1055E000882309F42AC1E2E2F1E090E080E0219111
:1055F000222371F09C01220F331FD901AD59BC4FFA
:105600004D915C91275A3C4FD90111965C934E9372
:1056100001968430910559F70E94DF0AB1E0B98301
:105620000E94061D30914C033B838091F602882333
:1056300031F0311104C0498141111092F6020E94EB
:1056400072115B81511104C08091F6028823C9F068
:10565000E2E2F1E090E080E02191222371F09C01F0
:10566000220F331FD901AD59BC4F4D915C91275A80
:105670003C4FD90111965C934E930196843091056D
:1056800059F7B981B11102C00E94DF0A1091460397
:10569000112309F466C080910503882309F461C0D1
:1056A00080914503833009F05CC0C090F202D09035
:1056B000F302E090F402F090F502C114D104E10489
:1056C000F10409F44EC0E091F102EB830E94DB0883
:1056D0006C197D098E099F09613B74408105910514
:1056E00008F43FC02B81211142C087EB92E00E9459
:1056F000D11062E271E0E8E1F1E030E020E0DB01AE
:105700008D91BD018823C1F040815181C901880F6D
:10571000991F452B09F43FC150E040E0243031F09F
:10572000AC014A5C5C4FDA014D915C91875A9C4F09
:10573000DC0111965C934E932F5F3F4F32962530DC
:105740003105E9F67092F1020E94DB086093ED02E8
:105750007093EE028093EF029093F002B2E0B09368
:1057600045038091F1028823D1F11123C1F1E09129
:105770000503E983EE2399F1E2E2F1E090E080E0B5
:105780002191222389F09C01220F331FD901AD59A9
:10579000BC4F4D915C91275A3C4FD9012D913C91C2
:1057A0004217530709F0FEC001968530910541F775
:1057B0000E94DB08B981B111F7C00091ED02109190
:1057C000EE022091EF023091F002601B710B820B10
:1057D000930B693B7B408105910508F0F6C08091F1
:1057E000EC02882311F10E94DB080091F70210916E
:1057F000F8022091F9023091FA02601B710B820BC2
:10580000930B613375478105910578F0109247033A
:1058100010924603109245030E94D60A8091050318
:10582000882309F4D5C00E943B1120E030E0232BEF
:1058300009F4D6CD0E940000D3CD60907103C090D2
:105840003E03D0903F03F12CE12CCC0CDD1CEE1C70
:10585000FF1CDC82CB82E2E2F1E0FA83E98358E1CB
:10586000252E51E0352E1E821D82A981BA818D918F
:10587000BA83A983882311F12D81243011F4662085
:10588000E9F0F8018081A181B82FF1018081918137
:105890004D805E80440C551C009719F1243009F4AA
:1058A0009AC0F201EA5CFC4F8080918088169906CC
:1058B000A8F0F201E75AFC4F918280824D815E810F
:1058C0004F5F5F4F5E834D830E5F1F4F52E0250E8B
:1058D000311C8D819E81059741F69ECE88199909CC
:1058E0008BC0F201E75AFC4FB183A083E7CF85E775
:1058F00093E00E947A0A8B838A3011F08D30C1F4D4
:10590000E091EB02EE2309F403CEA6E0B3E080E0E1
:105910009D9190529F3548F48F5FE813F9CFF0E0E6
:10592000EA5FFC4F10820E941D131092EB02F0CD33
:105930008B8180528F35C8F79091EB02998391113A
:1059400016C00E94DB086093E7027093E802809320
:10595000E9029093EA0289818F5F8093EB02B9811B
:10596000EB2FF0E0EA5FFC4F2B81208303C0A9817D
:10597000AF3288F3E091EB02EF3240F0F0E0EA5F03
:10598000FC4F10820E941D131092EB020E94061D14
:10599000BFCD198245CE875A9C4FDC0111961C92CF
:1059A0001E92CACE198204CF84E697E00E94900E20
:1059B0001092F1020E943B1110924603109245038F
:1059C0000E94D60A0E942B110ACF87E397E0EECF00
:1059D0000E942B112ACFAC0170E060E0912C812C49
:1059E000C416D506E606F70608F063CF2B813C8186
:1059F000821B930B912C812C8816990608F059CFA5
:105A0000B12CA12C9C0150E040E0281939094A0929
:105A10005B090E94512D615070488F4F9F4F2FEFAF
:105A20003FEF40E050E00E945C2D820E931EA41ECA
:105A3000B51E8114910431E0A306B10408F439CFF6
:105A400088248A94982CA12CB12C33CFE5E7F3E07D
:105A50001382128288EE93E0A0E0B0E08483958305
:105A6000A683B78383E391E0918380838FEF9FEFD9
:105A7000958784870895F999FECF92BD81BDF89AE4
:105A8000992780B50895262FF999FECF1FBA92BDA8
:105A900081BD20BD0FB6F894FA9AF99A0FBE01960F
:105AA00008950E947E2DA59F900DB49F900DA49FF8
:105AB000800D911D11240895A1E21A2EAA1BBB1B73
:105AC000FD010DC0AA1FBB1FEE1FFF1FA217B307CA
:105AD000E407F50720F0A21BB30BE40BF50B661FE0
