:100000000C949C070C94C4070C94C4070C94C4076C
:100010000C94C4070C94C4070C94C4070C94C40734
:100020000C94C4070C94C4070C94D51F0C94522054
:100030000C94C4070C94C4070C94C4070C94C40714
:100040000C94C4070C94C4070C94C4070C94C40704
:100050000C94C4070C94C4070C94C4070C948B1F15
:100060000C94C4070C94C4070C94C4070C94C407E4
:100070000C94C4070C94C4070C94C4070C94C407D4
:100080000C9484220C94C4070C94C4070C94C407E9
:100090000C94C4070C94C4070C94C4070C94C407B4
:1000A0000C94C4070C94C4070C94C40720E28094F9
:1000B0002000005B43414C5D204D005B4143545D9B
:1000C0002049444C45005B4143545D2043454E5418
:1000D00045524544005B4143545D204445434F4DE8
:1000E0005052455353494E47005B4143545D2043B2
:1000F0004F4D5052455353494E47004D696E206550
:100100006E6473746F7020666F756E643B20706FE1
:10011000736974696F6E2073657420746F2030008A
:100120005B43414C5D2041626F72746564005B43C8
:10013000414C5D2041626F72746564005265747554
:10014000726E696E6720746F206D61696E206D65D7
:100150006E752E004572726F723A20646574656325
:10016000744D696E2074696D656F75742E20496ECB
:1001700063726561736520504E3938206F7220615B
:10018000646A75737420686F6D696E67207370653B
:100190006564005B43414C5D2041626F727465642D
:1001A000005B43414C5D2041626F72746564005B8B
:1001B00043414C5D2041626F7274656400456E641A
:1001C00073746F7020616C7265616479206163740F
:1001D0006976652E204465636F6D7072657373690F
:1001E0006E67206120626974004465746563746998
:1001F0006E67204D494E207573696E6720656E6489
:1002000073746F702E2E2E353073206265666F7298
:10021000652074696D656F75742E20496620656E62
:100220006473746F7020697320616C7761797320D7
:100230006F6E2C20696E63726561736520706E301D
:1002400032342E20496620746F6F20736C6F772CC8
:1002500020696E63726561736520504E3938206F76
:10026000722061646A75737420686F6D696E6720AF
:10027000737065656420696E20706172616D65746C
:100280006572732E006465746563744D696E2073C6
:100290007570706F72746564206F6E204D352F4DD0
:1002A00036206F6E6C79005B43414C5D2041626F7C
:1002B00072746564005B43414C5D2041626F7274EF
:1002C0002072657175657374656420287175696342
:1002D0006B29004D617820656E6473746F702066C1
:1002E0006F756E643A20636F6E746163742F72650C
:1002F0006C65617365204020005B43414C5D20418B
:10030000626F72746564005B43414C5D2041626FB3
:1003100072742072657175657374656420287175D7
:1003200069636B290052657475726E696E6720741B
:100330006F206D61696E206D656E752E004572725D
:100340006F723A206465746563744D6178207469D6
:100350006D656F75742E20496E63726561736520DB
:10036000504E3938206F722061646A75737420684A
:100370006F6D696E67207370656564005B43414C07
:100380005D2041626F72742072657175657374656A
:10039000642028717569636B29005B43414C5D20C3
:1003A00041626F7274207265717565737465642043
:1003B00028717569636B2900456E6473746F7020D2
:1003C000616C7265616479206F6E2E204465636F85
:1003D0006D7072657373696E6700446574656374EC
:1003E000696E67204D4158207573696E6720656E90
:1003F0006473746F702E353073206265666F72653A
:100400002074696D656F75742E004F4B0045525214
:1004100020004D6F746F722077617320646973637D
:100420006F6E6E65637465643B2073657420746FD2
:1004300020434F4E4E454354454420666F7220631F
:10044000616C6962726174696F6E2E0046616374DB
:100450006F72792073657474696E67732072657347
:10046000746F7265642E20506F7765722D637963A7
:100470006C65206973207265636F6D6D656E646570
:10048000642E005B484F4D494E475D204E6F2065FE
:100490006E6473746F7020666F756E6420E2809472
:1004A00020686F6D696E672061626F727465642089
:1004B00028706F736974696F6E2072656163686517
:1004C00064203020776974686F757420656E64737A
:1004D000746F703B20636865636B20776972696E27
:1004E00067206F722064697361626C65204D352FDF
:1004F0004D3620696E204D6F74696F6E2043656EB6
:1005000074657229002061626F727465643A2072AA
:10051000656163686564206C6F676963616C2070F6
:100520006F736974696F6E203020776974686F75B6
:100530007420656E6473746F702074726967676588
:1005400072005B484F4D494E475D204D005B484F60
:100550004D494E475D204E6F20656E6473746F7019
:1005600020666F756E6420E2809420686F6D696EFE
:10057000672061626F7274656420286D61782073F2
:1005800065656B206C696D6974207265616368656F
:10059000643B20636865636B20776972696E6720CE
:1005A0006F722064697361626C65204D352F4D3622
:1005B00020696E204D6F74696F6E2043656E74659F
:1005C00072290029002C206C696D69743D0020613E
:1005D000626F727465643A206D6178207365656B33
:1005E0002073746570732072656163686564202888
:1005F0006D6F7665643D005B484F4D494E475D2009
:100600004D005741524E494E4720534552564F20B8
:10061000454E41424C4544005741524E494E4720B9
:10062000534552564F2044495341424C45440008DB
:100630000B00020202000009040000010202000097
:1006400005240010010524010101042402060524EB
:100650000600010705810310004009040100020A99
:100660000000000705020240000007058302400069
:10067000000403090412010002EF02014041233685
:100680008000010102030141726475696E6F204CA4
:100690004C430041726475696E6F204C656F6E61EA
:1006A00072646F0000207C204D617267696E3D00AE
:1006B00000207C204D61783D000043616C696272CE
:1006C0006174696F6E206C6F6164656420666F721F
:1006D000204D00454550524F4D20696E76616C6942
:1006E00064206F72206D6178206861736E277420BA
:1006F0006265656E2063616C696272617465642015
:1007000079657420283D3029005B534146455D20C2
:1007100053696D4875622073747265616D207265EE
:1007200073756D656420647572696E6720504152FF
:100730004B5F5A45524F0053485F44495341424C26
:100740004544005B5041524B5D20456E64706172C0
:100750006B20646F6E65005B534146455D205369B5
:100760006D487562205041524B5F5A45524F20747C
:10077000696D656F7574202D3E20534552564F5F4D
:100780004F4646005B534146455D2053696D4875B1
:1007900062205041524B5F5A45524F20646F6E6544
:1007A000202D3E20534552564F5F4F4646000000D5
:1007B0000000240027002A002D0030000000000067
:1007C000250028002B002E0031000404040404033B
:1007D00004050202020204030202020206060606E1
:1007E0000606040402020204040408020110408008
:1007F0004010204080408008020401804020100208
:1008000001108010204040200000000200090F006D
:1008100000030401000C00000000000000000000C4
:1008200000000000000000544553545F5354524FE1
:100830004B4520646F6E650041424F525445442041
:10084000647572696E6720544553545F5354524F18
:100850004B450041424F5254454420647572696EC5
:100860006720544553545F5354524F4B4500414207
:100870004F5254454420647572696E672054455345
:10088000545F5354524F4B450041424F52544544DC
:1008900020647572696E6720544553545F535452F7
:1008A0004F4B45005265616368696E672043454E52
:1008B000544552005265616368696E672043454E36
:1008C0005445520041424F52544544206475726968
:1008D0006E6720544553545F5354524F4B4500416B
:1008E000424F5254454420647572696E67205445E6
:1008F00053545F5354524F4B4500526561636869CE
:100900006E6720656666656374697665204D41583B
:10091000005265616368696E672065666665637429
:10092000697665204D41580041424F52544544205C
:10093000647572696E6720544553545F5354524F27
:100940004B450041424F5254454420647572696ED4
:100950006720544553545F5354524F4B45005265E2
:10096000616368696E67206566666563746976654C
:10097000204D494E005265616368696E6720656667
:1009800066656374697665204D494E0054657374DD
:10099000696E672066756C6C207374726F6B65206E
:1009A00077697468206D617267696E2E0053746197
:1009B000727420544553545F5354524F4B45004179
:1009C000424F5254454420647572696E6720544505
:1009D00053545F5354524F4B4500526566657265E0
:1009E0006E6365204D494E206265666F72652054C6
:1009F0004553545F5354524F4B4500474F5F544F3C
:100A00005F43454E54455220646F6E650041424F2E
:100A1000525445440043616E6E6F742063656E747A
:100A200065723A204D4158206E6F742063616C6985
:100A3000627261746564004641494C4544206475A6
:100A400072696E67204D494E2064657465637469F0
:100A50006F6E00506F736974696F6E20756E6B6E88
:100A60006F776E202D3E20646574656374204D4958
:100A70004E206265666F72652063656E746572698B
:100A80006E6700676F546F43656E746572536D6176
:100A9000727420737570706F72746564206F6E204D
:100AA0004D352F4D36206F6E6C790064657465632B
:100AB000744D617820737570706F72746564206F07
:100AC0006E204D352F4D36206F6E6C7900434F4DA3
:100AD000504C4554455F43414C494220646F6E651C
:100AE0000043616C6962726174696F6E20646F6E3D
:100AF000652E20506C656173652072657374617238
:100B0000742074686520636F6E74726F6C20626FFE
:100B100078206265666F7265207573696E67205311
:100B2000696D68756200536176696E672063616CF8
:100B30006962726174696F6E20746F20454550520E
:100B40004F4D0041424F52544544004641494C45A7
:100B50004420647572696E67204D41582064657445
:100B6000656374696F6E00446574656374696E676C
:100B7000204D415820656E6473746F700046414982
:100B80004C454420647572696E67204D494E20645F
:100B90006574656374696F6E004465746563746938
:100BA0006E67204D494E20656E6473746F700053FC
:100BB0007461727420434F4D504C4554455F43411E
:100BC0004C49420066756C6C43616C696272617479
:100BD000696F6E536F667420737570706F72746591
:100BE00064206F6E204D352F4D36206F6E6C79006E
:100BF000204D00204D434D494E3D312E31002048BF
:100C00005350533D0020534552564F3D00535441DD
:100C10005455532046573D322E3120424F583D0007
:100C20004F4B5F44495341424C4544004F4B5F4555
:100C30004E41424C4544005B5041524B5D20456E55
:100C4000647061726B207374617274004D3520683A
:100C50006F6D696E67206661696C65643A204D4905
:100C60004E20656E6473746F70206E6F74207265B1
:100C700061636865642028636865636B20776972C7
:100C8000696E672F656E6473746F702F6472697616
:100C900065722073657474696E677329004D352021
:100CA0006D617267696E206170706C6965643A206D
:100CB000004D3520686F6D6564004D3520686F6D9F
:100CC000696E67207374617274004D35206D6172B6
:100CD00067696E206170706C6965643A20004D35FB
:100CE00020686F6D696E6720736B69707065643A18
:100CF00020616C726561647920686F6D6564004D78
:100D00003520686F6D696E6720736B6970706564FC
:100D10003A206E6F7420636F6E6E65637465640055
:100D200043414C4942524154454400554E4B4E4F6D
:100D3000574E5F434D4400554E4B4E4F574E5F410B
:100D40004354494F4E004F4E4C595F4D355F4D3621
:100D50000043454E5445525F4641494C45440000CE
:100D60004D004F4E4C595F4D355F4D360043414C61
:100D700049425F4641494C454400004D004F4E4CAE
:100D8000595F4D355F4D360043414C49425F464106
:100D9000494C454400004D004F4E4C595F4D355F66
:100DA0004D36004241445F56414C55450042414456
:100DB0005F4D4F544F52004241445F4152475300F0
:100DC0004E4F545F52454143484544004F4E4C59A5
:100DD0005F4D355F4D36004E4F545F52454143489D
:100DE0004544004F4E4C595F4D355F4D36004341F1
:100DF0004C49425F4641494C4544004F4E4C595F77
:100E00004D355F4D36004D36004D35004241445F53
:100E10004D4F544F52004241445F41524753005599
:100E20004E4B4E4F574E5F4B4559004F4E4C595FFE
:100E30004D355F4D36004D41585F52455155495231
:100E40004544004F4E4C595F4D355F4D3600040010
:100E50000C0014001C0024002C004D415247494E48
:100E60005F4F4E4C595F4D355F4D36000000080016
:100E700010001800200028003000340038003C002A
:100E8000400044004D4F544F525F52455155495216
:100E90004544004241445F4D4F544F52004241444B
:100EA0005F56414C5545004241445F415247530013
:100EB0004F4B5F4D435F444953434F4E4E45435460
:100EC000454400424F585F444F574E0053485F44DB
:100ED000495341424C4544005348434F4E4E4543CD
:100EE000544544004F4B5F4D435F44495341424C8E
:100EF0004544004F4B5F4D435F434F4E4E45435477
:100F0000454400300031004241445F4D4F544F5240
:100F1000004241445F4D4F544F52003A20000020A0
:100F2000E28094204D00002F00005B43414C5D2087
:100F3000537465702000E72F11241FBECFEFDAE055
:100F4000DEBFCDBF12E0A0E0B1E0E2E3F1E602C017
:100F500005900D92A03DB107D9F724E0A0EDB2E0D5
:100F600001C01D92A836B207E1F717E0CCE9D7E03F
:100F700004C02197FE010E947230CB39D107C9F716
:100F80000E94E82A0C9497300C940000FC01809198
:100F90001704882311F13FB7F89482E08093E900A9
:100FA0002091F200822F90E01816190614F481E0C7
:100FB00090E0882339F0289844E640931604409145
:100FC000F1004083222339F02091F200211103C067
:100FD0002BE62093E8003FBF08958FEF9FEF089521
:100FE00083E08093E9008091F200882319F08AE37E
:100FF0008093E80008950C94F0072FB7F89483E0ED
:101000008093E9009091E800892F807295FF04C0D9
:101010009091F20080E4891B2FBF0895282F30E0C3
:10102000F901E85FF74F9491F901E751F84F849186
:101030002653384FF9012491222309F430C0992313
:10104000E9F091509F30D0F4E92FF0E0E65DF74FE2
:101050000C94723058085C083908500854083E084F
:101060003E083E085F08650869086D0873083E0879
:101070007708909180009F7790938000E22FF0E0B6
:10108000EE0FFF1FE454F84FA591B4919FB7F89469
:10109000EC91611132C080958E238C939FBF08958F
:1010A000909180009F7DE8CF90918000977FE4CF62
:1010B00094B59F7794BDE2CF94B59F7DFBCF90917F
:1010C00090009F7790939000D9CF909190009F7D52
:1010D000F9CF90919000977FF5CF9091C0009F77C6
:1010E0009093C000CBCF9091C0009F7DF9CF90919D
:1010F000C200977F9093C200C1CF8E2BCECFCF93EB
:10110000DF9390E0FC01E751F84F24918653984F0C
:10111000FC0184918823D1F090E0880F991FFC0195
:10112000E255F84FA591B491FC01E454F84FC591F4
:10113000D491623071F49FB7F8943C91822F8095DE
:1011400083238C93E8812E2B28839FBFDF91CF913F
:1011500008958FB7F894EC912E2B2C938FBFF6CF78
:101160003FB7F8948091180390911903A0911A0346
:10117000B0911B0326B5A89B05C02F3F19F001961F
:10118000A11DB11D3FBFBA2FA92F982F8827BC01E1
:10119000CD01620F711D811D911D42E0660F771F09
:1011A000881F991F4A95D1F708958F929F92AF9209
:1011B000BF92CF92DF92EF92FF924B015C010E94AF
:1011C000B0086B017C010E94B0086C197D098E0982
:1011D0009F09683E734081059105A8F321E0821ABA
:1011E0009108A108B10888EEC80E83E0D81EE11C62
:1011F000F11C81149104A104B10429F7FF90EF9030
:10120000DF90CF90BF90AF909F908F9008952FB7B1
:10121000F8946091140370911503809116039091D6
:1012200017032FBF08954091EA025091EB022091DD
:10123000E8023091E90242175307B4F49091E800B4
:101240009570E1F39091E80092FD19C08093F10050
:101250008091EA029091EB0201968F739927892B76
:1012600019F48EEF8093E8008091EA029091EB02EE
:1012700001969093EB028093EA0281E0089580E06A
:101280000895EF92FF920F931F93CF93DF93F82E61
:10129000192FE62E042F81E0860F880F0E94130974
:1012A00083E00E941309CF2DD12FEC0EFD2EF11CEF
:1012B000CE15DF05B9F007FF13C0FE0184910E942F
:1012C0001309182F80E00E941309812321968111B0
:1012D000EFCFDF91CF911F910F91FF90EF90089585
:1012E0008881EDCF81E0F5CFDF92EF92FF920F93EF
:1012F0001F93CF93DF93D82E8A01EB017B01E40E7D
:10130000F51ECE15DF0559F0D7FE12C0FE018491FF
:101310000E94130921968111F4CF0FEF1FEFC8012E
:10132000DF91CF911F910F91FF90EF90DF90089583
:101330008881EECF615030F02091F100FC012083D4
:101340000196F8CF289884E680931604089580913A
:10135000E00281110DC082E08093DC0284E0809382
:10136000DD021092DF021092DE0281E08093E00243
:101370008CED92E008950F931F93CF93DF931F920C
:10138000CDB7DEB782E0898342E450E06FE276E0D9
:1013900080E80E9474090E94A709DC0112960D9151
:1013A0001C910115110589F0D801ED91FC91028085
:1013B000F381E02DBE016F5F7F4FC801099597FD56
:1013C00004C0F80100851185ECCF89810F90DF9171
:1013D000CF911F910F9108958F929F92AF92BF92DC
:1013E000CF92DF92EF92FF920F931F93CF93DF93F1
:1013F0006C017B018A0180911201882309F45CC091
:1014000080911704882309F457C08091EE0280FF71
:1014100005C08091E00082608093E000E801B12C7B
:101420008AEFA82E93E0892E2AE3922E209711F4BA
:10143000BB20D9F10E94FD0781110AC0AA94AA20FD
:10144000D9F161E070E080E090E00E94D508EECF35
:101450008C171D0611F00CF08C2F9FB7F89480921A
:10146000E9002091E80025FD02C09FBFDFCF282FB3
:1014700030E0C21BD30BF701815020F04191409323
:10148000F100FACFE20EF31EBB2021F09092E800AB
:10149000B12CEBCF8091E80085FDE7CF9092E8007A
:1014A000BB24B394209709F3F3CF5D9884E680932F
:1014B000ED02101611063CF081E090E0F6019383F6
:1014C000828310E000E0C801DF91CF911F910F915E
:1014D000FF90EF90DF90CF90BF90AF909F908F9054
:1014E0000895CF93DF931F92CDB7DEB76983DC01F8
:1014F000ED91FC910280F381E02D41E050E0BE01CE
:101500006F5F7F4F09950F90DF91CF9108950F93F3
:101510001F93CF93DF938C01D0E0C0E0F801EC0F74
:10152000FD1F6491662341F088E194E00E94710AF6
:10153000892B11F02196F2CFCE01DF91CF911F912F
:101540000F9108950E94FD0790E00895CF93DF93D7
:101550001F92CDB7DEB7FC018485958597FD08C045
:101560002FEF3FEF358724870F90DF91CF910895BC
:10157000CE0101960E94C607019719F4898190E077
:10158000F3CF8FEF9FEFF0CF0F931F93CF93DF93A6
:101590001F92CDB7DEB78C01FC018485958597FF3E
:1015A0000BC0CE0101960E94C607019771F4898194
:1015B00090E0F80195878487F801848595850F90E0
:1015C000DF91CF911F910F9108958FEF9FEFF1CF92
:1015D000FC018485958597FD0BC09FB7F89482E048
:1015E0008093E9008091F2009FBF90E001960895FA
:1015F0009FB7F89482E08093E9008091F2009FBF4A
:1016000090E008958091A903811102C08091A80300
:101610008093040308959FB7F89421E1829FF0011D
:101620001124E554FC4F20813181338322839FBFF5
:1016300008958091710081FD41C140912F034423A1
:1016400009F43CC1909106016091BB037091BC0309
:101650002091BD033091BE036217730709F428C1BE
:101660008FEF6217730708F481E02091010130E0E9
:10167000281731F01816D4F55C9880930101342FA7
:10168000680F711D87FD7A957093BC036093BB034F
:1016900080E1923028F16091CC037091CD03E0910C
:1016A000CE03F091CF036E177F0721F12FEF6E1756
:1016B0007F0708F421E050910201521731F0121611
:1016C000BCF4469820930201342F8062620F711D92
:1016D00027FD7A957093CD036093CC03923069F423
:1016E00090E020E0332309F4B1C0AAC05C9AC5CFD2
:1016F000469AE8CF923009F4CEC06091DD03709134
:10170000DE03E091DF03F091E0036E177F0709F439
:10171000BFC02FEF6E177F0708F421E0509103013F
:10172000521739F012160CF0B1C05F9820930301E4
:10173000342F8064620F711D27FD7A957093DE034C
:101740006093DD03933061F26091EE037091EF03DB
:10175000E091F003F091F1036E177F0709F4A0C048
:101760002FEF6E177F0708F421E050910401521704
:1017700039F012160CF092C0769820930401342FA1
:101780008068620F711D27FD7A957093EF03609357
:10179000EE03943009F4A4CF6091FF03709100042C
:1017A000E0910104F091020420E06E177F07C9F078
:1017B0002FEF6E177F0708F421E0509105015217B3
:1017C00039F012160CF070C0589820930501342F90
:1017D000620F711D27FD7A95709300046093FF03DB
:1017E00020E4953009F458C0609110047091110400
:1017F000E0911204F09113046E177F0709F44CC0B6
:101800009FEF6E177F0708F491E05091060159177A
:1018100039F019160CF04AC08C9890930601342FB9
:10182000690F711D97FD7A957093110460931004F0
:1018300090E2492F482B422B09F440C0332321F07A
:10184000EBE1F0E03197F1F7882319F035B1382B4F
:1018500035B9222319F03BB1322B3BB9992319F04A
:1018600031B3392B31BB882321F035B180958323E7
:1018700085B9222321F08BB1209528232BB99923F8
:10188000E9F081B39095982391BB08955F9A4ECF6C
:10189000933009F059CF20E090E0CBCF769A6DCF0E
:1018A000943009F079CFF7CF589A8FCF8C9AB5CF73
:1018B00030E080E0923008F0EECE08950895F8947C
:1018C000109290008AE08093910081E490E09093E0
:1018D000990080939800109295001092940082E0F5
:1018E00088BB8093710078940895809126018111BE
:1018F00004C084E080930601089585E0FBCFE9EB06
:10190000F3E010821182EAEAF3E014821582E0E14A
:10191000F4E0148215828FEF9FEF90930004809380
:10192000FF0390931104809310049093020480931A
:1019300001049093130480931204E5EBF3E0118209
:10194000108213821282E1EBF3E011821082138283
:101950001282EFEAF3E010821182089520911401BF
:101960003091150140911601509117012115310553
:1019700041055105C1F0CA01B90196958795779542
:101980006795605C7D4B804F9F4F0E941D302115F5
:10199000310581E04807510520F02FEF3FEF40E08F
:1019A00050E0C901089590E080E008953F924F9281
:1019B0005F926F927F928F929F92AF92BF92CF92DF
:1019C000DF92EF92FF920F931F93CF93DF9300D09C
:1019D00000D000D0CDB7DEB7182F362E29013A013E
:1019E000E5E0811101C0E4E0EE2EF12C01E1E09F81
:1019F000F0011124E554FC4F2281338180819181D3
:101A000028173907C9F080E026960FB6F894DEBF94
:101A10000FBECDBFDF91CF911F910F91FF90EF903F
:101A2000DF90CF90BF90AF909F908F907F906F90FE
:101A30005F904F903F9008950E94B0084B015C0169
:101A4000411451046104710441F440901401509018
:101A500015016090160170901701412F50E08A0126
:101A6000000F111F000F111F1E830D83F801EF528D
:101A7000FD4F80819181A281B38195018401081B72
:101A8000190B2A0B3B0B041515052605370508F421
:101A9000BACF81E18E9DF0018F9DF00D1124E554A8
:101AA000FC4FC080D180E0911301F0E09F01A32D95
:101AB000032C000CBB0B0E9478302B013C014C0C1A
:101AC0005D1C611C711C4114510411E0610671041C
:101AD0002CF044244A94542C612C712C77FE03C0C2
:101AE000412C512C320121E12E9DC0012F9D900DE2
:101AF000112485549C4FDC0113965C924E921297F0
:101B00002D813E812F523D4FD9018D929D92AD92F4
:101B1000BC921397BFEF3B1212C0440F551FDA015E
:101B2000AB54BC4F8D919C9111979F01209530959E
:101B30002817390720F0E80FF91FED93FC9381E097
:101B400063CF853031F486B18095881F8827881F40
:101B50000895863039F48FB186FB882780F991E0AB
:101B60008927089580E00895DF92EF92FF920F9306
:101B70001F93CF93DF93D82E042F122F623071055D
:101B800040F0CB01880F991F880F991F0597019787
:101B9000F1F7D0E0C0E083ECE82EF12C8D2D0E940F
:101BA000A10D8111CF5FC7010197F1F7DF5F0D1321
:101BB000F5CF81E0C11708F480E0DF91CF911F914C
:101BC0000F91FF90EF90DF90089540911401509194
:101BD00015016091160170911701493C510561058D
:101BE000710530F422E042E070E060E00C94B40D46
:101BF000453F51406105710518F422E043E0F4CF00
:101C000023E045E0F1CF0895CF93DF93EC01888185
:101C10009981FC01009721F4DF91CF910895FA0199
:101C2000CF012081AF014F5F5F4F2032C1F32930D8
:101C3000B1F3211105C0F983E88390E080E0ECCF97
:101C4000DF012191222331F0203211F02930C1F738
:101C50001C92DF01B983A883DFCF1F93CF93DF935B
:101C6000EB01FC01DF018D918032F1F08930E1F070
:101C700080E020E030E0A901119190ED910F9A30C1
:101C8000A8F4AAE0B0E00E941230212F110F330B0C
:101C900020533109032E000C440B550B260F371F20
:101CA000481F591F81E0E8CFFD01DCCF882321F0D8
:101CB000288339834A835B83DF91CF911F910895F5
:101CC0000F931F93CF93DF9300D000D0CDB7DEB733
:101CD000009709F18B0119821A821B821C82BE01B6
:101CE0006F5F7F4F0E942D0E882361F049815A81DA
:101CF0006B817C814F3F51056105710509F058F4F6
:101D0000F80140830F900F900F900F90DF91CF91CB
:101D10001F910F91089580E0F5CFDC01FB012D911B
:101D20009191222331F0992311F02917C1F380E01A
:101D300003C081E09111FBCF0895FC0101900020C8
:101D4000E9F73197AF01481B590BBC0188E194E0DA
:101D50000C94EC098F929F92AF92BF920F931F93B6
:101D6000CF93DF93CDB7DEB7A1970FB6F894DEBF60
:101D70000FBECDBF19A2423008F44AE08E010F5DBC
:101D80001F4F842E912CB12CA12CA50194010E94EF
:101D90001D30E62FB901CA01EA30F4F4E05DD80144
:101DA000EE938D01232B242B252B79F790E080E0F7
:101DB000109719F0CD010E949D0EA1960FB6F894D0
:101DC000DEBF0FBECDBFDF91CF911F910F91BF90AE
:101DD000AF909F908F900895E95CE1CFCF93DF9310
:101DE0000E949D0EEC018AE691E00E949D0E8C0FF0
:101DF0009D1FDF91CF910895CF93DF930E94870AB3
:101E0000EC018AE691E00E949D0E8C0F9D1FDF91F0
:101E1000CF9108950C94FC0EAF92BF92CF92DF92B7
:101E2000EF92FF920F931F93CF93DF93CDB7DEB75F
:101E300062970FB6F894DEBF0FBECDBF5C01CB0139
:101E40009E01235F3F4F7901890120E03AE0C32ED4
:101E5000D12C0097A9F480E38D8721E0822F90E0B8
:101E60009701280F391FDE0111968D01E216F30646
:101E700099F0F90142919F014D93F8CF253071F30C
:101E80002F5FB6010E945E30805DD8018D938D0179
:101E9000CB01009799F7E2CF800F911FDC011C92D4
:101EA000C5010E940A0FC8010E94EE0E62960FB68D
:101EB000F894DEBF0FBECDBFDF91CF911F910F9180
:101EC000FF90EF90DF90CF90BF90AF900895CF93A9
:101ED000DF93EC018DE094E00E94870ACE01DF9150
:101EE000CF910C94FC0EBC0190E080E04AE00C9491
:101EF000AA0EFF920F931F93CF93DF93EC018B01F8
:101F0000FB01F0800E94FC2FF81621F06F2DCE010E
:101F10000E940430F801F1802196CE010E94FC2F2E
:101F2000F81621F06F2DCE010E940430C801DF9118
:101F3000CF911F910F91FF9008950F931F93CF930F
:101F4000DF9300D0CDB7DEB78C010E94FC2F8983D0
:101F5000C80101960E94FC2F8A8389819A810F9083
:101F60000F90DF91CF911F910F910895CF93DF9341
:101F700080E490E00E949D0F21E0892B09F420E08D
:101F80002093260184E490E00E949D0F21E0892B9C
:101F900009F420E0209327018CE490E00E949D0F3B
:101FA00021E0019709F020E0209396038FEF8093C2
:101FB0006B03809376038093810380938C038093DB
:101FC000970384E590E00E949D0F8536910510F4FB
:101FD0008093970380E291E00E949D0FEC01C297ED
:101FE0008F3D964210F0CCE2D1E0BE017695679528
:101FF00090E080E0605C7D4B804F9F4F9E0150E001
:1020000040E00E941D30C83283E2D80708F5C0378F
:1020100087E1D807F8F4CC3A8DE0D807E8F4C83067
:1020200087E0D807D8F4C03283E0D807C8F4CC32B0
:10203000D140C0F082E02093140130931501409309
:1020400016015093170180931301DF91CF910895EA
:1020500080E1F1CF8CE0EFCF88E0EDCF85E0EBCFF2
:1020600083E0E9CF81E0E7CFEF92FF920F931F93D8
:10207000CF93DF93CDB7DEB7AE970FB6F894DEBF40
:102080000FBECDBFF82EE62E10E000E0C8010E9482
:10209000FC2F8F3F21F06FEFC8010E9404300F5FCB
:1020A0001F4F011584E0180789F7E8E1F1E048E9DE
:1020B00053E022EA33E000E114E06FEF7FE781E0D4
:1020C00061937193DA011D921D92AD01D9018D9337
:1020D0009D01D8011D928D01B1E0E032FB0781F72F
:1020E00010922101109220011092A1031092A003DE
:1020F0001092A6031092140480932201809323016E
:102100008093240180932501F0922601809118018B
:1021100090911901988B8F87BE01615F7F4F90E08E
:1021200080E00E94790F80911A0190911B019A8B97
:10213000898BBE016F5E7F4F88E090E00E94790F2F
:1021400080911C0190911D019C8B8B8BBE016D5E5B
:102150007F4F80E190E00E94790F80911E01909165
:102160001F019E8B8D8BBE016B5E7F4F88E190E0DF
:102170000E94790F8091980390919903988F8F8B8B
:10218000BE01695E7F4F84E090E00E94790F8091EC
:102190009A0390919B039A8F898FBE01675E7F4F50
:1021A0008CE090E00E94790F80919C0390919D03B8
:1021B0009C8F8B8FBE01655E7F4F84E190E00E9413
:1021C000790F80919E0390919F039E8F8D8FBE010A
:1021D000635E7F4F8CE190E00E94790F18A21F8E02
:1021E000BE01615E7F4F80E290E00E94790F1AA2EB
:1021F00019A2BE016F5D7F4F84E290E00E94790FCB
:102200001CA21BA2BE016D5D7F4F88E290E00E9480
:10221000790F1EA21DA2BE016B5D7F4F8CE290E084
:102220000E94790F01E010E018A70FA3BE01695DBD
:102230007F4F80E390E00E94790F1AA709A7BE01A3
:10224000675D7F4F84E390E00E94790F1CA70BA786
:10225000BE01655D7F4F88E390E00E94790F1EA765
:102260000DA7BE01635D7F4F8CE390E00E94790F64
:102270008F2D90E09E878D87BE01635F7F4F80E446
:1022800090E00E94790FF12CFA82E982BE016F5F23
:102290007F4F84E490E00E94790F1C821B82BE0174
:1022A0006D5F7F4F8CE490E00E94790F1E821D824B
:1022B000BE016B5F7F4F80E590E00E94790F109226
:1022C00096030FEF10E018870F83BE01695F7F4F01
:1022D00084E590E00E94790F1A870987BE01675F45
:1022E0007F4F88E590E00E94790F8FEF80939703EE
:1022F00083E090E09C878B87BE01655F7F4F88E419
:1023000090E00E94790F8CE494E00E940A0FAE9650
:102310000FB6F894DEBF0FBECDBFDF91CF911F91F6
:102320000F91FF90EF900895CF93DF93EC016DE64E
:1023300071E00E947F30892B31F461E087E1DF9109
:10234000CF910C940E0861E771E0CE010E947F30BE
:10235000892B99F36AE771E0CE010E947F30892BC7
:1023600061F360E0EBCF109215048091140491E0CA
:10237000892720E030E8309300042093FF03309356
:10238000110420931004309302042093010430932D
:102390001304209312048093B9031092BA0310928D
:1023A000B6031092B5031092B8031092B7031092BF
:1023B000B2031092B1031092B4031092B3031092BF
:1023C000AF031092B003882341F09093AE031092B4
:1023D000140481E891E00C949411089580912F03E6
:1023E00081110BC080910403882321F088E891E0DB
:1023F0000C9494118DE891E0FBCF089561E082E1A7
:102400000E940E0810922F0380910403811104C0D2
:1024100088E196E00E940A0F0E94020B0C94EE11D4
:10242000CF93DF93EC010E947F0C109215040E9461
:10243000FE110E94020B0E94EE11CE01DF91CF919E
:102440000C94FC0E60E082E10E940E0881E0809313
:102450002F0380910403811104C082E096E00E9462
:102460000A0F8DE691E00C9494112F923F924F92B7
:102470005F926F927F928F929F92AF92BF92CF9214
:10248000DF92EF92FF920F931F93CF93DF9300D0D1
:1024900000D000D0CDB7DEB7F9EB4F2EF3E05F2EC2
:1024A000F12CE12C22242394A1E17A2E6E2CF2014E
:1024B00081912F0181508430D0F5809104038111E6
:1024C00002C00E94FE11611052C0F4E0F98305E0E1
:1024D0009981892F90E09E838D83880F991F9C831B
:1024E0008B83FC01E85EFE4F808091808BE02D8124
:1024F0003E81829FF001839FF00D1124EF59FC4F24
:1025000011851123C1F181149104C1F510E09FEFF1
:10251000998339803194F201B2906F01F2E0BF16D5
:1025200009F47FC0FB1568F121E0B216D9F1EA94F5
:10253000EF28C9F426960FB6F894DEBF0FBECDBFC4
:10254000DF91CF911F910F91FF90EF90DF90CF908F
:10255000BF90AF909F908F907F906F905F904F90C3
:102560003F902F900895EE24E394F12C9FCF25E027
:10257000298306E0ADCFEFEFE983CBCFF1E0F9831C
:10258000C8CF33E0B31609F475C084E0B812CFCFDA
:10259000802F0E94E50D882309F421C120E030E05E
:1025A000A90166C0F701EE0FFF1FEB54FC4F11822B
:1025B0001082802F0E94E50DF701E155FC4F882322
:1025C000B9F02D813E81729ED001739EB00D112411
:1025D000A554BC4F80E090E811969C938E9313967F
:1025E0009C938E931297108222E0F60120839FCF56
:1025F0001B25812F90E09195819591092D813E8138
:10260000729ED001739EB00D1124A554BC4F11963B
:102610009C938E9313969C938E931297B08223E093
:10262000E4CF802F0E94E50D81110CC0F701E15528
:10263000FC4F2082F701EE0FFF1FEB54FC4F11827D
:102640001082EDCF209114013091150140911601B7
:10265000509117012D3281E038074105510540F0B6
:10266000CA01B90123E030E040E050E00E941D3093
:10267000632DB1C0F701E155FC4F80815701AA0CD1
:10268000BB1C811147C0F501EB54FC4F5F018081F9
:102690009181019609F055C08D819E81789EF0014F
:1026A000799EF00D1124E554FC4F80819181938334
:1026B0008283ED81FE81E655FC4F1082ED81FE8123
:1026C000E05FFB4F108225E0F60120830E94EE11AF
:1026D00087EF95E00E94870A802F90E00E94730F99
:1026E0008EEC95E00E94870AF501808191810E941D
:1026F000730F85EC95E00E94870A8FEF9FEF0E9491
:10270000730F83EC95E00E94FC0E8DE495E00E942F
:102710000A0F0DCF802F0E94E50D882309F4B3CF57
:10272000EB81FC81E856FC4F80819181009711F488
:1027300084E190E0F501EF54FC4F9183808324E025
:1027400054CF2D813E81729EF001739EF00D1124B5
:10275000E554FC4F80819181B0E0A0E040E050E082
:10276000BA01112321F04FEF5FEF60E070E08417B2
:102770009507A607B70759F58D819E81789EF001D0
:10278000799EF00D1124E554FC4F80819181938353
:102790008283ED81FE81E655FC4F1082ED81FE8142
:1027A000E05FFB4F108225E0F60120830E94EE11CE
:1027B00082E495E00E94870A802F90E00E94730FC8
:1027C00085E095E00E94FC0E83E894E0A0CF20E035
:1027D00030E0A9016981862D0E94D60CA8CEC701E0
:1027E000880F991FFC01EF54FC4FFA83E983A08006
:1027F000B180A114B104C1F020E030E0A901632D43
:10280000862D0E94D60C882309F491CE8091130165
:1028100090E0A816B90608F4C501A81AB90AE9811A
:10282000FA81B182A08283CE2D813E81729EF00119
:10283000739EF00D1124E554FC4F22813381808179
:1028400091812817390709F072CE802F0E94E50D7B
:102850008111A4CEEB81FC81E856FC4F80819181EF
:10286000112371F1B0E0A0E0880F991FAA1FBB1FD0
:10287000A40170E060E084179507A607B70700F58C
:10288000F401E81BF90BCF012D813E81729EF0010E
:10289000739EF00D1124E554FC4F91838083938344
:1028A0008283F901E05FFB4F208226553C4FF901FE
:1028B0001082F60110828DE691E00E94941137CECD
:1028C00090E080E0E1CF2F923F924F925F926F9223
:1028D0007F928F929F92AF92BF92CF92DF92EF92B0
:1028E000FF920F931F93CF93DF93CDB7DEB7C555FC
:1028F000D1090FB6F894DEBF0FBECDBF4FE250E056
:1029000061E373E0CE0101960E94883018AAFE01AF
:1029100031962E2F9F2FDF018D91803289F08930E3
:1029200079F0882309F44DC08191882359F03FE95B
:10293000380F3A3108F48052DF0111978C93F4CFAD
:10294000FD01E7CF22962FAF229723969FAF2397C3
:10295000CE018F5B9F4F0E94040E8C01009789F17E
:10296000DC018C91853409F059C011968C91882333
:1029700029F090ED980F9A3008F050C019AA8111F3
:102980003AC0CE018F5B9F4F0E94040E009729F43E
:1029900081E19FE00E94670F14C0BE016F5C7F4F12
:1029A0000E94600E8823A1F389A98150853080F7A9
:1029B00089A90E94A10D882371F185E09FE00E9402
:1029C000FC0ECB5ADF4F0FB6F894DEBF0FBECDBF63
:1029D000DF91CF911F910F91FF90EF90DF90CF90FB
:1029E000BF90AF909F908F907F906F905F904F902F
:1029F0003F902F900895BE016F5C7F4FC8010196F4
:102A00000E94600E882321F089A98150853080F2D0
:102A100087E09FE0BFCF83E09FE0D1CF63E971E023
:102A2000C8010E948D0E811121C06CE971E0C801BE
:102A30000E948D0E81111AC062EA71E0C8010E94E5
:102A40008D0E81111DC06DEA71E0C8010E948D0ECE
:102A5000882301F181E08093A8038093A7030E945B
:102A6000020B0E94EE1188ED9EE0A9CF81E08093D9
:102A7000A9030E94020B0E94EE1183EF9EE09FCFFC
:102A800081E08093A9030E94020B84EE9EE00E94E5
:102A9000101297CF6AEB71E0C8010E948D0E882357
:102AA00009F45CC01092300381E08093A80382E0B7
:102AB0008093A7030E94020B0E94020B80E00E94F9
:102AC0000B0B81E00E940B0B82E00E940B0B83E05A
:102AD0000E940B0B84E00E940B0B0E94221280913B
:102AE0002601882399F080911404811114C08AEB87
:102AF0009CE00E94FC0E0E94B3118091AE038823DB
:102B0000F9F00E9435120E94190BF7CF8FEF9CE06D
:102B10000E94FC0E12C08EED9CE00E94FC0E8AEC1E
:102B20009CE00E94870A8091A0039091A1030E94DB
:102B3000730F8AE691E00E949D0E80E29DE03FCFF8
:102B400080911404882339F081EB9CE00E94FC0EF4
:102B50008DE99CE0E6CF8CE49CE0DACF63EC71E099
:102B6000C8010E948D0E882309F4CBC01092A803DF
:102B70001092A7030E94020B80913003811121CF94
:102B800080912F03882309F4B9C010922E0310926C
:102B90002D0320919703253608F0ADC080912601C2
:102BA000882309F4A8C080911404882309F4A3C0E1
:102BB000A0912001B0912101109709F49CC080914F
:102BC000A0039091A103880F991F8A179B0708F40F
:102BD0008FC0B0E0A0E030E00E943F3024E630E05B
:102BE00040E050E00E941D3030932A0320932903D7
:102BF00081E080932D038FB7F8940091FF0310912B
:102C000000048FBF8091290390912A0380179107B8
:102C100008F46BC0FC01E01BF10B8F0180912D03C8
:102C2000811105C080912E03882309F467C087E3D2
:102C30009CE00E940A0F81E891E00E94941110929A
:102C400015048091140190911501A0911601B09185
:102C5000170188379105A105B10520F488E790E0B8
:102C6000A0E0B0E08093250390932603A093270370
:102C7000B093280380911301809324030E94AE0C2B
:102C80005C010E9407096B017C019801A8EEB3E08A
:102C90000E943F30A114B10419F4AA24A394B12CCA
:102CA000F8E8CF0EF3E1DF1EE11CF11C950150E0C6
:102CB00040E00E941D30C20ED31EE41EF51EC092DD
:102CC0002003D0922103E0922203F09223030E947A
:102CD000B00860931C0370931D0380931E039093B0
:102CE0001F0381E0809330036CCE081B190B96CF35
:102CF000A81BB90B70CF10E000E090CF8CEC9EE0E9
:102D0000C6CE6EEC71E0C8010E948D0E882359F08A
:102D10001092A8031092A7030E94020B0E94EE11CA
:102D200083EC9EE04CCE66ED71E0C8010E948D0EF2
:102D3000811118C06EED71E0C8010E948D0E8111E5
:102D400011C069EE71E0C8010E948D0E811115C09D
:102D500065EA71E0C8010E948D0E882389F180E246
:102D60009CE095CE1092A9031092A7030E94020B3B
:102D70000E94EE1180EB9EE022CE0E94020B80E0CA
:102D80000E940B0B81E00E940B0B82E00E940B0B58
:102D900083E00E940B0B84E00E940B0B0E94221226
:102DA00080912601882349F080911404811105C087
:102DB0008091A60381110E94B3118CE29CE0FFCDAB
:102DC0006FE572E0C8010E948D0E882309F477C078
:102DD0008DE09CE00E94870A81E00E94612585E0E9
:102DE0009CE00E94870A80912F03882309F465C024
:102DF00081E30E94DC238EEF9BE00E94870A0E9401
:102E0000AE0C0E94730F83EF9BE00E94870AA2E240
:102E10008A2EA1E09A2EB2EAAB2EB3E0BB2E18E1C7
:102E2000C12E11E0D12E08E9E02E03E0F02E01E6DC
:102E300013E0712C80EF9BE00E94870A7394872D2A
:102E40000E9461258DE30E94DC23D4018D914D0108
:102E50000E9461258CE20E94DC23F50181915F01D3
:102E60000E9461258CE20E94DC23D6018D919D9108
:102E70006D010E94730F8CE20E94DC23F7018191A7
:102E800091917F010E94730F8CE20E94DC23D80194
:102E900019968C910E9461258CE20E94DC23F80136
:102EA00082850E946125055F1F4FF5E07F12C2CF2A
:102EB0008AE691E00E949D0E84CD80E39ACF6DE674
:102EC00072E0C8010E948D0E882309F4E3C1CE018F
:102ED0008F5B9F4F0E94040E7C01CE018F5B9F4F42
:102EE0000E94040E6C01CE018F5B9F4F0E94040E66
:102EF0008C01E114F10419F0C114D10419F487EA2A
:102F00009EE048CD19AA1AAA1BAA1CAABE016F5C92
:102F10007F4FC6010E942D0E811103C08DE99EE0F6
:102F200039CD89A99AA9ABA9BCA90097A140B1053F
:102F300040F08FEF9FEFA0E0B0E089AB9AABABAB76
:102F4000BCAB24961FAE24970115110589F0BE0174
:102F50006D5B7F4FC8010E94600E882331F024967C
:102F60008FAD24978150853018F083E99EE012CD13
:102F700060EF71E0C7010E948D0E882309F481C0C3
:102F80000E945D250E94F00765E070E080E090E01F
:102F90000E94D508C9A8DAA8EBA8FCA83C2D2D2DC5
:102FA0009E2D8F2D41E1C41647E2D406E104F104C1
:102FB00020F030E127E290E080E0832E922EA92ECF
:102FC000B82E82E388169104A104B10428F4F2E338
:102FD0008F2E912CA12CB12CC501B401969587950B
:102FE00077956795605C7D4B804F9F4FA50194015D
:102FF0000E941D3080E198E2C91693E2D906E104EF
:10300000F10448F58CE0A0E7CA16A7E1DA06E1046E
:10301000F10408F588E0BCEACB16BDE0DB06E1046C
:10302000F104C8F485E0E8E0CE16E7E0DE06E1044E
:10303000F10488F483E0F0E2CF16F3E0DF06E10468
:10304000F10448F481E00CE2C01601E0D006E1048E
:10305000F10408F082E020931401309315014093AD
:103060001601509317018093130121969FAE8EAEE7
:103070002197BE01615C7F4F80E291E00E94790F51
:10308000A0CC24961FAD249784E89EE0112309F478
:1030900081CC0FEF010F60EB71E0C7010E948D0E34
:1030A000882319F121E089A99AA9ABA9BCA9892B88
:1030B0008A2B8B2B09F420E0E02FF0E0DF01AE5DDE
:1030C000BE4F2C93EE0FFF1FE858F14F859194915E
:1030D00030E03EAF2DAFBE01635C7F4F0E94790FA1
:1030E0000E94750C0E945D256CCC63E972E0C701FB
:1030F0000E948D0E882391F189A99AA9ABA9BCA938
:103100009C01153020F497FF02C02FEF3FE7E02E1F
:10311000F12CF701EE0FFF1F8F01085E1E4FD80143
:103120002D933C93E459F14F859194913CAF2BAF93
:10313000BE01655C7F4F0E94790F24968FAD249766
:103140000E94C325F701EE55FC4F81E0D8012D9177
:103150003C91232B09F480E08083C4CF69EF71E0B8
:10316000C7010E948D0E882309F18AE59EE0153083
:1031700008F410CC29A93AA9E02FF0E0EE0FFF1FC8
:10318000DF01A856BC4F2D933C93E25BF14F859134
:1031900094913AAF29AFBE01675C7F4F0E94790FCF
:1031A00024968FAD24970E94C3259CCF60E072E0E7
:1031B000C7010E948D0E8823E9F183E49EE015305B
:1031C00008F4E8CB49A95AA96BA97CA921E04115CB
:1031D00051056105710509F420E0A02FB0E0452BF1
:1031E000462B472B49F0FD01EE0FFF1FE85EFE4F17
:1031F00080819181892BD9F08BE08A9FF0018B9F90
:10320000F00D1124EF59FC4F2187A05FBB4F1C929A
:1032100030E08CE490E0043011F080E590E038AFCD
:103220002FABBE01695C7F4F0E94790F5BCF86E3B5
:103230009EE0B0CB6BE072E0C7010E948D0E882348
:1032400031F18BE29EE0153008F4A4CB89A99AA94C
:10325000ABA9BCA985369105A105B10520F08FEF7A
:1032600090E0A0E0B0E01BE0019FF0011124EF59D5
:10327000FC4F828724E530E0043011F028E530E08F
:103280009EAB8DABBE016B5C7F4FC901CDCF8FE193
:103290009EE080CB63E172E0C8010E948D0E88231E
:1032A00009F40EC6CE018F5B9F4F0E94040E8C0165
:1032B000CE018F5B9F4F0E94040E0115110519F47A
:1032C00086E19EE067CB1DAA009769F0BE016B5CAA
:1032D0007F4F0E94600E882319F08DA9863018F068
:1032E0008CE09EE057CB66E172E0C8010E948D0E33
:1032F000882331F00E947F0C81E080931504F2CE88
:103300006DE172E0C8010E948D0EF82E882381F1D4
:103310008DA9853011F081110BC085E00E949725A1
:1033200089E09EE00E940A0F85E00E94A528F82E01
:103330008DA9863011F081110DC086E00E9497257D
:1033400086E09EE00E940A0F86E00E94A528811177
:1033500001C0F12C8DA9882331F08550823018F0FE
:103360008BEF9DE017CBF110BDCE8EEE9DE012CB22
:1033700068E272E0C8010E948D0E882379F08DA961
:103380009BEF980F923018F083EE9DE003CB0E94E4
:10339000F4238111A7CE87ED9DE0FCCA66E372E0BD
:1033A000C8010E948D0E882379F08DA99BEF980F9C
:1033B000923018F08CEC9DE0EDCA0E94F42381114C
:1033C00091CE80EC9DE0E6CA64E472E0C8010E9400
:1033D0008D0E882399F00E94221280912601882365
:1033E00009F480CE8091140481117CCE8091A603D3
:1033F000882309F477CE0E94B31174CE6DE472E095
:10340000C8010E948D0EB82E882339F00E947F0CCF
:10341000109215040E94FE1165CE67E572E0C801A6
:103420000E948D0E882309F497C0CE018F5B9F4FB9
:103430000E94040E8C01CE018F5B9F4F0E94040EF0
:103440007C010115110511F0892B19F487EB9DE022
:10345000A1CA19AABE016F5C7F4FC8010E94600E0D
:10346000082F882309F475C0A9A91FEF1A0F15307A
:1034700008F06FC0F70180812FEFE21AF20A803264
:10348000C9F38930B9F38B3231F1C12CD12C7601DB
:10349000C3948D3229F4CC24CA94DC2C7601319665
:1034A00020E030E0A901719080ED870D8A30C0F4F2
:1034B000AAE0B0E00E941230272D770C330B205386
:1034C0003109032E000C440B550B260F371F481FE4
:1034D000591FB02EE8CFC12CD12C7601C394DFCF79
:1034E000BB20A1F18FB7F894E12FF0E091E1199F93
:1034F000D0011124A554BC4F0D911C918FBFC70161
:10350000B6010E944E30DC01CB01800F911FA11D3E
:10351000B11D009701E0A007B10524F08FEF9FEFE8
:10352000A0E0B0E0B7FF03C080E090E0DC014FB75F
:10353000F89451E15E9F90015F9F300D1124F901D5
:10354000E554FC4F938382834FBFCCCD83EA9DE04B
:1035500021CA8DEA9DE01ECA6CE572E0C8010E9496
:103560008D0E882309F443C08DA98150853008F061
:1035700028CACE018F5B9F4F0E94040E19AA1AAA77
:103580001BAA1CAA009709F41CCABE016F5C7F4FDE
:103590000E942D0E882309F414CA89A99AA9ABA9FF
:1035A000BCA90097A140B10540F08FEF9FEFA0E0CC
:1035B000B0E089AB9AABABABBCAB8DA9815090E0CE
:1035C000FC01EE5DFE4F2081222309F4FAC949A9CE
:1035D0005AA92FB7F89431E1389FF001399FF00DC7
:1035E0001124E554FC4F538342832FBFEAC963E69D
:1035F00072E0C8010E948D0E882339F06091270186
:10360000809126010E9434106DCD61E772E0C801FF
:103610000E948D0E81112DC06CE772E0C8010E94DE
:103620008D0E811126C06BE872E0C8010E948D0EDC
:103630008111A5C067E972E0C8010E948D0E811159
:10364000E4C064EA72E0C8010E948D0E8111DDC001
:103650006CEA72E0C8010E948D0E8111D6C063EB46
:1036600072E0C8010E948D0E8111E8C187E39DE0E0
:1036700091C98DA99BEF980F923018F088E99DE0D1
:1036800089C90E94972586E99DE00E940A0F6DA9CD
:1036900070E085E99DE00E94BD241DA98BEF810F9C
:1036A000823038F084EC9BE00E940A0F88E89DE0AD
:1036B00071C9109215046FEA7BE0812F0E944425A6
:1036C0000E94B60F0E94750C49E95BE0612F81E012
:1036D0000E941425812F0E94A5286DE77BE0882396
:1036E00099F066E970E080E090E00E94D50847E636
:1036F0005BE0612F82E00E941425812F0E94072643
:10370000811106C06BE47BE0812F0E944425CECF5F
:103710008091150463E47BE08111F6CF8FEF810F78
:1037200090E0DC01AE55BC4F880F991FFC01E85EAC
:10373000FE4F81E020813181232B09F480E08C93BE
:10374000E12FF0E0E15FFB4F81E0808346E25BE048
:10375000612F83E00E941425812F0E94C3250E94BF
:10376000FE118DE891E00E94941181EE9AE00E9492
:103770000A0F6DEC7AE0812F0E944425B3CC8DA90D
:103780009BEF980F923018F08DE79DE003C90E94DF
:1037900097258BE79DE00E940A0F6DA970E08AE7EC
:1037A0009DE00E94BD248DA99BEF980F923038F0C8
:1037B0008BEA9AE00E940A0F8DE69DE0EBC80E941A
:1037C00007268823C9F38DA9EFEFE80F2E2F30E0ED
:1037D00041E1E49FF0011124E554FC4F4081518107
:1037E000F901EE0FFF1FE85EFE4F51834083F901A0
:1037F000EE55FC4F91E0452B09F490E09083205F5B
:103800003B4F91E0D9019C93CECC8DA99BEF980FB3
:10381000923018F082E69DE0BDC80E94972580E6B0
:103820009DE00E940A0F6DA970E08FE59DE00E9467
:10383000BD245DA88BEF850D823028F083E89AE0E7
:103840000E940A0F1EC0109215040FEF050D10E024
:10385000F801E05FFB4F2696FFAFEEAF2697808121
:10386000811112C063E57AE0852D0E944425852DE3
:103870000E94A528811108C067E37AE0852D0E9487
:10388000442581E59DE086C87801EE0CFF1CF70118
:10389000E85EFE4F80819181892B19F485E19AE0E1
:1038A000CFCF852D0E94A024F701E856FC4F608001
:1038B0007180680E791E76946794C0901401D09040
:1038C0001501E0901601F0901701F8E7CF16D1042A
:1038D000E104F10428F428E7C22ED12CE12CF12CCC
:1038E000409013010E94B0084B015C010E9422121B
:1038F00081E891E00E94941121E1209FC001219F65
:10390000900D11248C0105541C4F1801842D90E05A
:10391000B0E0A0E066968CAF9DAFAEAFBFAF66974C
:10392000830130E020E02C960CAF1DAF2EAF3FAFEF
:103930002C9781010E5F1F4F2E961FAF0EAF2E9753
:10394000042D10E062961FAF0EAF6297D1018D91EA
:103950009C9111976816790609F45CC00E941B249B
:10396000882371F06DE07AE0852D0E9444250E9445
:1039700074250E94FE1181E891E00E94941181CF8C
:103980000E94B008681979098A099B0997FD20C02F
:103990008C0C9D1CAE1CBF1CF101008111816016B6
:1039A0007106C8F40E948B2562962EAD3FAD6297DA
:1039B0002017310728F4021B130B0615170508F40E
:1039C00083012E96AEADBFAD2E9711961C930E932C
:1039D0000E94190BBBCF0E947F2566964CAD5DAD52
:1039E0006EAD7FAD6697400F511F611D711D2C9606
:1039F0008CAD9DADAEADBFAD2C97481759076A078A
:103A00007B0708F4CA012E96EEADFFAD2E97918389
:103A10008083DECF13967C926E92129781E0269679
:103A2000EEADFFAD269780830E9468258DE891E07A
:103A30000E9494116BEF79E0852D9ECE8DA99BEFAE
:103A4000980F923020F086E49DE00C94CA140E94F6
:103A500097251DA90E94E62322242A94210E6AEDAF
:103A600079E0812F0E944425812F0E94A528811191
:103A70000AC06FEB79E0812F0E9444250E947425D3
:103A80000E94E1232FCB312CF101EE0FFF1FE856EE
:103A9000FC4F80809180812F0E94A0242A969FAFA6
:103AA0008EAF2A978091140190911501A091160173
:103AB000B091170128968CAF9DAFAEAFBFAF2897DE
:103AC00088379105A105B10550F488E790E0A0E0A2
:103AD000B0E028968CAF9DAFAEAFBFAF28970091F6
:103AE00013010E94B0082B013C016DEA79E0812F9F
:103AF0000E9444258CE899E00E940A0F0E9422123D
:103B000045E759E0612F81E00E9414258EE599E098
:103B10000E940A0F0E948B2521E1229DC001239D56
:103B2000900D1124DC01A554BC4F7D01C02ED12C79
:103B30005D01B2E0AB0EB11CF70180819181881666
:103B4000990608F04CC088E194E00E94E80A892BAD
:103B5000D9F088E194E00E94C40A8197A9F488E131
:103B600094E00E94A60A81E08093150463E479E062
:103B7000812F0E9444250E9474250E94FE1181E835
:103B800091E00E9494117CCF0E94B00864197509DD
:103B90008609970997FD19C028968CAD9DADAEADED
:103BA000BFAD2897480E591E6A1E7B1ED7018D9106
:103BB0009C91C816D90628F48C199D098815990579
:103BC00008F4C401F501918380830E94190B809150
:103BD0001504882309F4B0CF68E279E0C9CF6CE21C
:103BE00071E080E090E00E94D50841E159E0612F4A
:103BF00082E00E9414258AEF98E00E940A0F0E943A
:103C00007F2521E1229DC001239D900D11249C015F
:103C100025543C4F5901802F90E0B0E0A0E0609621
:103C20008CAF9DAFAEAFBFAF60972A96AEADBFADC4
:103C30002A976D01F12CE12CF90132966296FFAFC3
:103C4000EEAF6297D5018D919C912A96EEADFFADB6
:103C50002A978E179F0708F04CC088E194E00E94D5
:103C6000E80A892B81F088E194E00E94C40A8197D8
:103C700051F488E194E00E94A60A81E08093150443
:103C80006FED78E075CF0E94B00864197509860958
:103C9000970997FD24C028968CAD9DADAEADBFAD04
:103CA0002897480E591E6A1E7B1ED5018D919C9146
:103CB00060964CAD5DAD6EAD7FAD6097480F591FFE
:103CC000611D711DC6014C155D056E057F0508F46B
:103CD000CA016296EEADFFAD6297918380830E9428
:103CE000190B80911504882309F4ACCF64EC78E0BB
:103CF0003FCF6CE271E080E090E00E94D5082A9608
:103D00002EAD3FAD2A97820E931E9694879444EB76
:103D100058E0612F83E00E94142584EA98E00E9415
:103D20000A0F0E948B2521E1229DC001239D900D49
:103D30001124DC01A554BC4F7D01C02ED12C5D01A6
:103D4000B2E0AB0EB11CF701808191818816990613
:103D500008F041C088E194E00E94E80A892B81F0D4
:103D600088E194E00E94C40A819751F488E194E0CC
:103D70000E94A60A81E08093150469E878E0F8CEF5
:103D80000E94B008641975098609970997FD19C042
:103D900028968CAD9DADAEADBFAD2897480E591E8F
:103DA0006A1E7B1ED7018D919C91C816D90628F4F6
:103DB0008C199D098815990508F4C401F5019183B2
:103DC00080830E94190B80911504882309F4BBCFCE
:103DD0006EE678E0CDCE0E947F2521E1229DC001D4
:103DE000239D900D11249C0125543C4F5901802F97
:103DF00090E0B0E0A0E02C968CAF9DAFAEAFBFAF2F
:103E00002C976401F12CE12C190192E0290E311C50
:103E1000D5018D919C918815990508F049C088E1DC
:103E200094E00E94E80A892B81F088E194E00E94E6
:103E3000C40A819751F488E194E00E94A60A81E0C7
:103E40008093150463E578E093CE0E94B00864196E
:103E500075098609970997FD21C028968CAD9DADFF
:103E6000AEADBFAD2897480E591E6A1E7B1ED50108
:103E70008D919C912C964CAD5DAD6EAD7FAD2C9728
:103E8000480F591F611D711DC6014C155D056E055A
:103E90007F0508F4CA01F101918380830E94190B08
:103EA00080911504882309F4B3CF68E378E060CEED
:103EB00067E278E0812F0E9444250E946825E0CDCA
:103EC0008BE29DE00C94CA140F931F93CF93C09183
:103ED000F502CC23E1F00E9407090091F102109154
:103EE000F2022091F3023091F402601B710B820BFD
:103EF000930B633371058105910548F0EC2FF0E0D9
:103F0000EF5CFC4F10820E9463141092F502CF9177
:103F10001F910F9108951F920F920FB60F921124C7
:103F20002F933F938F939F93AF93BF9380911403ED
:103F300090911503A0911603B091170330911303CC
:103F400023E0230F2D3758F50196A11DB11D2093B5
:103F500013038093140390931503A0931603B09357
:103F600017038091180390911903A0911A03B0913F
:103F70001B030196A11DB11D809318039093190393
:103F8000A0931A03B0931B03BF91AF919F918F91A0
:103F90003F912F910F900FBE0F901F90189526E81C
:103FA000230F0296A11DB11DD2CF1F920F920FB603
:103FB0000F9211242F933F934F935F936F937F93AF
:103FC0008F939F93AF93BF93CF93EF93FF93C09142
:103FD000E1008091E100837F8093E100C3FF0FC087
:103FE0001092E90081E08093EB001092EC0082E3F4
:103FF0008093ED001092170488E08093F000C2FFD8
:104000001AC00E94F0078091ED02882341F0809150
:10401000ED0281508093ED02811101C05D9A809183
:104020001604882341F08091160481508093160471
:10403000811101C0289AC4FF23C08091E2008E7EC6
:1040400081608093E2008091E1008F7E8093E100A7
:104050008091EE028E7E80618093EE02FF91EF915F
:10406000CF91BF91AF919F918F917F916F915F9110
:104070004F913F912F910F900FBE0F901F90189569
:10408000C0FFECCF8091E2008E7E80618093E200E1
:104090008091E1008E7E8093E1008091EE028E7E21
:1040A0008160DACF1F920F920FB60F921124CF9238
:1040B000DF92EF92FF920F931F932F933F934F93B3
:1040C0005F936F937F938F939F93AF93BF93EF9380
:1040D000FF93CF93DF93CDB7DEB76C97DEBFCDBF35
:1040E0001092E9008091E80083FF25C068E0CE01CE
:1040F00045960E949A0982EF8093E8008D8987FF98
:1041000039C09091E80090FFFCCF982F907609F08D
:1041100034C19E894F89588D2F89F88C911131C0F7
:10412000803861F58091EF028093F1001092F100E8
:104130008EEF8093E8006C960FB6F894DEBF0FBE4A
:10414000CDBFDF91CF91FF91EF91BF91AF919F9143
:104150008F917F916F915F914F913F912F911F911F
:104160000F91FF90EF90DF90CF900F900FBE0F90C8
:104170001F9018959EEF9093E800C7CF1092F10022
:10418000D5CF913059F48111D3CF4130510581F60B
:104190008091EF028D7F8093EF02CACF933049F474
:1041A0008111C6CF4130510519F68091EF0282602E
:1041B000F2CF953041F48091E80080FFFCCF206879
:1041C0002093E300B5CF963009F0A9C00B8D1C8D6C
:1041D00022E01092E9001092EB021092EA02F21231
:1041E0002EC01092E9021092E8020E94BB091F82C1
:1041F00099E09983FA8291E09E8390EA98879AEFFA
:1042000099872091EA023091EB02275F3F4F3C8370
:104210002B838D831092E9001092EB021092EA0238
:104220001093E9020093E80249E050E0BE016F5F9D
:104230007F4F80E00E9474090E94BB0979CF1093E0
:10424000E9020093E8020E94A709DC0112960D9191
:104250001C910115110509F451C1D801ED91FC9192
:104260000480F581E02DBE016B5E7F4FC80109958A
:10427000009709F03EC1F80100851185EACFF3E00F
:10428000FF120EC08F89882309F440C0823061F488
:1042900040E860E183E996E00E944109811148CF3E
:1042A00081E28093EB0047CF813029F440E86BE056
:1042B00087E896E0F1CF833099F70E94A709DC01E7
:1042C0001296ED90FC908E010F5F1F4F6801E11474
:1042D000F10479F0D701ED91FC910680F781E02D92
:1042E000B801C7010995080F111DF701E084F18499
:1042F000EECFD8011C92F60101900020E9F731972A
:10430000BF016C197D0940E0C601C6CF61E776E0C8
:10431000FB01449150E080E80E94740909CF973076
:1043200009F4BECF983021F481E08093F10000CFF2
:10433000993009F0FDCE837009F0B2CFE2E4F1E0EC
:1043400081E031E096E32191222371F08093E9002E
:104350003093EB00DF0111972C912093EC009093A8
:10436000ED008F5F873079F78EE78093EA00109237
:10437000EA008F8980931704DBCE8B8D9C8D109281
:10438000E9001092EB021092EA029093E902809306
:10439000E802898D811192C08E899D89913A49F4F4
:1043A000813209F07DCF47E050E06BE071E080E0C2
:1043B000B3CF913209F074CF833269F48F89988D2D
:1043C000B0E0A0E08093070190930801A093090159
:1043D000B0930A01ADCE803269F48091E80082FF8B
:1043E000FCCF67E08BE091E00E949A098BEF80930D
:1043F000E8009ECE823209F09BCE8F898093120115
:10440000EEEFFFE7859194918B3F9C4D51F1E0E0F9
:10441000F8E080910B0190910C01A0910D01B091F9
:104420000E01803B9440A105B105F1F48091120189
:1044300080FD1AC0EE3F8AE0F80789F587E797E725
:1044400091838083809160008093EC0288E19BE0FF
:104450000FB6F894A895809360000FBE909360000B
:1044600067CEEEEFFAE0D5CF80819181873797470D
:1044700009F05ECEA895809160008861809360000D
:104480008091EC0280936000EE3F2AE0F20789F011
:104490008091FE0A9091FF0A9183808349CE8081AA
:1044A00091818737980751F29093FF0A8093FE0A13
:1044B000C5CF1092FF0A1092FE0A3ACE0E94A709B9
:1044C000DC0112960D911C910115110509F4E8CE3D
:1044D000D801ED91FC910190F081E02DBE016B5E61
:1044E0007F4FC8010995811123CEF8010085118500
:1044F000EBCF181619060CF41BCED2CEF1E0FF124A
:10450000BECE65E776E004CF1F920F920FB60F92F2
:1045100011242F933F934F935F936F937F938F93C8
:104520009F938091DB02882331F095B18095892398
:1045300085B91092DB028091DA02882331F09BB1B9
:10454000809589238BB91092DA028091D902882351
:1045500031F091B38095892381BB1092D90280916B
:104560002F03882309F41BC1909106012091BB03FE
:104570003091BC034091BD035091BE032417350711
:1045800081F08FEF2417350708F481E04091010195
:10459000481709F445C018160CF040C05C98809389
:1045A000010180E0923008F4FAC02091CC033091F0
:1045B000CD034091CE035091CF032417350771F0FE
:1045C0002417350708F43CC04FEF509102015417EF
:1045D000D9F11416BCF54698409302019230D1F0FF
:1045E0002091DD033091DE034091DF035091E00321
:1045F0002417350769F024173507A0F14FEF5091C4
:104600000301541799F114167CF55F984093030148
:104610009330B9F5882309F4C2C022C05C9ABFCF99
:10462000280F311D87FD3A953093BC032093BB03BF
:1046300080E1923008F0B9CF20E080E190E09CC0AA
:1046400041E0C3CF469AC8CF8062240F311D47FD99
:104650003A953093CD032093CC03923009F0C0CF2C
:1046600020E0ECCF41E0CBCF5F9AD0CF8064240F25
:10467000311D47FD3A953093DE032093DD039330DF
:1046800079F32091EE033091EF034091F0035091C4
:10469000F1032417350769F02417350768F04FEF49
:1046A00050910401541761F0141644F47698409325
:1046B0000401943081F4AECF41E0F2CF769AF7CF87
:1046C0008068240F311D47FD3A953093EF03209306
:1046D000EE03943029F22091FF03309100044091C1
:1046E0000104509102042417350769F02417350797
:1046F00060F04FEF50910501541759F014163CF437
:1047000058984093050120E00DC041E0F3CF589A3E
:10471000F8CF240F311D47FD3A95309300042093C4
:10472000FF0320E49530C9F040911004509111042A
:1047300060911204709113044617570771F09FEFB0
:104740004617570708F491E030910601391749F0F0
:1047500019162CF48C989093060190E00BC08C9A5B
:10476000FACF490F511D97FD5A955093110440936C
:10477000100490E2882329F035B1382B35B98093A5
:10478000DB02222329F08BB1822B8BB92093DA0232
:10479000992329F081B3892B81BB9093D9029F91F2
:1047A0008F917F916F915F914F913F912F910F90DA
:1047B0000FBE0F901F901895682F88E194E00C941D
:1047C000710A82E088BB8093710008951092710095
:1047D00085B18F7085B95E988D981092DB0210922A
:1047E000DA021092D9020895382F80911401909125
:1047F0001501A0911601B091170188379105A10507
:10480000B10520F488E790E0A0E0B0E0BC01CD0164
:104810009695879577956795613D27E072078105A5
:10482000910520F060ED77E080E090E021E043E04A
:10483000832F0C94B40DCF92DF92EF92FF921F93CF
:10484000CF93DF93CDB7DEB768970FB6F894DEBF8E
:104850000FBECDBF1091150411111CC088E194E06A
:104860000E94E80A892BB1F0CE0101967C016C010F
:1048700088E194E00E94E80A892B21F1173111F1B7
:1048800088E194E00E94A60A813299F481E0809345
:10489000150411E0812F68960FB6F894DEBF0FBEA5
:1048A000CDBFDF91CF911F91FF90EF90DF90CF9020
:1048B00008958D3039F08A3029F01F5FD6018D932D
:1048C0006D01D6CFF701E10FF11D1082F701D7017D
:1048D0008D917D018032D1F38930C1F38F7D843495
:1048E00061F581818F7D8F3441F53296DF018191B1
:1048F0008032E1F38930D1F38F7D8334F1F4119666
:104900008C9111978F7D8134C1F412968C911297FE
:104910008F7D8E3491F413968C9113978F7D833411
:1049200061F414968C9114978F7D853431F415962B
:104930008C918F7D8C3409F4A9CF10911504AACFE6
:104940008150282F30E0220F331FF901E85EFE4F1F
:104950008081918128563C4FF901208131812817AF
:10496000390750F4A901440F551F8417950710F417
:1049700001970895821B930B0895BF92CF92DF9207
:10498000EF92FF920F931F93CF93DF93CDB7DEB7D4
:104990002B970FB6F894DEBF0FBECDBF8C01CB01B5
:1049A000009741F19E01295F3F4FB12C79014AE008
:1049B000C42ED12CB394B6010E945E30805DD90123
:1049C0008D939D01CB01009719F045E0B412F2CF11
:1049D000DE0111968B2D9D018150A701480F511DBD
:1049E000FA0190819D938111F7CFF901EB0DF11D33
:1049F000108203C080E389831A82C8010E940A0FD3
:104A0000CE0101960E94EE0E2B960FB6F894DEBFF3
:104A10000FBECDBFDF91CF911F910F91FF90EF900F
:104A2000DF90CF90BF9008950F931F93CF93DF93A4
:104A3000D82FC62F8A018AE29FE00E940A0F6D2FAD
:104A400070E089E29FE00E940C0F87E29FE00E94E5
:104A50000A0F63E070E086E29FE00E940C0F8FE196
:104A60009FE00E940A0F6C2F70E08EE19FE00E9491
:104A70000C0F8BE19FE00E940A0FC801DF91CF91DC
:104A80001F910F910C940A0F0F931F93CF93C82F70
:104A90008B0183EB90E00E940A0F6C2F70E082EB99
:104AA00090E00E940C0F8CEA90E00E940A0FC8016F
:104AB000CF911F910F910C940A0F8AE094E00C940F
:104AC000FC0E682F70E090E080E04AE00C94AA0EA3
:104AD00080910001833039F083E08093000186ECFF
:104AE00090E00C940A0F089580910001882331F022
:104AF000109200018BEB90E00C940A0F08958091C6
:104B00000001823039F082E08093000185ED90E071
:104B10000C940A0F089580910001813039F081E0F2
:104B20008093000189EE90E00C940A0F0895CF93D2
:104B3000DF9300D0CDB7DEB781508530F8F4E82F91
:104B4000F0E0DF01AE5DBE4F8C91811117C081E0B6
:104B50008C93EE0FFF1FE858F14F8591949121E05F
:104B600030E03A832983BE016F5F7F4F0E94790F47
:104B70000E94750C82E194E00E940A0F0F900F9042
:104B8000DF91CF910895EF92FF920F931F93CF93F0
:104B9000DF9300D000D0CDB7DEB79BEF980F9230F7
:104BA00058F58150082F10E0E92EF12CEE0CFF1C77
:104BB000F701E55DFE4F80819181000F111FF80123
:104BC000E85EFE4F208131813A832983BE016F5F09
:104BD0007F4F0E94790FF701E95DFE4F808191813F
:104BE000F801E856FC4F208131813C832B83BE01C4
:104BF0006D5F7F4F0E94790F0F900F900F900F9075
:104C0000DF91CF911F910F91FF90EF9008952F9218
:104C10003F924F925F926F927F928F929F92AF924C
:104C2000BF92CF92DF92EF92FF920F931F93CF9399
:104C3000DF93CDB7DEB769970FB6F894DEBF0FBE2E
:104C4000CDBF982E0E94E62377247A94790C0E9497
:104C5000221281E891E00E9494118AED93E00E9473
:104C60000A0F0E947F252091140130911501409177
:104C70001601509117012C873D874E875F87283793
:104C800031054105510540F488E790E0A0E0B0E02F
:104C90008C879D87AE87BF87809013010E94B008E4
:104CA0001B012C01892D0E94A10D882309F47DC0D0
:104CB00088EB93E00E940A0F0E947F2502E310E038
:104CC000A1E17A9EC0011124FC01E554FC4F7F0153
:104CD000C82CD12C5F01F2E0AF0EB11C88E194E04A
:104CE0000E94E80A892BB1F188E194E00E94C40A8D
:104CF000819781F588E194E00E94A60A81E0809383
:104D000015048AE993E00E940A0F0E9474250E940C
:104D1000FE1181E891E00E94941110E00E94E123CD
:104D2000812F69960FB6F894DEBF0FBECDBFDF911D
:104D3000CF911F910F91FF90EF90DF90CF90BF9098
:104D4000AF909F908F907F906F905F904F903F902B
:104D50002F9008950E94B00862197309840995097B
:104D600097FD1DC02C853D854E855F85220E331E27
:104D7000441E551ED7012D913C91C6010C151D05F1
:104D800008F4C801AC012817390710F441E050E0DD
:104D9000241B350BF50131832083081B190B0E945E
:104DA000190B0115110509F099CF272D30E0398B2A
:104DB000288B31E1739E8001112405541C4FD801CA
:104DC00011961C921E9213961C921E9212970E948C
:104DD00007096B017C010E947F25B12CA12C3801B1
:104DE000282D30E050E040E02A8B3B8B4C8B5D8BD4
:104DF000A8014E5F5F4F5F8B4E8B882D90E0998F9F
:104E0000888F88E194E00E94E80A892B81F088E18C
:104E100094E00E94C40A819751F488E194E00E94D2
:104E2000A60A81E0809315048CE793E06CCF0E9482
:104E3000B008621973098409950997FD26C02C856D
:104E40003D854E855F85220E331E441E551ED301BF
:104E50008D919C912A893B894C895D89280F391F46
:104E6000411D511DDA01C901009731E0A307B105C9
:104E700020F08FEF9FEFA0E0B0E0EE89FF899183F3
:104E80008083288D398DA20EB31E0E94190B32E348
:104E9000A316B104E8F40E9407096C197D098E0974
:104EA0009F096135734C8105910508F4AACF8DE304
:104EB00093E00E940A0F85E293E00E940A0F0E948D
:104EC000742581E891E00E9494110E94FE1125CF83
:104ED00023E045E068EC70E0892D0E94B40D182FA6
:104EE0008823C9F221E1A889B9892A9FC0012B9F93
:104EF000900D1124FC01E554FC4F7F01608071800E
:104F00000E948B250E9407096A8B7B8B8C8B9D8B63
:104F1000C82CD12C5701F2E0AF0EB11C23E045E0C4
:104F200068EC70E0892D0E94B40D882309F44DC00F
:104F300088E194E00E94E80A892B81F088E194E0FE
:104F40000E94C40A819751F488E194E00E94A60A65
:104F500081E08093150487E093E0D5CE809115041D
:104F6000882319F089EF92E0CECE0E94B008621932
:104F700073098409950997FD16C02C853D854E85DA
:104F80005F85220E331E441E551ED7018D919C91C4
:104F900096018C159D0510F421E030E0821B930BE7
:104FA000F501918380830E94190B0E9407092A89C9
:104FB0003B894C895D89621B730B840B950B6938A7
:104FC00073418105910508F4A9CF24E1E22EF12C6B
:104FD00021E148895989249FC001259F900D112402
:104FE000DC01A554BC4F6D01A82CB12C4D01B2E0E1
:104FF0008B0E911CF60180819181892B09F052C0A2
:1050000081E128893989829FF001839FF00D112465
:10501000E554FC4F8081918193838283F901EE0FE7
:10502000FF1FE85EFE4F71826082F901EE55FC4F72
:1050300081E06114710409F480E080838DE891E0DF
:105040000E94941183ED92E00E940A0F6114710492
:1050500009F471C09E01295F3F4F00E079018AE0A9
:10506000C82ED12C0F5FC301B6010E945E30805D57
:10507000D9018D939D013B01672B11F0053091F70C
:10508000DE011196802F9D018150A701480F511D0F
:10509000FA0190819D938111F7CFF901E00FF11D85
:1050A00010824CC088E194E00E94E80A892B81F0CC
:1050B00088E194E00E94C40A819751F488E194E069
:1050C0000E94A60A81E08093150485EB92E01BCE36
:1050D00080911504882319F087EA92E014CE0E948B
:1050E000B008621973098409950997FD1DC08C8564
:1050F0009D85AE85BF85280E391E4A1E5B1ED601D2
:105100002D913C91C501EA14FB0408F4C701AC01E0
:105110002817390710F441E050E0241B350BF40147
:1051200031832083E81AF90A0E94190BE114F10473
:1051300009F060CF65CF80E389831A82CE010196A2
:105140000E94EE0E0E947425E9CD2F923F924F925D
:105150005F926F927F928F929F92AF92BF92CF9207
:10516000DF92EF92FF920F931F93CF93DF93CDB710
:10517000DEB72C970FB6F894DEBF0FBECDBF382E2A
:105180008BEF830D8230F8F085E892E00E940A0FE1
:10519000212C822D2C960FB6F894DEBF0FBECDBF0A
:1051A000DF91CF911F910F91FF90EF90DF90CF9003
:1051B000BF90AF909F908F907F906F905F904F9037
:1051C0003F902F9008950E94E623BB24BA94B30C1D
:1051D000109215040E94221281E891E00E9494111D
:1051E00089EE91E00E940A0F0E948B252091140104
:1051F00030911501409116015091170129833A838E
:105200004B835C83283731054105510540F488E71D
:1052100090E0A0E0B0E089839A83AB83BC83909157
:1052200013019D830E94B0082B013C01832D0E9435
:10523000A10D882309F460C08DEB91E00E940A0F54
:105240000E947F2502E310E0E1E1BE9ED00111241F
:10525000A554BC4FBF83AE83FD81EF2EF12C6D01B1
:1052600022E0C20ED11C0E941B24882381F08FEA09
:1052700091E00E940A0F0E9474250E94FE1181E8AD
:1052800091E00E949411212C0E94E12382CF0E9480
:10529000B008641975098609970997FD27C08981A7
:1052A0009A81AB81BC81480E591E6A1E7B1EAE815D
:1052B000BF812D913C91C7010E151F0508F4C8014F
:1052C000AC0170E060E0420F531F611D711D41157C
:1052D0005105B1E06B07710520F04FEF5FEF60E023
:1052E00070E0F60151834083081B190B0E94190BD3
:1052F0000115110509F0B7CF8B2C912C41E1B49E1B
:105300009001112425543C4F3F832E838FEF9FEF54
:10531000D90111969C938E9313969C938E9312971A
:105320000E9407095B016C010E948B2510E000E0E0
:10533000EE81FF81FC87EB87FD81EF2EF12C2B8521
:105340003C852E5F3F4F3F832E830E941B24882382
:1053500019F081EA91E08DCF0E94B00864197509B7
:105360008609970997FD1AC089819A81AB81BC8112
:10537000480E591E6A1E7B1EAB85BC858D919C9183
:1053800097018E159F0510F421E030E0821B930BEE
:10539000EE81FF81918380830E0D1F1D0E94190BEA
:1053A0000E941B24282E882319F083E991E061CF05
:1053B00002331105E8F40E9407096A197B098C0978
:1053C0009D096135734C8105910508F4BECF84E5D4
:1053D00091E00E940A0F8CE391E00E940A0F0E9464
:1053E000742581E891E00E9494110E94FE114CCF37
:1053F00023E045E068EC70E0832D0E94B40D8A87BD
:105400008823C9F20E947F25F401EE0FFF1FE856A2
:10541000FC4FA080B180A114B10419F484E1A82E3E
:10542000B12C0E9407096B017C0121E1289DA0019C
:10543000299D500D112445545C4F5C874B879D81FD
:10544000892F90E0B0E0A0E08E839F83A887B98782
:105450008A010E5F1F4F23E045E068EC70E0832D6A
:105460000E94B40D882309F449C00E941B2488239C
:1054700069F08EE291E00E940A0F0E9474250E945A
:10548000FE1181E891E00E949411FECE0E94B008C6
:10549000641975098609970997FD22C029813A8107
:1054A0004B815C81420E531E641E751EAB85BC850C
:1054B0008D919C912E813F8148855985280F391FF8
:1054C000411D511DDA01C901009731E0A307B10563
:1054D00020F08FEF9FEFA0E0B0E0F8019183808390
:1054E0000E94190B0E9407096C197D098E099F09FA
:1054F000693873418105910508F4ADCF81E1889D3C
:105500008001899D100D112405541C4F3D81232FCE
:1055100030E03F832E83780142E0E40EF11C0E94CC
:105520001B24882319F080E291E0A5CF0E94B008E7
:10553000641975098609970997FD27C089819A81A1
:10554000AB81BC81480E591E6A1E7B1ED8012D916D
:105550003C918E819F81A816B90608F4C501AC0163
:1055600070E060E0420F531F611D711D4115510530
:10557000B1E06B07710520F04FEF5FEF60E070E086
:10558000F70151834083A81AB90A0E94190BA1148C
:10559000B10429F681E1889DF001899DF00D112467
:1055A000E554FC4F1182108213821282E32DF0E049
:1055B000EF55FC4F81E080838DE891E00E949411CB
:1055C0008BEF90E00E940A0F0E9474252A845CCE23
:1055D000789484B5826084BD84B5816084BD85B5CE
:1055E000826085BD85B5816085BD80916E008160DA
:1055F00080936E0010928100809181008260809380
:105600008100809181008160809381008091800081
:1056100081608093800080919100826080939100EE
:1056200080919100816080939100809190008160D1
:10563000809390008091C10084608093C10080912C
:10564000C10082608093C1008091C100816080931D
:10565000C1008091C30081608093C3008091C0002D
:1056600082608093C0008091C20081608093C200FC
:1056700080917A00846080937A0080917A008260C1
:1056800080937A0080917A00816080937A00809183
:105690007A00806880937A00109217041092EF02CB
:1056A0001092EE028091D70081608093D70080EA4B
:1056B0008093D80089B5806189BD89B5826089BD34
:1056C00009B400FEFDCF61E070E080E090E00E9450
:1056D000D5088091D8008F7C80618093D80080911C
:1056E000E000807F8093E0008091E1008E7E8093D7
:1056F000E1008DE08093E200559A209A61E082E11A
:105700000E947F0861E082E10E940E0862E08DE065
:105710000E947F0862E083E10E947F080E94750C6E
:10572000C4E56C2EC1E07C2ED8E4AD2ED1E0BD2EB8
:1057300018E9E12E13E0F12E02EA13E088E1C82E09
:1057400081E0D82EC1E0D0E033243394F30181917D
:1057500091913F010E949D0F4C01F5018191919122
:105760005F010E949D0F2C01C53011F097FC95C080
:105770008114910409F095C083ED96E00E940A0F10
:10578000F60111821082F70111821082F801108255
:105790002196F2E0CF0ED11C22E0E20EF11C0F5F49
:1057A0001F4FC630D10591F6C5E6D1E0F0E6EF2EE9
:1057B000F1E0FF2EAAE6CA2EA1E0DA2E61E089917F
:1057C0000E947F08F70111917F0161E0812F0E9403
:1057D0007F0861E0812F0E940E08CC16DD0671F76C
:1057E0000E94FE11109214040E945F0C0E94FE1190
:1057F00064E670E080E090E00E94D50861E087E117
:105800000E947F0860E087E10E940E088FEB92E023
:105810000E94941188E490E00E949D0F039721F06C
:1058200060E080E00E9434108FEF9FEF909325049A
:10583000809324040E94B60F0E94750C0E945F0C96
:105840000E94020B0E94EE1166246394CC24CA9439
:10585000EFE7DE2EE12CF12C71E1772EC0911201E1
:10586000C1708091F002882309F453C0C11151C066
:105870001092F5021092F1021092F2021092F302CD
:105880001092F40288E194E00E94E80A892B69F101
:1058900088E194E00E94A60AF5CF88248A94BFE7A5
:1058A0009B2EF60191828082F70151824082F8019D
:1058B00030828AEB96E00E940A0FBE0189EB96E0E7
:1058C0000E940C0F81EB96E00E940A0FB40180EB5E
:1058D00096E00E940C0F85EA96E00E940A0FB20142
:1058E00084EA96E00E940C0F53CF1092A803109206
:1058F000A9031092A70310920A0310920B031092AF
:105900000C0310920D030E94020B0E94FE110E94D4
:10591000EE118091F002811117C0CC23A9F01092F2
:10592000F5021092F1021092F2021092F30210921C
:10593000F40288E194E00E94E80A892B29F088E1CA
:1059400094E00E94A60AF5CFC093F00288E194E0AB
:105950000E94E80A892B51F00E94070960930F0307
:105960007093100380931103909312038091AE0300
:10597000811160920E0388E194E00E94E80AEC0134
:105980001C161D060CF0BCC188E194E00E94C40AFC
:1059900097FDB6C18035910509F05DC1B090F50263
:1059A000B11059C12F970CF4A4C188E194E00E9472
:1059B000A60A06EF12E0E80188E194E00E94A60A38
:1059C0008993F3E0C430DF07B9F70E9407092091FB
:1059D0000A0330910B0340910C0350910D032115E4
:1059E00031054105510571F01B012C01221A330AC2
:1059F000440A550AA2019101C1E02B3F310541053E
:105A0000510508F4C0E060930A0370930B03809380
:105A10000C0390930D0380910903882331F01092B9
:105A2000090389E097E00E940A0F8091A803882368
:105A300019F083E08093A703CC2309F463C1C2E289
:105A4000D1E08991882319F08B2D0E940B0BB39420
:105A500064E0362EB310F5CFD1E00E94641F509061
:105A6000AE0380910E03882329F0511003C0D11199
:105A700010920E030E94351280913003882309F1A1
:105A800080912D038111D1C180912E03882379F05B
:105A90002FB7F89480911004909111042FBF20919A
:105AA0002B0330912C032817390709F0CDC1109230
:105AB000300383E497E00E940A0F87E397E00E9497
:105AC0001012511004C080910E03882361F0C2E2CD
:105AD000D1E010E08991882319F0812F0E940B0BEF
