:100000000C9407080C942F080C942F080C942F08BC
:100010000C942F080C942F080C942F080C942F0884
:100020000C942F080C942F080C94B8220C943523B0
:100030000C942F080C942F080C942F080C942F0864
:100040000C942F080C942F080C942F080C942F0854
:100050000C942F080C942F080C942F080C946E22EB
:100060000C942F080C942F080C942F080C942F0834
:100070000C942F080C942F080C942F080C942F0824
:100080000C9467250C942F080C942F080C942F08BF
:100090000C942F080C942F080C942F080C942F0804
:1000A0000C942F080C942F080C942F0820E28094B5
:1000B0002000005B43414C5D204D005B4143545D9B
:1000C0002049444C45005B4143545D2043454E5418
:1000D00045524544005B4143545D204445434F4DE8
:1000E0005052455353494E47005B4143545D2043B2
:1000F0004F4D5052455353494E47004D696E206550
:100100006E6473746F7020666F756E643B20706FE1
:10011000736974696F6E2073657420746F2030008A
:100120005B43414C5D2041626F72746564005B43C8
:10013000414C5D2041626F72746564005265747554
:10014000726E696E6720746F206D61696E206D65D7
:100150006E752E004572726F723A20646574656325
:10016000744D696E2074696D656F75742E20496ECB
:1001700063726561736520504E3938206F7220615B
:10018000646A75737420686F6D696E67207370653B
:100190006564005B43414C5D2041626F727465642D
:1001A000005B43414C5D2041626F72746564005B8B
:1001B00043414C5D2041626F7274656400456E641A
:1001C00073746F7020616C7265616479206163740F
:1001D0006976652E204465636F6D7072657373690F
:1001E0006E67206120626974004465746563746998
:1001F0006E67204D494E207573696E6720656E6489
:1002000073746F702E2E2E353073206265666F7298
:10021000652074696D656F75742E20496620656E62
:100220006473746F7020697320616C7761797320D7
:100230006F6E2C20696E63726561736520706E301D
:1002400032342E20496620746F6F20736C6F772CC8
:1002500020696E63726561736520504E3938206F76
:10026000722061646A75737420686F6D696E6720AF
:10027000737065656420696E20706172616D65746C
:100280006572732E006465746563744D696E2073C6
:100290007570706F72746564206F6E204D352F4DD0
:1002A00036206F6E6C79005B43414C5D2041626F7C
:1002B00072746564005B43414C5D2041626F7274EF
:1002C0002072657175657374656420287175696342
:1002D0006B29004D617820656E6473746F702066C1
:1002E0006F756E643A20636F6E746163742F72650C
:1002F0006C65617365204020005B43414C5D20418B
:10030000626F72746564005B43414C5D2041626FB3
:1003100072742072657175657374656420287175D7
:1003200069636B290052657475726E696E6720741B
:100330006F206D61696E206D656E752E004572725D
:100340006F723A206465746563744D6178207469D6
:100350006D656F75742E20496E63726561736520DB
:10036000504E3938206F722061646A75737420684A
:100370006F6D696E67207370656564005B43414C07
:100380005D2041626F72742072657175657374656A
:10039000642028717569636B29005B43414C5D20C3
:1003A00041626F7274207265717565737465642043
:1003B00028717569636B2900456E6473746F7020D2
:1003C000616C7265616479206F6E2E204465636F85
:1003D0006D7072657373696E6700446574656374EC
:1003E000696E67204D4158207573696E6720656E90
:1003F0006473746F702E353073206265666F72653A
:100400002074696D656F75742E004F4B0045525214
:1004100020004D6F746F722077617320646973637D
:100420006F6E6E65637465643B2073657420746FD2
:1004300020434F4E4E454354454420666F7220631F
:10044000616C6962726174696F6E2E0046616374DB
:100450006F72792073657474696E67732072657347
:10046000746F7265642E20506F7765722D637963A7
:100470006C65206973207265636F6D6D656E646570
:10048000642E005B484F4D494E475D204E6F2065FE
:100490006E6473746F7020666F756E6420E2809472
:1004A00020686F6D696E672061626F727465642089
:1004B00028706F736974696F6E2072656163686517
:1004C00064203020776974686F757420656E64737A
:1004D000746F703B20636865636B20776972696E27
:1004E00067206F722064697361626C65204D352FDF
:1004F0004D3620696E204D6F74696F6E2043656EB6
:1005000074657229002061626F727465643A2072AA
:10051000656163686564206C6F676963616C2070F6
:100520006F736974696F6E203020776974686F75B6
:100530007420656E6473746F702074726967676588
:1005400072005B484F4D494E475D204D005B484F60
:100550004D494E475D204E6F20656E6473746F7019
:1005600020666F756E6420E2809420686F6D696EFE
:10057000672061626F7274656420286D61782073F2
:1005800065656B206C696D6974207265616368656F
:10059000643B20636865636B20776972696E6720CE
:1005A0006F722064697361626C65204D352F4D3622
:1005B00020696E204D6F74696F6E2043656E74659F
:1005C00072290029002C206C696D69743D0020613E
:1005D000626F727465643A206D6178207365656B33
:1005E0002073746570732072656163686564202888
:1005F0006D6F7665643D005B484F4D494E475D2009
:100600004D005741524E494E4720534552564F20B8
:10061000454E41424C4544005741524E494E4720B9
:10062000534552564F2044495341424C45440008DB
:100630000B00020202000009040000010202000097
:1006400005240010010524010101042402060524EB
:100650000600010705810310004009040100020A99
:100660000000000705020240000007058302400069
:10067000000403090412010002EF02014041233685
:100680008000010102030141726475696E6F204CA4
:100690004C430041726475696E6F204C656F6E61EA
:1006A00072646F0000207C204D617267696E3D00AE
:1006B00000207C204D61783D000043616C696272CE
:1006C0006174696F6E206C6F6164656420666F721F
:1006D000204D00454550524F4D20696E76616C6942
:1006E00064206F72206D6178206861736E277420BA
:1006F0006265656E2063616C696272617465642015
:1007000079657420283D3029005B534146455D20C2
:1007100053696D4875622073747265616D207265EE
:1007200073756D656420647572696E6720504152FF
:100730004B5F5A45524F0053485F44495341424C26
:100740004544005B5041524B5D20456E64706172C0
:100750006B20646F6E65005B534146455D205369B5
:100760006D487562205041524B5F5A45524F20747C
:10077000696D656F7574202D3E20534552564F5F4D
:100780004F4646005B534146455D2053696D4875B1
:1007900062205041524B5F5A45524F20646F6E6544
:1007A000202D3E20534552564F5F4F4646000000D5
:1007B0000000240027002A002D0030000000000067
:1007C000250028002B002E0031000404040404033B
:1007D00004050202020204030202020206060606E1
:1007E0000606040402020204040408020110408008
:1007F0004010204080408008020401804020100208
:1008000001108010204040200000000200090F006D
:1008100000030401000C00000000000000000000C4
:1008200000000000000000544553545F5354524FE1
:100830004B4520646F6E650041424F525445442041
:10084000647572696E6720544553545F5354524F18
:100850004B450041424F5254454420647572696EC5
:100860006720544553545F5354524F4B4500414207
:100870004F5254454420647572696E672054455345
:10088000545F5354524F4B450041424F52544544DC
:1008900020647572696E6720544553545F535452F7
:1008A0004F4B45005265616368696E672043454E52
:1008B000544552005265616368696E672043454E36
:1008C0005445520041424F52544544206475726968
:1008D0006E6720544553545F5354524F4B4500416B
:1008E000424F5254454420647572696E67205445E6
:1008F00053545F5354524F4B4500526561636869CE
:100900006E6720656666656374697665204D41583B
:10091000005265616368696E672065666665637429
:10092000697665204D41580041424F52544544205C
:10093000647572696E6720544553545F5354524F27
:100940004B450041424F5254454420647572696ED4
:100950006720544553545F5354524F4B45005265E2
:10096000616368696E67206566666563746976654C
:10097000204D494E005265616368696E6720656667
:1009800066656374697665204D494E0054657374DD
:10099000696E672066756C6C207374726F6B65206E
:1009A00077697468206D617267696E2E0053746197
:1009B000727420544553545F5354524F4B45004179
:1009C000424F5254454420647572696E6720544505
:1009D00053545F5354524F4B4500526566657265E0
:1009E0006E6365204D494E206265666F72652054C6
:1009F0004553545F5354524F4B4500474F5F544F3C
:100A00005F43454E54455220646F6E650041424F2E
:100A1000525445440043616E6E6F742063656E747A
:100A200065723A204D4158206E6F742063616C6985
:100A3000627261746564004641494C4544206475A6
:100A400072696E67204D494E2064657465637469F0
:100A50006F6E00506F736974696F6E20756E6B6E88
:100A60006F776E202D3E20646574656374204D4958
:100A70004E206265666F72652063656E746572698B
:100A80006E6700676F546F43656E746572536D6176
:100A9000727420737570706F72746564206F6E204D
:100AA0004D352F4D36206F6E6C790064657465632B
:100AB000744D617820737570706F72746564206F07
:100AC0006E204D352F4D36206F6E6C7900434F4DA3
:100AD000504C4554455F43414C494220646F6E651C
:100AE0000043616C6962726174696F6E20646F6E3D
:100AF000652E20506C656173652072657374617238
:100B0000742074686520636F6E74726F6C20626FFE
:100B100078206265666F7265207573696E67205311
:100B2000696D68756200536176696E672063616CF8
:100B30006962726174696F6E20746F20454550520E
:100B40004F4D0041424F52544544004641494C45A7
:100B50004420647572696E67204D41582064657445
:100B6000656374696F6E00446574656374696E676C
:100B7000204D415820656E6473746F700046414982
:100B80004C454420647572696E67204D494E20645F
:100B90006574656374696F6E004465746563746938
:100BA0006E67204D494E20656E6473746F700053FC
:100BB0007461727420434F4D504C4554455F43411E
:100BC0004C49420066756C6C43616C696272617479
:100BD000696F6E536F667420737570706F72746591
:100BE00064206F6E204D352F4D36206F6E6C79006E
:100BF000204D00204D434D494E3D312E31002048BF
:100C00005350533D0020534552564F3D00535441DD
:100C10005455532046573D322E322E3020424F58E5
:100C20003D004F4B5F44495341424C4544004F4BBC
:100C30005F454E41424C4544005B5041524B5D2064
:100C4000456E647061726B207374617274004D360E
:100C500020686F6D696E67206661696C65643A2013
:100C60004D494E20656E6473746F70206E6F7420F2
:100C7000726561636865642028636865636B2077CB
:100C80006972696E672F656E6473746F702F64721A
:100C9000697665722073657474696E677329004D97
:100CA00036206D617267696E206170706C69656471
:100CB0003A20004D3620686F6D6564004D35206820
:100CC0006F6D696E67206661696C65643A204D4995
:100CD0004E20656E6473746F70206E6F7420726541
:100CE00061636865642028636865636B2077697257
:100CF000696E672F656E6473746F702F64726976A6
:100D000065722073657474696E677329004D3520B0
:100D10006D617267696E206170706C6965643A20FC
:100D2000004D3520686F6D6564004D3620686F6D2D
:100D3000696E67207374617274004D36206D617244
:100D400067696E206170706C6965643A20004D3689
:100D500020686F6D696E6720736B69707065643AA7
:100D600020616C726561647920686F6D6564004D07
:100D70003620686F6D696E6720736B69707065648B
:100D80003A206E6F7420636F6E6E656374656400E5
:100D90004D3520686F6D696E6720737461727400E1
:100DA0004D35206D617267696E206170706C696588
:100DB000643A20004D3520686F6D696E6720736B53
:100DC00069707065643A20616C726561647920684D
:100DD0006F6D6564004D3520686F6D696E672073B7
:100DE0006B69707065643A206E6F7420636F6E6E0D
:100DF00065637465640043414C4942524154454423
:100E000000554E4B4E4F574E5F434D4400554E4B91
:100E10004E4F574E5F414354494F4E004F4E4C5931
:100E20005F4D355F4D360043454E5445525F464158
:100E3000494C454400004D004F4E4C595F4D355FC5
:100E40004D360043414C49425F4641494C454400C0
:100E5000004D004F4E4C595F4D355F4D36004341BC
:100E60004C49425F4641494C454400004D004F4EBD
:100E70004C595F4D355F4D36004241445F56414C01
:100E80005545004241445F4D4F544F52004241444A
:100E90005F41524753004E4F545F524541434845CE
:100EA00044004F4E4C595F4D355F4D36004E4F5408
:100EB0005F52454143484544004F4E4C595F4D35C4
:100EC0005F4D360043414C49425F4641494C4544E1
:100ED000004F4E4C595F4D355F4D36004D36004D3D
:100EE00035004241445F4D4F544F52004241445FF0
:100EF0004152475300554E4B4E4F574E5F4B45594D
:100F0000004F4E4C595F4D355F4D36004D41585F97
:100F10005245515549524544004F4E4C595F4D354D
:100F20005F4D360004000C0014001C0024002C004F
:100F30004D415247494E5F4F4E4C595F4D355F4DC5
:100F400036000000080010001800200028003000C3
:100F5000340038003C00400044004D4F544F525F75
:100F60005245515549524544004241445F4D4F540A
:100F70004F52004241445F56414C55450042414466
:100F80005F41524753004F4B5F4D435F44495343CA
:100F90004F4E4E454354454400424F585F444F57CF
:100FA0004E0053485F44495341424C454400534826
:100FB000434F4E4E4543544544004F4B5F4D435FB6
:100FC00044495341424C4544004F4B5F4D435F43BE
:100FD0004F4E4E4543544544003000310042414499
:100FE0005F4D4F544F52004241445F4D4F544F525A
:100FF000003A20000020E28094204D00002F0000E5
:101000005B43414C5D20537465702000DB3211243A
:101010001FBECFEFDAE0DEBFCDBF12E0A0E0B1E04F
:10102000EAE1F7E602C005900D92AC3DB107D9F7B1
:1010300024E0ACEDB2E001C01D92AE3BB207E1F797
:1010400018E0C7E0D8E004C02197FE010E94663393
:10105000C630D107C9F70E94CC2D0C948B330C9469
:101060000000000000000000000000000000000080
:10107000FC0180916D04882311F13FB7F89482E060
:101080008093E9002091F200822F90E01816190653
:1010900014F481E090E0882339F0289844E64093E6
:1010A0006C044091F1004083222339F02091F2003A
:1010B000211103C02BE62093E8003FBF08958FEF76
:1010C0009FEF089583E08093E9008091F2008823E8
:1010D00019F08AE38093E80008950C9462082FB712
:1010E000F89483E08093E9009091E800892F807262
:1010F00095FF04C09091F20080E4891B2FBF0895F2
:10110000282F30E0F901E85FF74F9491F901E7519A
:10111000F84F84912653384FF9012491222309F482
:1011200030C09923E9F091509F30D0F4E92FF0E0DE
:10113000E456F74F0C946633CA08CE08AB08C208D1
:10114000C608B008B008B008D108D708DB08DF0827
:10115000E508B008E908909180009F77909380009F
:10116000E22FF0E0EE0FFF1FE454F84FA591B49189
:101170009FB7F894EC91611132C080958E238C93C7
:101180009FBF0895909180009F7DE8CF909180004F
:10119000977FE4CF94B59F7794BDE2CF94B59F7DC0
:1011A000FBCF909190009F7790939000D9CF909132
:1011B00090009F7DF9CF90919000977FF5CF90910F
:1011C000C0009F779093C000CBCF9091C0009F7DCF
:1011D000F9CF9091C200977F9093C200C1CF8E2B20
:1011E000CECFCF93DF9390E0FC01E751F84F2491ED
:1011F0008653984FFC0184918823D1F090E0880FAA
:10120000991FFC01E255F84FA591B491FC01E454FB
:10121000F84FC591D491623071F49FB7F8943C9126
:10122000822F809583238C93E8812E2B28839FBF68
:10123000DF91CF9108958FB7F894EC912E2B2C93DA
:101240008FBFF6CF3FB7F894809137039091380362
:10125000A0913903B0913A0326B5A89B05C02F3F52
:1012600019F00196A11DB11D3FBFBA2FA92F982FCC
:101270008827BC01CD01620F711D811D911D42E0C7
:10128000660F771F881F991F4A95D1F708958F928F
:101290009F92AF92BF92CF92DF92EF92FF924B015B
:1012A0005C010E9422096B017C010E9422096C19D9
:1012B0007D098E099F09683E734081059105A8F359
:1012C00021E0821A9108A108B10888EEC80E83E0D7
:1012D000D81EE11CF11C81149104A104B10429F76A
:1012E000FF90EF90DF90CF90BF90AF909F908F9046
:1012F00008952FB7F894609133037091340380916F
:101300003503909136032FBF089540910903509102
:101310000A03209107033091080342175307B4F4DE
:101320009091E8009570E1F39091E80092FD19C06A
:101330008093F1008091090390910A0301968F73C5
:101340009927892B19F48EEF8093E8008091090387
:1013500090910A03019690930A038093090381E018
:10136000089580E00895EF92FF920F931F93CF931B
:10137000DF93F82E192FE62E042F81E0860F880FB9
:101380000E94850983E00E948509CF2DD12FEC0EA4
:10139000FD2EF11CCE15DF05B9F007FF13C0FE01CD
:1013A00084910E948509182F80E00E94850981237D
:1013B00021968111EFCFDF91CF911F910F91FF9077
:1013C000EF9008958881EDCF81E0F5CFDF92EF9225
:1013D000FF920F931F93CF93DF93D82E8A01EB01D7
:1013E0007B01E40EF51ECE15DF0559F0D7FE12C0C5
:1013F000FE0184910E94850921968111F4CF0FEF9F
:101400001FEFC801DF91CF911F910F91FF90EF90D7
:10141000DF9008958881EECF615030F02091F10087
:10142000FC0120830196F8CF289884E680936C0411
:1014300008958091FF0281110DC082E08093FB022C
:1014400084E08093FC021092FE021092FD0281E083
:101450008093FF028BEF92E008950F931F93CF9339
:10146000DF931F92CDB7DEB782E0898342E450E07C
:101470006FE276E080E80E94E6090E94190ADC012A
:1014800012960D911C910115110589F0D801ED916D
:10149000FC910280F381E02DBE016F5F7F4FC80198
:1014A000099597FD04C0F80100851185ECCF89816D
:1014B0000F90DF91CF911F910F9108958F929F927E
:1014C000AF92BF92CF92DF92EF92FF920F931F9352
:1014D000CF93DF936C017B018A01809116018823F1
:1014E00009F45CC080916D04882309F457C0809191
:1014F0000D0380FF05C08091E00082608093E000D2
:10150000E801B12C8AEFA82E93E0892E2AE3922ECF
:10151000209711F4BB20D9F10E946F0881110AC0F5
:10152000AA94AA20D9F161E070E080E090E00E94E6
:101530004709EECF8C171D0611F00CF08C2F9FB7CA
:10154000F8948092E9002091E80025FD02C09FBF39
:10155000DFCF282F30E0C21BD30BF701815020F0E2
:1015600041914093F100FACFE20EF31EBB2021F02F
:101570009092E800B12CEBCF8091E80085FDE7CF99
:101580009092E800BB24B394209709F3F3CF5D98C1
:1015900084E680930C03101611063CF081E090E085
:1015A000F6019383828310E000E0C801DF91CF91C0
:1015B0001F910F91FF90EF90DF90CF90BF90AF9071
:1015C0009F908F900895CF93DF931F92CDB7DEB792
:1015D0006983DC01ED91FC910280F381E02D41E013
:1015E00050E0BE016F5F7F4F09950F90DF91CF9163
:1015F00008950F931F93CF93DF938C01D0E0C0E049
:10160000F801EC0FFD1F6491662341F08EE694E033
:101610000E94E30A892B11F02196F2CFCE01DF91CF
:10162000CF911F910F9108950E946F0890E0089547
:10163000CF93DF931F92CDB7DEB7FC0184859585EC
:1016400097FD08C02FEF3FEF358724870F90DF917C
:10165000CF910895CE0101960E943808019719F4A0
:10166000898190E0F3CF8FEF9FEFF0CF0F931F931F
:10167000CF93DF931F92CDB7DEB78C01FC01848539
:10168000958597FF0BC0CE0101960E9438080197FF
:1016900071F4898190E0F80195878487F801848549
:1016A00095850F90DF91CF911F910F9108958FEF46
:1016B0009FEFF1CFFC018485958597FD0BC09FB707
:1016C000F89482E08093E9008091F2009FBF90E05F
:1016D000019608959FB7F89482E08093E900809185
:1016E000F2009FBF90E0089580916B04811102C0C9
:1016F00080916A048093230308959FB7F89421E1B1
:10170000829FF0011124E857FC4F208131813383FF
:1017100022839FBF08958091710081FD41C1409156
:101720004E03442309F43CC190910A01609188035F
:101730007091890320918A0330918B03621773079C
:1017400009F428C18FEF6217730708F481E0209134
:10175000030130E0281731F01816D4F55C98809317
:101760000301342F680F711D87FD7A9570938903EB
:101770006093880380E1923028F160919903709121
:101780009A03E0919B03F0919C036E177F0721F170
:101790002FEF6E177F0708F421E0509104015217D4
:1017A00031F01216BCF4469820930401342F806265
:1017B000620F711D27FD7A9570939A0360939903C8
:1017C000923069F490E020E0332309F4B1C0AAC05C
:1017D0005C9AC5CF469AE8CF923009F4CEC06091AA
:1017E000AA037091AB03E091AC03F091AD036E17C7
:1017F0007F0709F4BFC02FEF6E177F0708F421E0C1
:1018000050910501521739F012160CF0B1C05F98D3
:1018100020930501342F8064620F711D27FD7A9596
:101820007093AB036093AA03933061F26091BB03A2
:101830007091BC03E091BD03F091BE036E177F076A
:1018400009F4A0C02FEF6E177F0708F421E0509134
:101850000601521739F012160CF092C076982093B8
:101860000601342F8068620F711D27FD7A957093F1
:10187000BC036093BB03943009F4A4CF6091CC0304
:101880007091CD03E091CE03F091CF0320E06E176D
:101890007F07C9F02FEF6E177F0708F421E0509102
:1018A0000701521739F012160CF070C058982093A7
:1018B0000701342F620F711D27FD7A957093CD03B8
:1018C0006093CC0320E4953009F458C06091DD03A7
:1018D0007091DE03E091DF03F091E0036E177F0764
:1018E00009F44CC09FEF6E177F0708F491E0509108
:1018F0000801591739F019160CF04AC08C989093CA
:101900000801342F690F711D97FD7A957093DE03DE
:101910006093DD0390E2492F482B422B09F440C02D
:10192000332321F0EBE1F0E03197F1F7882319F050
:1019300035B1382B35B9222319F03BB1322B3BB9E5
:10194000992319F031B3392B31BB882321F035B1FC
:101950008095832385B9222321F08BB120952823FC
:101960002BB99923E9F081B39095982391BB089501
:101970005F9A4ECF933009F059CF20E090E0CBCF63
:10198000769A6DCF943009F079CFF7CF589A8FCFF0
:101990008C9AB5CF30E080E0923008F0EECE08951A
:1019A0000895F894109290008AE08093910081E469
:1019B00090E0909399008093980010929500109277
:1019C000940082E088BB80937100789408958091A0
:1019D000300181110CC080912F0181110AC08091CA
:1019E0002E01811108C084E080930A01089587E0E8
:1019F000FBCF86E0F9CF85E0F7CFE6EFF2E010828B
:101A00001182EFE4F3E014821582E0E0F4E0148246
:101A100015828FEF9FEF9093CD038093CC0390932B
:101A2000DE038093DD039093CF038093CE039093E6
:101A3000E0038093DF03E2EFF2E011821082138271
:101A40001282ECEEF2E01182108213821282E0EF39
:101A5000F2E010821182089520911801309119014D
:101A600040911A0150911B01211531054105510585
:101A7000C1F0CA01B9019695879577956795605C25
:101A80007D4B804F9F4F0E9411332115310581E01E
:101A90004807510520F02FEF3FEF40E050E0C9012B
:101AA000089590E080E008953F924F925F926F9288
:101AB0007F928F929F92AF92BF92CF92DF92EF92DE
:101AC000FF920F931F93CF93DF9300D000D000D0ED
:101AD000CDB7DEB7182F362E29013A01E5E0811186
:101AE00001C0E4E0EE2EF12C01E1E09FF0011124B1
:101AF000E857FC4F22813381808191812817390773
:101B0000C9F080E026960FB6F894DEBF0FBECDBFB9
:101B1000DF91CF911F910F91FF90EF90DF90CF90C9
:101B2000BF90AF909F908F907F906F905F904F90FD
:101B30003F9008950E9422094B015C014114510419
:101B40006104710441F440901801509019016090B3
:101B50001A0170901B01412F50E08A01000F111FE4
:101B6000000F111F1E830D83F801EC51FD4F808182
:101B70009181A281B38195018401081B190B2A0B65
:101B80003B0B041515052605370508F4BACF81E18E
:101B90008E9DF0018F9DF00D1124E857FC4FC08001
:101BA000D180E0911701F0E09F01A32D032C000CE0
:101BB000BB0B0E946C332B013C014C0C5D1C611C67
:101BC000711C4114510411E0610671042CF044248D
:101BD0004A94542C612C712C77FE03C0412C512C5B
:101BE000320121E12E9DC0012F9D900D11248857B7
:101BF0009C4FDC0113965C924E9212972D813E8190
:101C00002C513D4FD9018D929D92AD92BC9213976C
:101C1000BFEF3B1212C0440F551FDA01AE50BD4F4B
:101C20008D919C9111979F01209530952817390728
:101C300020F0E80FF91FED93FC9381E063CF0000E3
:101C40000F931F93CF93DF938B01EA0160E087E14D
:101C50000E94800861E087E10E94F108F8942197D2
:101C600008F424C0F8010190008007D0029005D04C
:101C700001900190019001D017C008D007D006D084
:101C800005D004D003D002D001D00895889A001C5A
:101C90000000000008F0889800000000000000002C
:101CA000000008F4889808958F01D9CF78948BE3C9
:101CB00091E00197F1F7DF91CF911F910F91089576
:101CC000853031F486B18095881F8827881F089554
:101CD000863039F48FB186FB882780F991E0892717
:101CE000089580E00895DF92EF92FF920F931F9383
:101CF000CF93DF93D82E042F122F6230710540F05E
:101D0000CB01880F991F880F991F05970197F1F74D
:101D1000D0E0C0E083ECE82EF12C8D2D0E94600E07
:101D20008111CF5FC7010197F1F7DF5F0D13F5CF89
:101D300081E0C11708F480E0DF91CF911F910F91EE
:101D4000FF90EF90DF900895409118015091190194
:101D500060911A0170911B01493C510561057105A3
:101D600030F422E042E070E060E00C94730E453FF6
:101D700051406105710518F422E043E0F4CF23E0FF
:101D800045E0F1CFEDEDF2E080836183428341E0F5
:101D900050E0BF0181E091E00C94200E0895CF93B4
:101DA000DF93EC0188819981FC01009721F4DF9198
:101DB000CF910895FA01CF012081AF014F5F5F4FAE
:101DC0002032C1F32930B1F3211105C0F983E88332
:101DD00090E080E0ECCFDF012191222331F020322E
:101DE00011F02930C1F71C92DF01B983A883DFCF3E
:101DF0001F93CF93DF93EB01FC01DF018D918032C4
:101E0000F1F08930E1F080E020E030E0A9011191AB
:101E100090ED910F9A30A8F4AAE0B0E00E9406334A
:101E2000212F110F330B20533109032E000C440BCB
:101E3000550B260F371F481F591F81E0E8CFFD01C2
:101E4000DCCF882321F0288339834A835B83DF91A9
:101E5000CF911F9108950F931F93CF93DF9300D0DD
:101E600000D0CDB7DEB7009709F18B0119821A8235
:101E70001B821C82BE016F5F7F4F0E94F80E882379
:101E800061F049815A816B817C814F3F5105610529
:101E9000710509F058F4F80140830F900F900F90EE
:101EA0000F90DF91CF911F910F91089580E0F5CFB2
:101EB000DC01FB012D919191222331F0992311F046
:101EC0002917C1F380E003C081E09111FBCF089591
:101ED000FC0101900020E9F73197AF01481B590B35
:101EE000BC018EE694E00C945E0A8F929F92AF92B2
:101EF000BF920F931F93CF93DF93CDB7DEB7A19718
:101F00000FB6F894DEBF0FBECDBF19A2423008F461
:101F10004AE08E010F5D1F4F842E912CB12CA12C15
:101F2000A50194010E941133E62FB901CA01EA30DC
:101F3000F4F4E05DD801EE938D01232B242B252BA7
:101F400079F790E080E0109719F0CD010E94680FBA
:101F5000A1960FB6F894DEBF0FBECDBFDF91CF9133
:101F60001F910F91BF90AF909F908F900895E95C63
:101F7000E1CFCF93DF930E94680FEC018EE791E0F1
:101F80000E94680F8C0F9D1FDF91CF910895CF9312
:101F9000DF930E94F90AEC018EE791E00E94680F3E
:101FA0008C0F9D1FDF91CF9108950C94C70FAF92B6
:101FB000BF92CF92DF92EF92FF920F931F93CF9336
:101FC000DF93CDB7DEB762970FB6F894DEBF0FBED2
:101FD000CDBF5C01CB019E01235F3F4F7901890199
:101FE00020E03AE0C32ED12C0097A9F480E38D873E
:101FF00021E0822F90E09701280F391FDE01119612
:102000008D01E216F30699F0F90142919F014D937B
:10201000F8CF253071F32F5FB6010E945233805DF7
:10202000D8018D938D01CB01009799F7E2CF800FF6
:10203000911FDC011C92C5010E94D50FC8010E94AE
:10204000B90F62960FB6F894DEBF0FBECDBFDF9119
:10205000CF911F910F91FF90EF90DF90CF90BF90A5
:10206000AF900895CF93DF93EC018DE094E00E9450
:10207000F90ACE01DF91CF910C94C70FCF92DF9276
:10208000EF92FF9220E639E040E050E00E941133E9
:102090006B017C01AFEFB0E0AC019B010E94063305
:1020A00020EBC21624E0D206E104F10478F420EB20
:1020B00034E040E050E00E941133B90140E080E09C
:1020C000FF90EF90DF90CF900C94C20E60557B4A4A
:1020D0008440910920EB34E040E050E00E9411334D
:1020E0006FEF70E0621B730BE9CFCF92DF92EF923C
:1020F000FF920F931F930E9479090091E0021091C3
:10210000E1022091E2023091E3026B017C01C01AEE
:10211000D10AE20AF30A970186010431110521056B
:10212000310580F06093E0027093E1028093E20257
:102130009093E3021F910F91FF90EF90DF90CF906B
:102140000C943E101F910F91FF90EF90DF90CF9075
:102150000895BC0190E080E04AE00C94750FCF93A5
:10216000DF930E94A910EC018EE791E00E94680FB6
:102170008C0F9D1FDF91CF910895FF920F931F93B6
:10218000CF93DF93EC018B01FB01F0800E94F032D2
:10219000F81621F06F2DCE010E94F832F801F1807F
:1021A0002196CE010E94F032F81621F06F2DCE015B
:1021B0000E94F832C801DF91CF911F910F91FF90DB
:1021C00008950F931F93CF93DF9300D0CDB7DEB761
:1021D0008C010E94F0328983C80101960E94F0327E
:1021E0008A8389819A810F900F90DF91CF911F91FF
:1021F0000F910895CF93DF9380E490E00E94E11067
:1022000021E0892B09F420E020932E0184E490E062
:102210000E94E11021E0892B09F420E020932F0196
:102220008CE490E00E94E11021E0019709F020E0A9
:1022300020933C0480E590E00E94E11021E00197AA
:1022400009F020E0209347048FEF809311048093DE
:102250001C04809327048093320480933D04809370
:1022600048048093530484E590E00E94E110853691
:10227000910510F480933D0488E590E00E94E11000
:102280008536910510F48093480480E291E00E9425
:10229000E110EC01C2978F3D964210F0CCE2D1E004
:1022A000BE017695679590E080E0605C7D4B804F45
:1022B0009F4F9E0150E040E00E941133C83283E2FC
:1022C000D80708F5C03787E1D807F8F4CC3A8DE095
:1022D000D807E8F4C83087E0D807D8F4C03283E0E4
:1022E000D807C8F4CC32D140C0F082E02093180166
:1022F0003093190140931A0150931B0180931701E9
:10230000DF91CF91089580E1F1CF8CE0EFCF88E0AD
:10231000EDCF85E0EBCF83E0E9CF81E0E7CFCF924F
:10232000DF92EF92FF920F931F93CF93DF93CDB77E
:10233000DEB7AE970FB6F894DEBF0FBECDBFE82E66
:10234000F62E10E000E0C8010E94F0328F3F21F02D
:102350006FEFC8010E94F8320F5F1F4F011584E034
:10236000180789F7ECE1F1E044E554E022E634E0B7
:1023700080E0C82E84E0D82E64E271E00FEF1FE702
:1023800081E001931193DA011D921D92AD01D901F3
:102390008D939D01D6011D926D016E177F0789F700
:1023A000109225011092240110925D0410925C0499
:1023B00010926604109204041092270110922601D4
:1023C00010925F0410925E0410926704109205044C
:1023D0001092290110922801109261041092600459
:1023E000109268041092060480932A0180932B01B6
:1023F00080932C0180932D01E0922E01F0922F0109
:1024000080911C0190911D01988B8F87BE01615FA7
:102410007F4F90E080E00E94BD1080911E0190915E
:102420001F019A8B898BBE016F5E7F4F88E090E021
:102430000E94BD1080912001909121019C8B8B8B7B
:10244000BE016D5E7F4F80E190E00E94BD108091E3
:102450002201909123019E8B8D8BBE016B5E7F4F7D
:1024600088E190E00E94BD10809154049091550441
:10247000988F8F8BBE01695E7F4F84E090E00E9451
:10248000BD1080915604909157049A8F898FBE0198
:10249000675E7F4F8CE090E00E94BD1080915804F1
:1024A000909159049C8F8B8FBE01655E7F4F84E1B4
:1024B00090E00E94BD1080915A0490915B049E8F21
:1024C0008D8FBE01635E7F4F8CE190E00E94BD1056
:1024D00018A21F8EBE01615E7F4F80E290E00E94D5
:1024E000BD101AA219A2BE016F5D7F4F84E290E079
:1024F0000E94BD101CA21BA2BE016D5D7F4F88E231
:1025000090E00E94BD101EA21DA2BE016B5D7F4F18
:102510008CE290E00E94BD1001E010E018A70FA32C
:10252000BE01695D7F4F80E390E00E94BD101AA755
:1025300009A7BE01675D7F4F84E390E00E94BD1054
:102540001CA70BA7BE01655D7F4F88E390E00E944A
:10255000BD101EA70DA7BE01635D7F4F8CE390E009
:102560000E94BD108E2D90E09E878D87BE01635F17
:102570007F4F80E490E00E94BD106F2D70E07A8361
:102580006983BE016F5F7F4F84E490E00E94BD10BD
:102590001C821B82BE016D5F7F4F8CE490E00E9425
:1025A000BD101E821D82BE016B5F7F4F80E590E0F3
:1025B0000E94BD1010923C04109247040FEF10E0EF
:1025C00018870F83BE01695F7F4F84E590E00E940A
:1025D000BD101A870987BE01675F7F4F88E590E0CD
:1025E0000E94BD108FEF80933D048093480483E0E8
:1025F00090E09C878B87BE01655F7F4F88E490E009
:102600000E94BD108CE494E00E94D50FAE960FB6E8
:10261000F894DEBF0FBECDBFDF91CF911F910F9118
:10262000FF90EF90DF90CF900895CF93DF93EC0170
:1026300061E871E00E947333892B89F481E0809313
:1026400056030E9479096093E0027093E10280933F
:10265000E2029093E302DF91CF910C943E1010922E
:1026600056036CE871E0CE010E94733340E060E0F5
:10267000892B69F160E971E0CE010E94733340E07B
:102680006FEF892B91F066E971E0CE010E94733300
:1026900040E060E5892BD9F06DE971E0CE010E9440
:1026A0007333892B39F44FEF60E080E0DF91CF91F5
:1026B0000C94C20E62EA71E0CE010E9473334FEFB8
:1026C0006FEF892B21F448EC60E080EAEFCF8FEFC9
:1026D000EDCF80914E0381110BC08091230388239D
:1026E00021F08DE991E00C94151380E991E0FBCF86
:1026F000089561E082E10E94800810924E0380916B
:102700002303811104C088E196E00E94D50F0E9446
:10271000740B0C946913CF93DF93EC010E94FD0CB2
:102720001092FF030E9479130E94740B0E94691398
:10273000CE01DF91CF910C94C70F60E082E10E943F
:10274000800881E080934E0380912303811104C0AF
:1027500082E096E00E94D50F8CE891E00C9415136E
:102760002F923F924F925F926F927F928F929F92A1
:10277000AF92BF92CF92DF92EF92FF920F931F938F
:10278000CF93DF9300D000D000D0CDB7DEB7F6EF07
:102790004F2EF2E05F2EF12CE12C22242394A1E1B4
:1027A0007A2E6E2CF20181912F0181508430D0F568
:1027B00080912303811102C00E947913611052C0DD
:1027C000F4E0F98305E09981892F90E09E838D8361
:1027D000880F991F9C838B83FC01E45EFE4F8080F1
:1027E00091808BE02D813E81829FF001839FF00DCF
:1027F0001124E95FFB4F11851123C1F1811491046C
:10280000C1F510E09FEF998339803194F201B290C5
:102810006F01F2E0BF1609F47FC0FB1568F121E0FB
:10282000B216D9F1EA94EF28C9F426960FB6F894B7
:10283000DEBF0FBECDBFDF91CF911F910F91FF90F3
:10284000EF90DF90CF90BF90AF909F908F907F9050
:102850006F905F904F903F902F900895EE24E394F7
:10286000F12C9FCF25E0298306E0ADCFEFEFE98380
:10287000CBCFF1E0F983C8CF33E0B31609F475C0CC
:1028800084E0B812CFCF802F0E94A40E882309F4D1
:1028900021C120E030E0A90166C0F701EE0FFF1F63
:1028A000EE50FD4F11821082802F0E94A40EF7017E
:1028B000E051FD4F8823B9F02D813E81729ED001F9
:1028C000739EB00D1124A857BC4F80E090E811967C
:1028D0009C938E9313969C938E931297108222E072
:1028E000F60120839FCF1B25812F90E09195819544
:1028F00091092D813E81729ED001739EB00D1124ED
:10290000A857BC4F11969C938E9313969C938E93CD
:102910001297B08223E0E4CF802F0E94A40E811191
:102920000CC0F701E051FD4F2082F701EE0FFF1FB1
:10293000EE50FD4F11821082EDCF209118013091A1
:10294000190140911A0150911B012D3281E0380785
:102950004105510540F0CA01B90123E030E040E0F3
:1029600050E00E941133632DB1C0F701E051FD4FDB
:1029700080815701AA0CBB1C811147C0F501EE50A4
:10298000FD4F5F0180819181019609F055C08D81D5
:102990009E81789EF001799EF00D1124E857FC4F3E
:1029A0008081918193838283ED81FE81E15BFC4F85
:1029B0001082ED81FE81E050FC4F108225E0F6018F
:1029C00020830E94691387EF95E00E94F90A802F07
:1029D00090E00E94A9108EEC95E00E94F90AF501A2
:1029E000808191810E94A91085EC95E00E94F90AEE
:1029F0008FEF9FEF0E94A91083EC95E00E94C70F14
:102A00008DE495E00E94D50F0DCF802F0E94A40E7B
:102A1000882309F4B3CFEB81FC81EC5AFB4F808112
:102A20009181009711F484E190E0F501E451FD4FAC
:102A30009183808324E054CF2D813E81729EF001EA
:102A4000739EF00D1124E857FC4F80819181B0E016
:102A5000A0E040E050E0BA01112321F04FEF5FEF1A
:102A600060E070E084179507A607B70759F58D81D8
:102A70009E81789EF001799EF00D1124E857FC4F5D
:102A80008081918193838283ED81FE81E15BFC4FA4
:102A90001082ED81FE81E050FC4F108225E0F601AE
:102AA00020830E94691382E495E00E94F90A802F36
:102AB00090E00E94A91085E095E00E94C70F83E88E
:102AC00094E0A0CF20E030E0A9016981862D0E942A
:102AD000540DA8CEC701880F991FFC01E451FD4F8A
:102AE000FA83E983A080B180A114B104C1F020E091
:102AF00030E0A901632D862D0E94540D882309F42E
:102B000091CE8091170190E0A816B90608F4C5018E
:102B1000A81AB90AE981FA81B182A08283CE2D81F7
:102B20003E81729EF001739EF00D1124E857FC4F18
:102B300022813381808191812817390709F072CE73
:102B4000802F0E94A40E8111A4CEEB81FC81EC5A4F
:102B5000FB4F80819181112371F1B0E0A0E0880FDB
:102B6000991FAA1FBB1FA40170E060E0841795079E
:102B7000A607B70700F5F401E81BF90BCF012D817B
:102B80003E81729EF001739EF00D1124E857FC4FB8
:102B90009183808393838283F901E050FC4F2082EC
:102BA000215B3C4FF9011082F60110828CE891E024
:102BB0000E94151337CE90E080E0E1CF1092FF0322
:102BC000882309F45DC090910404911159C06111EA
:102BD00015C020E030E83093CD032093CC03309330
:102BE000DE032093DD033093CF032093CE03309395
:102BF000E0032093DF0391E019C060E02091050419
:102C000080E090E89093CD038093CC039093DE0313
:102C10008093DD039093CF038093CE039093E003E2
:102C20008093DF03962F862F61E062279093F60250
:102C30006093F7021092F3021092F2021092F502E2
:102C40001092F4021092ED021092EC021092EF0238
:102C50001092EE021092F0021092F102882339F1E4
:102C600081E08093530310920404662329F081E0ED
:102C7000809354031092050486E991E00C94151397
:102C80006111BBCF80E090E89093CD038093CC039B
:102C90009093DE038093DD039093CF038093CE0364
:102CA0009093E0038093DF0380E090E0BFCF611159
:102CB000DECF08952F923F924F925F926F927F9254
:102CC0008F929F92AF92BF92CF92DF92EF92FF923C
:102CD0000F931F93CF93DF93CDB7DEB7C555D109BF
:102CE0000FB6F894DEBF0FBECDBF4FE250E068E5EF
:102CF00073E0CE0101960E947C3318AAFE01319642
:102D00002E2F9F2FDF018D91803289F0893079F04D
:102D1000882309F44DC08191882359F03FE9380F89
:102D20003A3108F48052DF0111978C93F4CFFD0102
:102D3000E7CF22962FAF229723969FAF2397CE01FE
:102D40008F5B9F4F0E94CF0E8C01009789F1DC01B1
:102D50008C91853409F059C011968C91882329F003
:102D600090ED980F9A3008F050C019AA81113AC01E
:102D7000CE018F5B9F4F0E94CF0E009729F487EE04
:102D80009FE00E94321014C0BE016F5C7F4F0E9412
:102D90002B0F8823A1F389A98150873080F789A957
:102DA0000E94600E882371F18BED9FE00E94C70F97
:102DB000CB5ADF4F0FB6F894DEBF0FBECDBFDF9109
:102DC000CF911F910F91FF90EF90DF90CF90BF9028
:102DD000AF909F908F907F906F905F904F903F90BB
:102DE0002F900895BE016F5C7F4FC80101960E942D
:102DF0002B0F882321F089A98150873080F28DED37
:102E00009FE0BFCF89ED9FE0D1CF69EA71E0C801B3
:102E10000E94580F811121C062EB71E0C8010E942D
:102E2000580F81111AC068EB71E0C8010E94580F59
:102E300081111DC063EC71E0C8010E94580F882306
:102E400001F181E080936A04809369040E94740B0D
:102E50000E9469138EEA9FE0A9CF81E080936B0402
:102E60000E94740B0E94691389EC9FE09FCF81E060
:102E700080936B040E94740B8AEB9FE00E948B137B
:102E800097CF60ED71E0C8010E94580F882309F4C4
:102E9000B5C01092570381E080936A0482E080936A
:102EA00069040E94740B0E94740B10E0812F0E9431
:102EB0007D0B1F5F1730D1F70E949D1380912E016B
:102EC0000091040491E00927811101C000E01091F4
:102ED0002F01112321F01091050491E01927811190
:102EE00005C085ED9DE00E94C70F12C080910404CB
:102EF0008823B9F084EB9DE00E94C70F80EA9DE033
:102F00000E94F90A80915C0490915D040E94AF10C8
:102F100080912F01811108C08FE69DE00E94C70FAC
:102F200015C080E99DE0DFCF80910504882371F111
:102F30008EE49DE00E94C70F8AE39DE00E94F90A9B
:102F400080915E0490915F040E94AF10011103C054
:102F5000112309F446C0612F802F0E94DE15011154
:102F600002C01123F1F180915303811104C08091BB
:102F70005403882371F00E94B0130E948B0B809140
:102F80005603882381F30E947510EDCF8AE29DE0FD
:102F9000C5CF002391F080910404882329F181E2B8
:102FA0009DE00E94C70F8DE09DE00E94F90A80918C
:102FB0005C0490915D040E94AF10112391F0809108
:102FC00005048823B1F083EB9CE00E94C70F8FE9D2
:102FD0009CE00E94F90A80915E0490915F040E9437
:102FE000AF1086EF9DE0E2CE8CEB9CE00E94C70F15
:102FF000E4CF8EE49CE00E94C70FF3CF69ED71E04F
:10300000C8010E94580F882309F432C110926A0443
:10301000109269040E94740B809157038111C8CEED
:1030200080914E03882309F420C110924D03109221
:103030004C0347E0842E44E0942E50E0A52E54E04B
:10304000B52E6CE1C62E61E0D62E7AE2672E71E0D5
:10305000772E08E413E0ECE4F3E02696FFAFEEAF42
:10306000269724E534E02A963FAF2EAF2A9744E016
:1030700050E02E965FAF4EAF2E97F12CE12CE4E698
:103080002E2E312C412C512CD401D6962C91253644
:1030900008F04FC0F3018481882309F44AC0D501A8
:1030A00014968C91882309F444C0F601A085B1855B
:1030B000109709F43EC02A96EEADFFAD2A978085A1
:1030C0009185880F991F8A179B0708F0C8C0A81B15
:1030D000B90B30E00E943333A20191010E941133F9
:1030E000D80111963C932E9321E02696EEADFFADCC
:1030F000269720838FB7F89491E12E964EAD5FAD61
:103100002E97949FF001959FF00D1124E857FC4FE6
:10311000208131818FBF8D919C918217930708F098
:10312000A1C0F901E81BF90BCF01E816F90608F474
:103130007C01FBE08F0E911C2FEFA21AB20A32E045
:10314000C30ED11C4FEF641A740A0E5F1F4F2696F0
:103150008EAD9FAD2697019626969FAF8EAF269790
:103160002A96AEADBFAD2A9712962A96BFAFAEAFE4
:103170002A972E96EEADFFAD2E97359709F068C0D1
:1031800080914C03811105C080914D03882309F47F
:103190006CC089E39CE00E94D50F86E991E00E9413
:1031A00015131092FF038091180190911901A091BD
:1031B0001A01B0911B0188379105A105B10520F4D2
:1031C00088E790E0A0E0B0E080934403909345034B
:1031D000A0934603B0934703809117018093430364
:1031E0000E942C0D8C010E9479094B015C01970112
:1031F000A8EEB3E00E9433330115110511F401E08C
:1032000010E075016401F8E8CF0EF3E1DF1EE11C68
:10321000F11C980150E040E00E941133C20ED31E11
:10322000E41EF51EC0923F03D0924003E09241039A
:10323000F09242030E94220960933B0370933C0387
:1032400080933D0390933E0381E080935703B0CD7C
:1032500085E090E02E969FAF8EAF2E9715CFB0E011
:10326000A0E037CF821B930B60CF82EA9FE006CEAF
:1032700064EE71E0C8010E94580F882359F0109243
:103280006A04109269040E94740B0E94691389E910
:103290009FE08CCD6CEE71E0C8010E94580F811147
:1032A00018C064EF71E0C8010E94580F811111C06D
:1032B0006FEF71E0C8010E94580F811115C06BEBD0
:1032C00071E0C8010E94580F8823D9F182E29CE086
:1032D000D5CD10926B04109269040E94740B0E9469
:1032E000691386E89FE062CD0E94740B10E0812F85
:1032F0000E947D0B1F5F1730D1F70E949D138091B4
:103300002E01882331F080910404811118C080912E
:10331000660490912F01992311F40C94232290912B
:10332000050491110C94232260916704662311F423
:103330000C9423220E94DE158EE29CE037CD80E0C3
:10334000E8CF65E772E0C8010E94580F882309F4AE
:1033500077C08DE09CE00E94F90A82E00E94452837
:1033600085E09CE00E94F90A80914E03882309F4CD
:1033700065C081E30E94C0268EEF9BE00E94F90A9F
:103380000E942C0D0E94A91083EF9BE00E94F90A75
:103390006AE2862E61E0962E72E6A72E74E0B72EC2
:1033A000ECE1CE2EE1E0DE2EF4E5EF2EF4E0FF2E90
:1033B00007E014E0712C80EF9BE00E94F90A7394FF
:1033C000872D0E9445288DE30E94C026D4018D914F
:1033D0004D010E9445288CE20E94C026F501819192
:1033E0005F010E9445288CE20E94C026D6018D9183
:1033F0009D916D010E94A9108CE20E94C026F701E8
:10340000819191917F010E94A9108CE20E94C026B7
:10341000D80119968C910E9445288CE20E94C02602
:10342000F80182850E944528055F1F4FF7E07F1253
:10343000C2CF8EE791E00E94680FBACC80E39ACFAA
:1034400063E872E0C8010E94580F882309F4D4C1D0
:10345000CE018F5B9F4F0E94CF0E7C01CE018F5B10
:103460009F4F0E94CF0E6C01CE018F5B9F4F0E9439
:10347000CF0E8C01E114F10419F0C114D10419F438
:103480008DE79FE07ECC19AA1AAA1BAA1CAABE012E
:103490006F5C7F4FC6010E94F80E811103C083E765
:1034A0009FE06FCC89A99AA9ABA9BCA90097A140BC
:1034B000B10540F08FEF9FEFA0E0B0E089AB9AAB91
:1034C000ABABBCAB24961FAE24970115110589F058
:1034D000BE016D5B7F4FC8010E942B0F882331F026
:1034E00024968FAD24978150873018F089E69FE0AD
:1034F00048CC66E072E0C7010E94580F882309F4A7
:1035000071C00E9441280E94620865E070E080E07E
:1035100090E00E944709C9A8DAA8EBA8FCA83C2DB6
:103520002D2D9E2D8F2D41E1C41647E2D406E104D6
:10353000F10420F030E127E290E080E0832E922E2B
:10354000A92EB82E52E385169104A104B10428F4E3
:1035500052E3852E912CA12CB12CC501B401969576
:10356000879577956795605C7D4B804F9F4FA50150
:1035700094010E94113388E2C81683E2D806E10460
:10358000F10408F067C78CE090E7C91697E1D90607
:10359000E104F10408F05FC788E0ACEACA16ADE0C8
:1035A000DA06E104F10408F056C785E0B8E0CB166E
:1035B000B7E0DB06E104F10408F04DC783E0E0E288
:1035C000CE16E3E0DE06E104F10408F044C781E032
:1035D000FCE2CF16F1E0DF06E104F10408F43BC79A
:1035E00082E039C724960FAD24978AE59FE0002337
:1035F00009F4C7CB1FEF100F66EC71E0C7010E9402
:10360000580F882319F121E089A99AA9ABA9BCA96F
:10361000892B8A2B8B2B09F420E0E12FF0E0DF01CE
:10362000A65DBE4F2C93EE0FFF1FE25BF04F85911E
:10363000949130E03EAF2DAFBE01635C7F4F0E949E
:10364000BD100E94E70C0E944128B2CB69EA72E0EB
:10365000C7010E94580F882391F189A99AA9ABA9A3
:10366000BCA99C01053020F497FF02C02FEF3FE773
:10367000E12EF12CF701EE0FFF1F8F01045E1E4FAC
:10368000D8012D933C93EE5BF04F859194913CAF24
:103690002BAFBE01655C7F4F0E94BD1024968FAD9D
:1036A00024970E94A728F701EE59FB4F81E0D8012B
:1036B0002D913C91232B09F480E08083C4CF6FE0EF
:1036C00072E0C7010E94580F882309F180E39FE050
:1036D000053008F456CB29A93AA9E12FF0E0EE0F06
:1036E000FF1FDF01AC5ABB4F2D933C93EC5DF04FB5
:1036F000859194913AAF29AFBE01675C7F4F0E94DC
:10370000BD1024968FAD24970E94A7289CCF66E118
:1037100072E0C7010E94580F8823F1F189E19FE010
:10372000053008F42ECB49A95AA96BA97CA921E040
:10373000411551056105710509F420E0812F90E0E4
:10374000452B462B472B49F0FC01EE0FFF1FE45E93
:10375000FE4F40815181452BE1F03BE0389FF00165
:10376000399FF00D1124E95FFB4F218780509C4F5A
:10377000FC01108230E08CE490E0143011F080E520
:1037800090E038AF2FABBE01695C7F4F0E94BD1047
:103790005ACF8CE09FE0F5CA61E272E0C7010E9457
:1037A000580F882331F181E09FE0053008F4E9CA21
:1037B00089A99AA9ABA9BCA985369105A105B1052E
:1037C00020F08FEF90E0A0E0B0E00BE0109FF00160
:1037D0001124E95FFB4F828724E530E0143011F0BB
:1037E00028E530E09EAB8DABBE016B5C7F4FC9011D
:1037F000CDCF85EF9EE0C5CA69E272E0C8010E94A4
:10380000580F882309F41BC6CE018F5B9F4F0E947F
:10381000CF0E8C01CE018F5B9F4F0E94CF0E011502
:10382000110519F48CEE9EE0ACCA1DAA009769F050
:10383000BE016B5C7F4F0E942B0F882319F08DA96E
:10384000883018F082EE9EE09CCA6CE272E0C801FB
:103850000E94580F882331F00E94FD0C81E0809374
:10386000FF03F1CE63E372E0C8010E94580FF82E07
:10387000882381F18DA9853011F081110BC085E07D
:103880000E947B288FED9EE00E94D50F85E00E946C
:10389000892BF82E8DA9863011F081110DC086E09C
:1038A0000E947B288CED9EE00E94D50F86E00E944E
:1038B000892B811101C0F12C8DA9882331F085500D
:1038C000823018F081ED9EE05CCAF110BCCE84EC31
:1038D0009EE057CA6EE372E0C8010E94580F882329
:1038E00079F08DA99BEF980F923018F089EB9EE04C
:1038F00048CA0E94D8268111A6CE8DEA9EE041CA10
:103900006CE472E0C8010E94580F882379F08DA9F9
:103910009BEF980F923018F082EA9EE032CA0E9424
:10392000D826811190CE86E99EE02BCA6AE572E026
:10393000C8010E94580F8823F9F00E949D138091BE
:103940002E01882331F080910404811113C08091ED
:10395000660490912F01992309F494C59091050470
:10396000911190C560916704662309F48BC50E948C
:10397000DE1569CE80E0EDCF63E672E0C8010E94FB
:10398000580FA82E882339F00E94FD0C1092FF03D7
:103990000E94791358CE6DE672E0C8010E94580F5C
:1039A000882309F497C0CE018F5B9F4F0E94CF0EF2
:1039B0008C01CE018F5B9F4F0E94CF0E7C010115C1
:1039C000110511F0892B19F48DE89EE0DAC919AAC6
:1039D000BE016F5C7F4FC8010E942B0FB82E882359
:1039E00009F475C0A9A90FEF0A0F073008F06FC0DE
:1039F000F70180811FEFE11AF10A8032C9F38930A3
:103A0000B9F38B3259F0CC24CA94DC2C76018D3278
:103A100049F0C12CD12C7601C39405C0C12CD12C06
:103A20007601C394319620E030E0A901119180ED38
:103A3000810F8A3098F4AAE0B0E00E940633212F6B
:103A4000110F330B20533109032E000C440B550B7F
:103A5000260F371F481F591FAB2CE8CFAA20A1F112
:103A60008FB7F894E02FF0E091E1099FD001112485
:103A7000A857BC4F0D911C918FBFC701B6010E9482
:103A80004233DC01CB01800F911FA11DB11D0097B6
:103A900001E0A007B10524F08FEF9FEFA0E0B0E0B8
:103AA000B7FF03C080E090E0DC014FB7F89451E12C
:103AB0005E9F90015F9F300D1124F901E857FC4F84
:103AC000938382834FBFBFCD89E79EE05AC983E8C5
:103AD0009EE057C962E772E0C8010E94580F882330
:103AE00009F443C08DA98150873008F061C9CE0127
:103AF0008F5B9F4F0E94CF0E19AA1AAA1BAA1CAA5D
:103B0000009709F455C9BE016F5C7F4F0E94F80E03
:103B1000882309F44DC989A99AA9ABA9BCA9009722
:103B2000A140B10540F08FEF9FEFA0E0B0E089AB7E
:103B30009AABABABBCAB8DA9815090E0FC01E65DCC
:103B4000FE4F2081222309F433C949A95AA92FB76E
:103B5000F89431E1389FF001399FF00D1124E857B6
:103B6000FC4F538342832FBF23C969E772E0C8012A
:103B70000E94580F882339F060912F0180912E0107
:103B80000E948F1160CD67E872E0C8010E94580F53
:103B900081112DC062E972E0C8010E94580F8111A5
:103BA00026C061EA72E0C8010E94580F8111A5C0C9
:103BB0006DEA72E0C8010E94580F8111E4C06AEBFF
:103BC00072E0C8010E94580F8111DDC062EC72E002
:103BD000C8010E94580F8111D6C069EC72E0C8017B
:103BE0000E94580F8111E9C18DE09EE0CAC88DA9DD
:103BF0009BEF980F923018F08EE69EE0C2C80E94AC
:103C00007B288CE69EE00E94D50F6DA970E08BE6C4
:103C10009EE00E94A1271DA98BEF810F823038F012
:103C200084EC9BE00E94D50F8EE59EE0AAC810921E
:103C3000FF036FEA7BE0812F0E9428280E94FA1080
:103C40000E94E70C49E95BE0612F81E00E94F827C0
:103C5000812F0E94892B6DE77BE0882399F066E92C
:103C600070E080E090E00E94470947E65BE0612F4A
:103C700082E00E94F827812F0E94EB28811106C064
:103C80006BE47BE0812F0E942828CECF8091FF0338
:103C900063E47BE08111F6CF8FEF810F90E0DC01D0
:103CA000AE59BB4F880F991FFC01E45EFE4F81E0C7
:103CB00020813181232B09F480E08C93E12FF0E007
:103CC000E150FC4F81E0808346E25BE0612F83E0BE
:103CD0000E94F827812F0E94A7280E94791380E96B
:103CE00091E00E94151381EE9AE00E94D50F6DECD1
:103CF0007AE0812F0E942828A6CC8DA99BEF980FEF
:103D0000923018F083E59EE03CC80E947B2881E554
:103D10009EE00E94D50F6DA970E080E59EE00E94B4
:103D2000A1278DA99BEF980F923038F08BEA9AE08B
:103D30000E94D50F83E49EE024C80E94EB288823CC
:103D4000C9F38DA9EFEFE80F2E2F30E041E1E49F9A
:103D5000F0011124E857FC4F40815181F901EE0F29
:103D6000FF1FE45EFE4F51834083F901EE59FB4F84
:103D700091E0452B09F490E0908320503C4F91E076
:103D8000D9019C93C1CC8DA99BEF980F923020F064
:103D900088E39EE00C94C1160E947B2886E39EE097
:103DA0000E94D50F6DA970E085E39EE00E94A127D7
:103DB0005DA88BEF850D823028F083E89AE00E94A1
:103DC000D50F1EC01092FF030FEF050D10E0F80194
:103DD000E050FC4F2696FFAFEEAF26978081811111
:103DE00013C063E57AE0852D0E942828852D0E9466
:103DF000892B811109C067E37AE0852D0E9428286C
:103E000087E29EE00C94C1167801EE0CFF1CF701CE
:103E1000E45EFE4F80819181892B19F485E19AE05F
:103E2000CECF852D0E948427F701EC5AFB4F60808E
:103E30007180680E791E76946794C0901801D090B6
:103E40001901E0901A01F0901B01F8E7CF16D10498
:103E5000E104F10428F428E7C22ED12CE12CF12C46
:103E6000409017010E9422094B015C010E949D13A2
:103E700086E991E00E94151321E1209FC001219F56
:103E8000900D11248C0108571C4F1801242D30E08F
:103E900050E040E066962CAF3DAF4EAF5FAF669707
:103EA000C301B0E0A0E02C968CAF9DAFAEAFBFAF2A
:103EB0002C970E5F1F4F2E961FAF0EAF2E97042D1F
:103EC00010E062961FAF0EAF6297D1018D919C9169
:103ED00011976816790609F45CC00E94FF268823B2
:103EE00071F06DE07AE0852D0E9428280E94582804
:103EF0000E94791386E991E00E94151381CF0E94F8
:103F00002209681979098A099B0997FD20C08C0C40
:103F10009D1CAE1CBF1CF101008111816016710651
:103F2000C8F40E946F2862962EAD3FAD62972017AD
:103F3000310728F4021B130B0615170508F483013B
:103F40002E96AEADBFAD2E9711961C930E930E9488
:103F50008B0BBBCF0E94632866964CAD5DAD6EADFA
:103F60007FAD6697400F511F611D711D2C968CAD62
:103F70009DADAEADBFAD2C97481759076A077B07BB
:103F800008F4CA012E96EEADFFAD2E979183808383
:103F9000DECF13967C926E92129781E02696EEAD5C
:103FA000FFAD269780830E944C2880E991E00E9413
:103FB00015136BEF79E0852D9DCE8DA99BEF980FA2
:103FC000923020F08CE19EE00C94C1160E947B2878
:103FD0001DA90E94CA2622242A94210E6AED79E0A6
:103FE000812F0E942828812F0E94892B81110AC0CD
:103FF0006FEB79E0812F0E9428280E9458280E94A8
:10400000C52621CB312CF101EE0FFF1FEC5AFB4FDF
:1040100080809180812F0E9484272A969FAF8EAF47
:104020002A97209118013091190140911A0150915D
:104030001B0128962CAF3DAF4EAF5FAF28972837B6
:1040400031054105510550F488E790E0A0E0B0E06B
:1040500028968CAF9DAFAEAFBFAF289700911701E8
:104060000E9422092B013C016DEA79E0812F0E9418
:1040700028288CE899E00E94D50F0E949D1345E7FF
:1040800059E0612F81E00E94F8278EE599E00E94B7
:10409000D50F0E946F2821E1229DC001239D900D24
:1040A0001124DC01A857BC4F7D01C02ED12C5D012D
:1040B000B2E0AB0EB11CF7018081918188169906A0
:1040C00008F04CC08EE694E00E945A0B892BD9F080
:1040D0008EE694E00E94360B8197A9F48EE694E078
:1040E0000E94180B81E08093FF0363E479E0812F45
:1040F0000E9428280E9458280E94791386E991E09E
:104100000E9415137CCF0E94220964197509860943
:10411000970997FD19C028962CAD3DAD4EAD5FAD0A
:104120002897420E531E641E751ED7018D919C91D7
:10413000C816D90628F48C199D098815990508F424
:10414000C401F501918380830E948B0B8091FF0352
:10415000882309F4B0CF68E279E0C9CF6CE271E05E
:1041600080E090E00E94470941E159E0612F82E040
:104170000E94F8278AEF98E00E94D50F0E946328DA
:1041800021E1229DC001239D900D11249C012857FF
:104190003C4F5901802F90E0B0E0A0E060968CAFDA
:1041A0009DAFAEAFBFAF60972A96AEADBFAD2A97B9
:1041B0006D01F12CE12CF90132966296FFAFEEAF62
:1041C0006297D5018D919C912A96EEADFFAD2A970D
:1041D0008E179F0708F04CC08EE694E00E945A0BA1
:1041E000892B81F08EE694E00E94360B819751F482
:1041F0008EE694E00E94180B81E08093FF036FED40
:1042000078E075CF0E94220964197509860997091B
:1042100097FD24C028962CAD3DAD4EAD5FAD2897DF
:10422000420E531E641E751ED5018D919C916096A1
:104230004CAD5DAD6EAD7FAD6097480F591F611DF0
:10424000711DC6014C155D056E057F0508F4CA0198
:104250006296EEADFFAD6297918380830E948B0BD7
:104260008091FF03882309F4ACCF64EC78E03FCF62
:104270006CE271E080E090E00E9447092A962EAD42
:104280003FAD2A97820E931E9694879444EB58E094
:10429000612F83E00E94F82784EA98E00E94D50FFE
:1042A0000E946F2821E1229DC001239D900D1124C1
:1042B000AC0148575C4F7A01C02ED12C5A0152E014
:1042C000A50EB11CD7018D919C918816990608F016
:1042D00041C08EE694E00E945A0B892B81F08EE655
:1042E00094E00E94360B819751F48EE694E00E9490
:1042F000180B81E08093FF0369E878E0F8CE0E9414
:104300002209641975098609970997FD19C028962D
:104310002CAD3DAD4EAD5FAD2897420E531E641ED1
:10432000751ED7018D919C91C816D90628F48C1959
:104330009D098815990508F4C401F50191838083CE
:104340000E948B0B8091FF03882309F4BBCF6EE69C
:1043500078E0CDCE0E94632821E1229DC001239DFB
:10436000900D11249C0128573C4F5901802F90E05B
:10437000B0E0A0E02C968CAF9DAFAEAFBFAF2C9756
:104380006401F12CE12C190192E0290E311CD501B8
:104390008D919C918815990508F049C08EE694E0AE
:1043A0000E945A0B892B81F08EE694E00E94360B16
:1043B000819751F48EE694E00E94180B81E080937F
:1043C000FF0363E578E093CE0E9422096419750922
:1043D0008609970997FD21C028962CAD3DAD4EADBD
:1043E0005FAD2897420E531E641E751ED5018D9138
:1043F0009C912C964CAD5DAD6EAD7FAD2C97480F6A
:10440000591F611D711DC6014C155D056E057F05A7
:1044100008F4CA01F101918380830E948B0B809183
:10442000FF03882309F4B3CF68E378E060CE67E246
:1044300078E0812F0E9428280E944C28E0CD81E05E
:104440009EE00C94C116882311F40C949C1960E032
:104450000C949A1980E1209318013093190140932C
:104460001A0150931B018093170121969FAE8EAEC7
:104470002197BE01615C7F4F80E291E00E94BD10F8
:104480000C94D816882309F4DEC860E070CA0F9334
:104490001F93CF93C0911403CC23E1F00E947909BC
:1044A0000091100310911103209112033091130316
:1044B000601B710B820B930B6333710581059105B2
:1044C00048F0EC2FF0E0E85AFC4F10820E945A1698
:1044D00010921403CF911F910F9108951F920F9284
:1044E0000FB60F9211242F933F938F939F93AF9307
:1044F000BF938091330390913403A0913503B09121
:1045000036033091320323E0230F2D3758F50196FF
:10451000A11DB11D20933203809333039093340384
:10452000A0933503B09336038091370390913803FD
:10453000A0913903B0913A030196A11DB11D80935A
:10454000370390933803A0933903B0933A03BF9194
:10455000AF919F918F913F912F910F900FBE0F9030
:104560001F90189526E8230F0296A11DB11DD2CFEA
:104570001F920F920FB60F9211242F933F934F93D8
:104580005F936F937F938F939F93AF93BF93CF93DB
:10459000EF93FF93C091E1008091E100837F8093CE
:1045A000E100C3FF0FC01092E90081E08093EB00AF
:1045B0001092EC0082E38093ED0010926D0488E08D
:1045C0008093F000C2FF1AC00E94620880910C0321
:1045D000882341F080910C03815080930C0381115A
:1045E00001C05D9A80916C04882341F080916C0435
:1045F000815080936C04811101C0289AC4FF23C0AC
:104600008091E2008E7E81608093E2008091E100E3
:104610008F7E8093E10080910D038E7E8061809378
:104620000D03FF91EF91CF91BF91AF919F918F912A
:104630007F916F915F914F913F912F910F900FBE9E
:104640000F901F901895C0FFECCF8091E2008E7EF6
:1046500080618093E2008091E1008E7E8093E10092
:1046600080910D038E7E8160DACF1F920F920FB67C
:104670000F921124CF92DF92EF92FF920F931F932C
:104680002F933F934F935F936F937F938F939F935A
:10469000AF93BF93EF93FF93CF93DF93CDB7DEB785
:1046A0006C97DEBFCDBF1092E9008091E80083FFD8
:1046B00025C068E0CE0145960E940C0A82EF8093E7
:1046C000E8008D8987FF39C09091E80090FFFCCF0A
:1046D000982F907609F034C19E894F89588D2F8983
:1046E000F88C911131C0803861F580910E03809370
:1046F000F1001092F1008EEF8093E8006C960FB6F7
:10470000F894DEBF0FBECDBFDF91CF91FF91EF9147
:10471000BF91AF919F918F917F916F915F914F91D9
:104720003F912F911F910F91FF90EF90DF90CF90CD
:104730000F900FBE0F901F9018959EEF9093E8007A
:10474000C7CF1092F100D5CF913059F48111D3CF5A
:104750004130510581F680910E038D7F80930E03C9
:10476000CACF933049F48111C6CF4130510519F6B3
:1047700080910E038260F2CF953041F48091E80081
:1047800080FFFCCF20682093E300B5CF963009F07E
:10479000A9C00B8D1C8D22E01092E90010920A0333
:1047A00010920903F2122EC0109208031092070310
:1047B0000E942D0A1F8299E09983FA8291E09E83DC
:1047C00090EA98879AEF99872091090330910A031C
:1047D000275F3F4F3C832B838D831092E90010921B
:1047E0000A0310920903109308030093070349E09A
:1047F00050E0BE016F5F7F4F80E00E94E6090E949B
:104800002D0A79CF10930803009307030E94190A19
:10481000DC0112960D911C910115110509F451C18D
:10482000D801ED91FC910480F581E02DBE016B5E15
:104830007F4FC8010995009709F03EC1F801008536
:104840001185EACFF3E0FF120EC08F89882309F4A7
:1048500040C0823061F440E860E183E996E00E9464
:10486000B309811148CF81E28093EB0047CF8130BB
:1048700029F440E86BE087E896E0F1CF833099F7C0
:104880000E94190ADC011296ED90FC908E010F5FD8
:104890001F4F6801E114F10479F0D701ED91FC910B
:1048A0000680F781E02DB801C7010995080F111D99
:1048B000F701E084F184EECFD8011C92F60101905B
:1048C0000020E9F73197BF016C197D0940E0C6016E
:1048D000C6CF61E776E0FB01449150E080E80E949A
:1048E000E60909CF973009F4BECF983021F481E072
:1048F0008093F10000CF993009F0FDCE837009F06C
:10490000B2CFE2E5F1E081E031E096E321912223AC
:1049100071F08093E9003093EB00DF0111972C9147
:104920002093EC009093ED008F5F873079F78EE74E
:104930008093EA001092EA008F8980936D04DBCEA9
:104940008B8D9C8D1092E90010920A03109209033E
:104950009093080380930703898D811192C08E89FB
:104960009D89913A49F4813209F07DCF47E050E0CA
:104970006FE071E080E0B3CF913209F074CF833201
:1049800069F48F89988DB0E0A0E080930B0190933B
:104990000C01A0930D01B0930E01ADCE803269F4ED
:1049A0008091E80082FFFCCF67E08FE091E00E94F9
:1049B0000C0A8BEF8093E8009ECE823209F09BCEEA
:1049C0008F8980931601EEEFFFE7859194918B3FDD
:1049D0009C4D51F1E0E0F8E080910F0190911001C1
:1049E000A0911101B0911201803B9440A105B10545
:1049F000F1F48091160180FD1AC0EE3F8AE0F807BD
:104A000089F587E797E791838083809160008093A1
:104A10000B0388E19BE00FB6F894A89580936000A3
:104A20000FBE9093600067CEEEEFFAE0D5CF8081A5
:104A300091818737974709F05ECEA89580916000F5
:104A400088618093600080910B0380936000EE3F4B
:104A50002AE0F20789F08091FE0A9091FF0A918383
:104A6000808349CE808191818737980751F2909356
:104A7000FF0A8093FE0AC5CF1092FF0A1092FE0A29
:104A80003ACE0E94190ADC0112960D911C91011573
:104A9000110509F4E8CED801ED91FC910190F08167
:104AA000E02DBE016B5E7F4FC8010995811123CEB9
:104AB000F80100851185EBCF181619060CF41BCEF2
:104AC000D2CEF1E0FF12BECE65E776E004CF1F92B2
:104AD0000F920FB60F9211242F933F934F935F9332
:104AE0006F937F938F939F938091FA02882331F085
:104AF00095B18095892385B91092FA028091F902C7
:104B0000882331F09BB1809589238BB91092F902EB
:104B10008091F802882331F091B38095892381BB7D
:104B20001092F80280914E03882309F41BC19091E2
:104B30000A01209188033091890340918A035091A2
:104B40008B032417350781F08FEF2417350708F4FE
:104B500081E040910301481709F445C018160CF094
:104B600040C05C988093030180E0923008F4FAC062
:104B70002091990330919A0340919B0350919C039B
:104B80002417350771F02417350708F43CC04FEFA0
:104B9000509104015417D9F11416BCF5469840936E
:104BA00004019230D1F02091AA033091AB034091DF
:104BB000AC035091AD032417350769F0241735076E
:104BC000A0F14FEF50910501541799F114167CF59F
:104BD0005F98409305019330B9F5882309F4C2C06A
:104BE00022C05C9ABFCF280F311D87FD3A953093C4
:104BF00089032093880380E1923008F0B9CF20E048
:104C000080E190E09CC041E0C3CF469AC8CF80626B
:104C1000240F311D47FD3A9530939A032093990351
:104C2000923009F0C0CF20E0ECCF41E0CBCF5F9ACB
:104C3000D0CF8064240F311D47FD3A953093AB03EC
:104C40002093AA03933079F32091BB033091BC03E6
:104C50004091BD035091BE032417350769F0241716
:104C6000350768F04FEF50910601541761F01416A4
:104C700044F4769840930601943081F4AECF41E03D
:104C8000F2CF769AF7CF8068240F311D47FD3A9511
:104C90003093BC032093BB03943029F22091CC03C2
:104CA0003091CD034091CE035091CF0324173507A7
:104CB00069F02417350760F04FEF50910701541742
:104CC00059F014163CF458984093070120E00DC0A9
:104CD00041E0F3CF589AF8CF240F311D47FD3A95A4
:104CE0003093CD032093CC0320E49530C9F040915C
:104CF000DD035091DE036091DF037091E0034617FE
:104D0000570771F09FEF4617570708F491E030916D
:104D10000801391749F019162CF48C989093080162
:104D200090E00BC08C9AFACF490F511D97FD5A9510
:104D30005093DE034093DD0390E2882329F035B1E0
:104D4000382B35B98093FA02222329F08BB1822BBC
:104D50008BB92093F902992329F081B3892B81BB68
:104D60009093F8029F918F917F916F915F914F91F6
:104D70003F912F910F900FBE0F901F90189500003C
:104D8000682F8EE694E00C94E30A82E088BB80935F
:104D9000710008951092710085B18F7085B95E9889
:104DA0008D981092FA021092F9021092F80208956A
:104DB000382F8091180190911901A0911A01B0919A
:104DC0001B0188379105A105B10520F488E790E023
:104DD000A0E0B0E0BC01CD019695879577956795E9
:104DE000613D27E072078105910520F060ED77E0D5
:104DF00080E090E021E043E0832F0C94730ECF928B
:104E0000DF92EF92FF921F93CF93DF93CDB7DEB780
:104E100068970FB6F894DEBF0FBECDBF1091FF03A9
:104E200011111CC08EE694E00E945A0B892BB1F040
:104E3000CE0101967C016C018EE694E00E945A0B33
:104E4000892B21F1173111F18EE694E00E94180BA5
:104E5000813299F481E08093FF0311E0812F6896FD
:104E60000FB6F894DEBF0FBECDBFDF91CF911F917B
:104E7000FF90EF90DF90CF9008958D3039F08A3019
:104E800029F01F5FD6018D936D01D6CFF701E10F99
:104E9000F11D1082F701D7018D917D018032D1F390
:104EA0008930C1F38F7D843461F581818F7D8F34AA
:104EB00041F53296DF0181918032E1F38930D1F3FF
:104EC0008F7D8334F1F411968C9111978F7D81340D
:104ED000C1F412968C9112978F7D8E3491F41396B3
:104EE0008C9113978F7D833461F414968C91149771
:104EF0008F7D853431F415968C918F7D8C3409F437
:104F0000A9CF1091FF03AACF8150282F30E0220FA4
:104F1000331FF901E45EFE4F808191812C5A3B4F93
:104F2000F901208131812817390750F4A901440F74
:104F3000551F8417950710F401970895821B930B52
:104F40000895BF92CF92DF92EF92FF920F931F933B
:104F5000CF93DF93CDB7DEB72B970FB6F894DEBFB4
:104F60000FBECDBF8C01CB01009741F19E01295F9F
:104F70003F4FB12C79014AE0C42ED12CB394B60135
:104F80000E945233805DD9018D939D01CB01009722
:104F900019F045E0B412F2CFDE0111968B2D9D0180
:104FA0008150A701480F511DFA0190819D938111F5
:104FB000F7CFF901EB0DF11D108203C080E3898367
:104FC0001A82C8010E94D50FCE0101960E94B90F26
:104FD0002B960FB6F894DEBF0FBECDBFDF91CF91F9
:104FE0001F910F91FF90EF90DF90CF90BF900895A9
:104FF0000F931F93CF93DF93D82FC62F8A0180E0A2
:1050000090E10E94D50F6D2F70E08FEF9FE00E941E
:10501000D70F8DEF9FE00E94D50F63E070E08CEF1B
:105020009FE00E94D70F85EF9FE00E94D50F6C2F65
:1050300070E084EF9FE00E94D70F81EF9FE00E9415
:10504000D50FC801DF91CF911F910F910C94D50F0F
:105050000F931F93CF93C82F8B0183EB90E00E9497
:10506000D50F6C2F70E082EB90E00E94D70F8CEA96
:1050700090E00E94D50FC801CF911F910F910C9421
:10508000D50F8AE094E00C94C70F682F70E090E091
:1050900080E04AE00C94750F80910001833039F074
:1050A00083E08093000186EC90E00C94D50F089586
:1050B00080910001882331F0109200018BEB90E089
:1050C0000C94D50F089580910001823039F082E070
:1050D0008093000185ED90E00C94D50F08958091A8
:1050E0000001813039F081E08093000189EE90E089
:1050F0000C94D50F0895CF93DF9300D0CDB7DEB7D2
:1051000081508730F8F4E82FF0E0DF01A65DBE4F54
:105110008C91811117C081E08C93EE0FFF1FE25B31
:10512000F04F8591949121E030E03A832983BE01CC
:105130006F5F7F4F0E94BD100E94E70C82E194E0F8
:105140000E94D50F0F900F90DF91CF910895EF92AD
:10515000FF920F931F93CF93DF9300D000D0CDB772
:10516000DEB79BEF980F923058F58150082F10E072
:10517000E92EF12CEE0CFF1CF701E55CFE4F80815F
:105180009181000F111FF801E45EFE4F20813181F3
:105190003A832983BE016F5F7F4F0E94BD10F701E4
:1051A000E95CFE4F80819181F801EC5AFB4F208130
:1051B00031813C832B83BE016D5F7F4F0E94BD1008
:1051C0000F900F900F900F90DF91CF911F910F9143
:1051D000FF90EF9008952F923F924F925F926F92BF
:1051E0007F928F929F92AF92BF92CF92DF92EF9277
:1051F000FF920F931F93CF93DF93CDB7DEB76997DD
:105200000FB6F894DEBF0FBECDBF982E0E94CA26FF
:1052100077247A94790C0E949D1386E991E00E948C
:1052200015138AED93E00E94D50F0E946328209108
:1052300018013091190140911A0150911B012C87DE
:105240003D874E875F87283731054105510540F47A
:1052500088E790E0A0E0B0E08C879D87AE87BF87AD
:10526000809017010E9422091B012C01892D0E94A8
:10527000600E882309F47DC088EB93E00E94D50F6F
:105280000E94632802E310E0A1E17A9EC00111248C
:10529000FC01E857FC4F7F01C82CD12C5F01F2E0E4
:1052A000AF0EB11C8EE694E00E945A0B892BB1F12F
:1052B0008EE694E00E94360B819781F58EE694E0AD
:1052C0000E94180B81E08093FF038AE993E00E941B
:1052D000D50F0E9458280E94791386E991E00E9418
:1052E000151310E00E94C526812F69960FB6F89419
:1052F000DEBF0FBECDBFDF91CF911F910F91FF9009
:10530000EF90DF90CF90BF90AF909F908F907F9065
:105310006F905F904F903F902F9008950E942209C8
:10532000621973098409950997FD1DC02C853D8577
:105330004E855F85220E331E441E551ED7012D91CA
:105340003C91C6010C151D0508F4C801AC012817D5
:10535000390710F441E050E0241B350BF50131838F
:105360002083081B190B0E948B0B0115110509F0F6
:1053700099CF272D30E0398B288B31E1739E800146
:10538000112408571C4FD80111961C921E92139697
:105390001C921E9212970E9479096B017C010E9457
:1053A0006328B12CA12C3801282D30E050E040E0DA
:1053B0002A8B3B8B4C8B5D8BA8014E5F5F4F5F8BC5
:1053C0004E8B882D90E0998F888F8EE694E00E9416
:1053D0005A0B892B81F08EE694E00E94360B819760
:1053E00051F48EE694E00E94180B81E08093FF0355
:1053F0008CE793E06CCF0E9422096219730984093B
:10540000950997FD26C02C853D854E855F85220E2A
:10541000331E441E551ED3018D919C912A893B89D0
:105420004C895D89280F391F411D511DDA01C901C1
:10543000009731E0A307B10520F08FEF9FEFA0E0C8
:10544000B0E0EE89FF8991838083288D398DA20E8B
:10545000B31E0E948B0B32E3A316B104E8F40E9442
:1054600079096C197D098E099F096135734C810595
:10547000910508F4AACF8DE393E00E94D50F85E251
:1054800093E00E94D50F0E94582886E991E00E947F
:1054900015130E94791325CF23E045E068EC70E0F6
:1054A000892D0E94730E182F8823C9F221E1A88943
:1054B000B9892A9FC0012B9F900D1124FC01E85748
:1054C000FC4F7F01608071800E946F280E947909E3
:1054D0006A8B7B8B8C8B9D8BC82CD12C5701F2E077
:1054E000AF0EB11C23E045E068EC70E0892D0E940E
:1054F000730E882309F44DC08EE694E00E945A0B87
:10550000892B81F08EE694E00E94360B819751F44E
:105510008EE694E00E94180B81E08093FF0387E001
:1055200093E0D5CE8091FF03882319F089EF92E0B4
:10553000CECE0E942209621973098409950997FD4C
:1055400016C02C853D854E855F85220E331E441E78
:10555000551ED7018D919C9196018C159D0510F4D7
:1055600021E030E0821B930BF501918380830E9440
:105570008B0B0E9479092A893B894C895D89621BC2
:10558000730B840B950B693873418105910508F401
:10559000A9CF24E1E22EF12C21E148895989249FE9
:1055A000C001259F900D1124DC01A857BC4F6D014F
:1055B000A82CB12C4D01B2E08B0E911CF60180811C
:1055C0009181892B09F052C081E128893989829F14
:1055D000F001839FF00D1124E857FC4F80819181E9
:1055E00093838283F901EE0FFF1FE45EFE4F718209
:1055F0006082F901EE59FB4F81E06114710409F4F6
:1056000080E0808380E991E00E94151383ED92E0B1
:105610000E94D50F6114710409F471C09E01295FC5
:105620003F4F00E079018AE0C82ED12C0F5FC30103
:10563000B6010E945233805DD9018D939D013B01DB
:10564000672B11F0053091F7DE011196802F9D0137
:105650008150A701480F511DFA0190819D9381113E
:10566000F7CFF901E00FF11D10824CC08EE694E0F7
:105670000E945A0B892B81F08EE694E00E94360B33
:10568000819751F48EE694E00E94180B81E080939C
:10569000FF0385EB92E01BCE8091FF03882319F076
:1056A00087EA92E014CE0E942209621973098409E4
:1056B000950997FD1DC08C859D85AE85BF85280EFB
:1056C000391E4A1E5B1ED6012D913C91C501EA147C
:1056D000FB0408F4C701AC012817390710F441E0B6
:1056E00050E0241B350BF40131832083E81AF90ABA
:1056F0000E948B0BE114F10409F060CF65CF80E3C9
:1057000089831A82CE0101960E94B90F0E945828FF
:10571000E9CD2F923F924F925F926F927F928F923C
:105720009F92AF92BF92CF92DF92EF92FF920F9330
:105730001F93CF93DF93CDB7DEB72C970FB6F894B6
:10574000DEBF0FBECDBF382E8BEF830D8230F8F059
:1057500085E892E00E94D50F212C822D2C960FB661
:10576000F894DEBF0FBECDBFDF91CF911F910F9197
:10577000FF90EF90DF90CF90BF90AF909F908F9071
:105780007F906F905F904F903F902F9008950E9470
:10579000CA26BB24BA94B30C1092FF030E949D1337
:1057A00086E991E00E94151389EE91E00E94D50FE1
:1057B0000E946F28209118013091190140911A011F
:1057C00050911B0129833A834B835C832837310531
:1057D0004105510540F488E790E0A0E0B0E08983FE
:1057E0009A83AB83BC83909117019D830E94220909
:1057F0002B013C01832D0E94600E882309F460C0B8
:105800008DEB91E00E94D50F0E94632802E310E027
:10581000E1E1BE9ED0011124A857BC4FBF83AE83E7
:10582000FD81EF2EF12C6D0122E0C20ED11C0E94F1
:10583000FF26882381F08FEA91E00E94D50F0E9415
:1058400058280E94791386E991E00E941513212CB3
:105850000E94C52682CF0E94220964197509860913
:10586000970997FD27C089819A81AB81BC81480E39
:10587000591E6A1E7B1EAE81BF812D913C91C701CE
:105880000E151F0508F4C801AC0170E060E0420F7E
:10589000531F611D711D41155105B1E06B07710565
:1058A00020F04FEF5FEF60E070E0F601518340833E
:1058B000081B190B0E948B0B0115110509F0B7CFBE
:1058C0008B2C912C41E1B49E9001112428573C4F20
:1058D0003F832E838FEF9FEFD90111969C938E9378
:1058E00013969C938E9312970E9479095B016C0129
:1058F0000E946F2810E000E0EE81FF81FC87EB87BB
:10590000FD81EF2EF12C2B853C852E5F3F4F3F8391
:105910002E830E94FF26882319F081EA91E08DCF23
:105920000E942209641975098609970997FD1AC012
:1059300089819A81AB81BC81480E591E6A1E7B1EEB
:10594000AB85BC858D919C9197018E159F0510F4B8
:1059500021E030E0821B930BEE81FF8191838083F5
:105960000E0D1F1D0E948B0B0E94FF26282E8823E0
:1059700019F083E991E061CF02331105E8F40E9448
:1059800079096A197B098C099D096135734C810578
:10599000910508F4BECF84E591E00E94D50F8CE319
:1059A00091E00E94D50F0E94582886E991E00E945C
:1059B00015130E9479134CCF23E045E068EC70E0AA
:1059C000832D0E94730E8A878823C9F20E94632860
:1059D000F401EE0FFF1FEC5AFB4FA080B180A11421
:1059E000B10419F484E1A82EB12C0E9479096B014D
:1059F0007C0121E1289DA001299D500D11244857CB
:105A00005C4F5C874B879D81892F90E0B0E0A0E0E0
:105A10008E839F83A887B9878A010E5F1F4F23E07B
:105A200045E068EC70E0832D0E94730E882309F432
:105A300049C00E94FF26882369F08EE291E00E940F
:105A4000D50F0E9458280E94791386E991E00E94A0
:105A50001513FECE0E94220964197509860997095B
:105A600097FD22C029813A814B815C81420E531EF1
:105A7000641E751EAB85BC858D919C912E813F81E6
:105A800048855985280F391F411D511DDA01C9016B
:105A9000009731E0A307B10520F08FEF9FEFA0E062
:105AA000B0E0F801918380830E948B0B0E947909FA
:105AB0006C197D098E099F0969387341810591052B
:105AC00008F4ADCF81E1889D8001899D100D1124DE
:105AD00008571C4F3D81232F30E03F832E837801F0
